8=FIX.4.4|9=95|35=A|34=1|49=TEST_INITIATOR|52=20250613-14:31:06.412|56=TEST_ACCEPTOR|98=0|108=30|141=Y|6300=1|10=164|
8=FIX.4.4|9=146|35=5|34=1|49=TEST_ACCEPTOR|52=20250613-14:31:06.436|56=TEST_INITIATOR|58=Invalid Logon message: Tag not defined for this message type, field=6300|10=053|
8=FIX.4.4|9=95|35=A|34=1|49=TEST_INITIATOR|52=20250613-14:31:11.403|56=TEST_ACCEPTOR|98=0|108=30|141=Y|6300=1|10=160|
8=FIX.4.4|9=146|35=5|34=2|49=TEST_ACCEPTOR|52=20250613-14:31:11.404|56=TEST_INITIATOR|58=Invalid Logon message: Tag not defined for this message type, field=6300|10=045|
8=FIX.4.4|9=95|35=A|34=1|49=TEST_INITIATOR|52=20250613-14:31:16.408|56=TEST_ACCEPTOR|98=0|108=30|141=Y|6300=1|10=170|
8=FIX.4.4|9=146|35=5|34=3|49=TEST_ACCEPTOR|52=20250613-14:31:16.410|56=TEST_INITIATOR|58=Invalid Logon message: Tag not defined for this message type, field=6300|10=048|
8=FIX.4.4|9=95|35=A|34=1|49=TEST_INITIATOR|52=20250613-14:31:21.408|56=TEST_ACCEPTOR|98=0|108=30|141=Y|6300=1|10=166|
8=FIX.4.4|9=146|35=5|34=4|49=TEST_ACCEPTOR|52=20250613-14:31:21.409|56=TEST_INITIATOR|58=Invalid Logon message: Tag not defined for this message type, field=6300|10=053|
8=FIX.4.4|9=95|35=A|34=1|49=TEST_INITIATOR|52=20250613-14:31:26.408|56=TEST_ACCEPTOR|98=0|108=30|141=Y|6300=1|10=171|
8=FIX.4.4|9=146|35=5|34=5|49=TEST_ACCEPTOR|52=20250613-14:31:26.410|56=TEST_INITIATOR|58=Invalid Logon message: Tag not defined for this message type, field=6300|10=051|
8=FIX.4.4|9=95|35=A|34=1|49=TEST_INITIATOR|52=20250613-14:31:31.408|56=TEST_ACCEPTOR|98=0|108=30|141=Y|6300=1|10=167|
8=FIX.4.4|9=146|35=5|34=6|49=TEST_ACCEPTOR|52=20250613-14:31:31.409|56=TEST_INITIATOR|58=Invalid Logon message: Tag not defined for this message type, field=6300|10=056|
8=FIX.4.4|9=95|35=A|34=1|49=TEST_INITIATOR|52=20250613-14:31:36.408|56=TEST_ACCEPTOR|98=0|108=30|141=Y|6300=1|10=172|
8=FIX.4.4|9=146|35=5|34=7|49=TEST_ACCEPTOR|52=20250613-14:31:36.409|56=TEST_INITIATOR|58=Invalid Logon message: Tag not defined for this message type, field=6300|10=062|
8=FIX.4.4|9=95|35=A|34=1|49=TEST_INITIATOR|52=20250613-14:31:41.408|56=TEST_ACCEPTOR|98=0|108=30|141=Y|6300=1|10=168|
8=FIX.4.4|9=146|35=5|34=8|49=TEST_ACCEPTOR|52=20250613-14:31:41.409|56=TEST_INITIATOR|58=Invalid Logon message: Tag not defined for this message type, field=6300|10=059|
8=FIX.4.4|9=95|35=A|34=1|49=TEST_INITIATOR|52=20250613-14:31:46.408|56=TEST_ACCEPTOR|98=0|108=30|141=Y|6300=1|10=173|
8=FIX.4.4|9=146|35=5|34=9|49=TEST_ACCEPTOR|52=20250613-14:31:46.409|56=TEST_INITIATOR|58=Invalid Logon message: Tag not defined for this message type, field=6300|10=065|
8=FIX.4.4|9=95|35=A|34=1|49=TEST_INITIATOR|52=20250613-14:31:51.404|56=TEST_ACCEPTOR|98=0|108=30|141=Y|6300=1|10=165|
8=FIX.4.4|9=147|35=5|34=10|49=TEST_ACCEPTOR|52=20250613-14:31:51.405|56=TEST_INITIATOR|58=Invalid Logon message: Tag not defined for this message type, field=6300|10=098|
8=FIX.4.4|9=95|35=A|34=1|49=TEST_INITIATOR|52=20250613-14:31:56.408|56=TEST_ACCEPTOR|98=0|108=30|141=Y|6300=1|10=174|
8=FIX.4.4|9=147|35=5|34=11|49=TEST_ACCEPTOR|52=20250613-14:31:56.409|56=TEST_INITIATOR|58=Invalid Logon message: Tag not defined for this message type, field=6300|10=108|
8=FIX.4.4|9=95|35=A|34=1|49=TEST_INITIATOR|52=20250613-14:32:01.406|56=TEST_ACCEPTOR|98=0|108=30|141=Y|6300=1|10=163|
8=FIX.4.4|9=147|35=5|34=12|49=TEST_ACCEPTOR|52=20250613-14:32:01.408|56=TEST_INITIATOR|58=Invalid Logon message: Tag not defined for this message type, field=6300|10=099|
8=FIX.4.4|9=95|35=A|34=1|49=TEST_INITIATOR|52=20250613-14:32:06.408|56=TEST_ACCEPTOR|98=0|108=30|141=Y|6300=1|10=170|
8=FIX.4.4|9=147|35=5|34=13|49=TEST_ACCEPTOR|52=20250613-14:32:06.409|56=TEST_INITIATOR|58=Invalid Logon message: Tag not defined for this message type, field=6300|10=106|
8=FIX.4.4|9=95|35=A|34=1|49=TEST_INITIATOR|52=20250613-14:32:11.405|56=TEST_ACCEPTOR|98=0|108=30|141=Y|6300=1|10=163|
8=FIX.4.4|9=147|35=5|34=14|49=TEST_ACCEPTOR|52=20250613-14:32:11.407|56=TEST_INITIATOR|58=Invalid Logon message: Tag not defined for this message type, field=6300|10=101|
8=FIX.4.4|9=95|35=A|34=1|49=TEST_INITIATOR|52=20250613-14:32:31.591|56=TEST_ACCEPTOR|98=0|108=30|141=Y|6300=1|10=171|
8=FIX.4.4|9=147|35=5|34=15|49=TEST_ACCEPTOR|52=20250613-14:32:31.609|56=TEST_INITIATOR|58=Invalid Logon message: Tag not defined for this message type, field=6300|10=108|
8=FIX.4.4|9=95|35=A|34=1|49=TEST_INITIATOR|52=20250613-14:32:36.586|56=TEST_ACCEPTOR|98=0|108=30|141=Y|6300=1|10=180|
8=FIX.4.4|9=147|35=5|34=16|49=TEST_ACCEPTOR|52=20250613-14:32:36.587|56=TEST_INITIATOR|58=Invalid Logon message: Tag not defined for this message type, field=6300|10=119|
8=FIX.4.4|9=95|35=A|34=1|49=TEST_INITIATOR|52=20250613-14:32:41.584|56=TEST_ACCEPTOR|98=0|108=30|141=Y|6300=1|10=174|
8=FIX.4.4|9=147|35=5|34=17|49=TEST_ACCEPTOR|52=20250613-14:32:41.585|56=TEST_INITIATOR|58=Invalid Logon message: Tag not defined for this message type, field=6300|10=114|
8=FIX.4.4|9=95|35=A|34=1|49=TEST_INITIATOR|52=20250613-14:32:46.586|56=TEST_ACCEPTOR|98=0|108=30|141=Y|6300=1|10=181|
8=FIX.4.4|9=147|35=5|34=18|49=TEST_ACCEPTOR|52=20250613-14:32:46.588|56=TEST_INITIATOR|58=Invalid Logon message: Tag not defined for this message type, field=6300|10=123|
8=FIX.4.4|9=95|35=A|34=1|49=TEST_INITIATOR|52=20250613-14:32:51.586|56=TEST_ACCEPTOR|98=0|108=30|141=Y|6300=1|10=177|
8=FIX.4.4|9=147|35=5|34=19|49=TEST_ACCEPTOR|52=20250613-14:32:51.588|56=TEST_INITIATOR|58=Invalid Logon message: Tag not defined for this message type, field=6300|10=120|
8=FIX.4.4|9=95|35=A|34=1|49=TEST_INITIATOR|52=20250613-14:32:56.584|56=TEST_ACCEPTOR|98=0|108=30|141=Y|6300=1|10=180|
8=FIX.4.4|9=147|35=5|34=20|49=TEST_ACCEPTOR|52=20250613-14:32:56.586|56=TEST_INITIATOR|58=Invalid Logon message: Tag not defined for this message type, field=6300|10=115|
8=FIX.4.4|9=95|35=A|34=1|49=TEST_INITIATOR|52=20250613-14:33:01.586|56=TEST_ACCEPTOR|98=0|108=30|141=Y|6300=1|10=173|
8=FIX.4.4|9=147|35=5|34=21|49=TEST_ACCEPTOR|52=20250613-14:33:01.588|56=TEST_INITIATOR|58=Invalid Logon message: Tag not defined for this message type, field=6300|10=109|
8=FIX.4.4|9=95|35=A|34=1|49=TEST_INITIATOR|52=20250613-14:46:15.295|56=TEST_ACCEPTOR|98=0|108=30|141=Y|6300=1|10=179|
8=FIX.4.4|9=147|35=5|34=22|49=TEST_ACCEPTOR|52=20250613-14:46:15.315|56=TEST_INITIATOR|58=Invalid Logon message: Tag not defined for this message type, field=6300|10=107|
8=FIX.4.4|9=95|35=A|34=1|49=TEST_INITIATOR|52=20250613-14:46:20.290|56=TEST_ACCEPTOR|98=0|108=30|141=Y|6300=1|10=170|
8=FIX.4.4|9=147|35=5|34=23|49=TEST_ACCEPTOR|52=20250613-14:46:20.292|56=TEST_INITIATOR|58=Invalid Logon message: Tag not defined for this message type, field=6300|10=108|
8=FIX.4.4|9=95|35=A|34=1|49=TEST_INITIATOR|52=20250613-14:46:25.291|56=TEST_ACCEPTOR|98=0|108=30|141=Y|6300=1|10=176|
8=FIX.4.4|9=147|35=5|34=24|49=TEST_ACCEPTOR|52=20250613-14:46:25.293|56=TEST_INITIATOR|58=Invalid Logon message: Tag not defined for this message type, field=6300|10=115|
8=FIX.4.4|9=95|35=A|34=1|49=TEST_INITIATOR|52=20250613-14:46:30.291|56=TEST_ACCEPTOR|98=0|108=30|141=Y|6300=1|10=172|
8=FIX.4.4|9=147|35=5|34=25|49=TEST_ACCEPTOR|52=20250613-14:46:30.292|56=TEST_INITIATOR|58=Invalid Logon message: Tag not defined for this message type, field=6300|10=111|
8=FIX.4.4|9=95|35=A|34=1|49=TEST_INITIATOR|52=20250613-14:46:35.290|56=TEST_ACCEPTOR|98=0|108=30|141=Y|6300=1|10=176|
8=FIX.4.4|9=147|35=5|34=26|49=TEST_ACCEPTOR|52=20250613-14:46:35.291|56=TEST_INITIATOR|58=Invalid Logon message: Tag not defined for this message type, field=6300|10=116|
8=FIX.4.4|9=95|35=A|34=1|49=TEST_INITIATOR|52=20250613-14:46:40.290|56=TEST_ACCEPTOR|98=0|108=30|141=Y|6300=1|10=172|
8=FIX.4.4|9=147|35=5|34=27|49=TEST_ACCEPTOR|52=20250613-14:46:40.293|56=TEST_INITIATOR|58=Invalid Logon message: Tag not defined for this message type, field=6300|10=115|
8=FIX.4.4|9=95|35=A|34=1|49=TEST_INITIATOR|52=20250613-14:46:45.291|56=TEST_ACCEPTOR|98=0|108=30|141=Y|6300=1|10=178|
8=FIX.4.4|9=147|35=5|34=28|49=TEST_ACCEPTOR|52=20250613-14:46:45.293|56=TEST_INITIATOR|58=Invalid Logon message: Tag not defined for this message type, field=6300|10=121|
8=FIX.4.4|9=95|35=A|34=1|49=TEST_INITIATOR|52=20250613-14:46:50.286|56=TEST_ACCEPTOR|98=0|108=30|141=Y|6300=1|10=178|
8=FIX.4.4|9=147|35=5|34=29|49=TEST_ACCEPTOR|52=20250613-14:46:50.287|56=TEST_INITIATOR|58=Invalid Logon message: Tag not defined for this message type, field=6300|10=121|
8=FIX.4.4|9=95|35=A|34=1|49=TEST_INITIATOR|52=20250613-14:46:55.290|56=TEST_ACCEPTOR|98=0|108=30|141=Y|6300=1|10=178|
8=FIX.4.4|9=147|35=5|34=30|49=TEST_ACCEPTOR|52=20250613-14:46:55.292|56=TEST_INITIATOR|58=Invalid Logon message: Tag not defined for this message type, field=6300|10=114|
8=FIX.4.4|9=95|35=A|34=1|49=TEST_INITIATOR|52=20250613-14:47:00.286|56=TEST_ACCEPTOR|98=0|108=30|141=Y|6300=1|10=174|
8=FIX.4.4|9=147|35=5|34=31|49=TEST_ACCEPTOR|52=20250613-14:47:00.287|56=TEST_INITIATOR|58=Invalid Logon message: Tag not defined for this message type, field=6300|10=110|
8=FIX.4.4|9=95|35=A|34=1|49=TEST_INITIATOR|52=20250613-14:47:05.290|56=TEST_ACCEPTOR|98=0|108=30|141=Y|6300=1|10=174|
8=FIX.4.4|9=147|35=5|34=32|49=TEST_ACCEPTOR|52=20250613-14:47:05.292|56=TEST_INITIATOR|58=Invalid Logon message: Tag not defined for this message type, field=6300|10=112|
8=FIX.4.4|9=95|35=A|34=1|49=TEST_INITIATOR|52=20250613-14:47:10.286|56=TEST_ACCEPTOR|98=0|108=30|141=Y|6300=1|10=175|
8=FIX.4.4|9=147|35=5|34=33|49=TEST_ACCEPTOR|52=20250613-14:47:10.288|56=TEST_INITIATOR|58=Invalid Logon message: Tag not defined for this message type, field=6300|10=114|
8=FIX.4.4|9=95|35=A|34=1|49=TEST_INITIATOR|52=20250613-14:47:15.287|56=TEST_ACCEPTOR|98=0|108=30|141=Y|6300=1|10=181|
8=FIX.4.4|9=147|35=5|34=34|49=TEST_ACCEPTOR|52=20250613-14:47:15.288|56=TEST_INITIATOR|58=Invalid Logon message: Tag not defined for this message type, field=6300|10=120|
8=FIX.4.4|9=95|35=A|34=1|49=TEST_INITIATOR|52=20250613-14:47:20.290|56=TEST_ACCEPTOR|98=0|108=30|141=Y|6300=1|10=171|
8=FIX.4.4|9=147|35=5|34=35|49=TEST_ACCEPTOR|52=20250613-14:47:20.291|56=TEST_INITIATOR|58=Invalid Logon message: Tag not defined for this message type, field=6300|10=111|
8=FIX.4.4|9=95|35=A|34=1|49=TEST_INITIATOR|52=20250613-14:47:25.290|56=TEST_ACCEPTOR|98=0|108=30|141=Y|6300=1|10=176|
8=FIX.4.4|9=147|35=5|34=36|49=TEST_ACCEPTOR|52=20250613-14:47:25.292|56=TEST_INITIATOR|58=Invalid Logon message: Tag not defined for this message type, field=6300|10=118|
8=FIX.4.4|9=95|35=A|34=1|49=TEST_INITIATOR|52=20250613-14:47:30.290|56=TEST_ACCEPTOR|98=0|108=30|141=Y|6300=1|10=172|
8=FIX.4.4|9=147|35=5|34=37|49=TEST_ACCEPTOR|52=20250613-14:47:30.291|56=TEST_INITIATOR|58=Invalid Logon message: Tag not defined for this message type, field=6300|10=114|
8=FIX.4.4|9=95|35=A|34=1|49=TEST_INITIATOR|52=20250613-14:47:35.290|56=TEST_ACCEPTOR|98=0|108=30|141=Y|6300=1|10=177|
8=FIX.4.4|9=147|35=5|34=38|49=TEST_ACCEPTOR|52=20250613-14:47:35.291|56=TEST_INITIATOR|58=Invalid Logon message: Tag not defined for this message type, field=6300|10=120|
8=FIX.4.4|9=95|35=A|34=1|49=TEST_INITIATOR|52=20250613-14:47:40.291|56=TEST_ACCEPTOR|98=0|108=30|141=Y|6300=1|10=174|
8=FIX.4.4|9=147|35=5|34=39|49=TEST_ACCEPTOR|52=20250613-14:47:40.292|56=TEST_INITIATOR|58=Invalid Logon message: Tag not defined for this message type, field=6300|10=118|
8=FIX.4.4|9=95|35=A|34=1|49=TEST_INITIATOR|52=20250613-14:47:45.291|56=TEST_ACCEPTOR|98=0|108=30|141=Y|6300=1|10=179|
8=FIX.4.4|9=147|35=5|34=40|49=TEST_ACCEPTOR|52=20250613-14:47:45.293|56=TEST_INITIATOR|58=Invalid Logon message: Tag not defined for this message type, field=6300|10=116|
8=FIX.4.4|9=95|35=A|34=1|49=TEST_INITIATOR|52=20250613-14:47:50.290|56=TEST_ACCEPTOR|98=0|108=30|141=Y|6300=1|10=174|
8=FIX.4.4|9=147|35=5|34=41|49=TEST_ACCEPTOR|52=20250613-14:47:50.292|56=TEST_INITIATOR|58=Invalid Logon message: Tag not defined for this message type, field=6300|10=112|
8=FIX.4.4|9=95|35=A|34=1|49=TEST_INITIATOR|52=20250613-14:47:55.291|56=TEST_ACCEPTOR|98=0|108=30|141=Y|6300=1|10=180|
8=FIX.4.4|9=147|35=5|34=42|49=TEST_ACCEPTOR|52=20250613-14:47:55.293|56=TEST_INITIATOR|58=Invalid Logon message: Tag not defined for this message type, field=6300|10=119|
8=FIX.4.4|9=95|35=A|34=1|49=TEST_INITIATOR|52=20250613-14:48:00.290|56=TEST_ACCEPTOR|98=0|108=30|141=Y|6300=1|10=170|
8=FIX.4.4|9=147|35=5|34=43|49=TEST_ACCEPTOR|52=20250613-14:48:00.292|56=TEST_INITIATOR|58=Invalid Logon message: Tag not defined for this message type, field=6300|10=110|
8=FIX.4.4|9=95|35=A|34=1|49=TEST_INITIATOR|52=20250613-14:48:05.291|56=TEST_ACCEPTOR|98=0|108=30|141=Y|6300=1|10=176|
8=FIX.4.4|9=147|35=5|34=44|49=TEST_ACCEPTOR|52=20250613-14:48:05.292|56=TEST_INITIATOR|58=Invalid Logon message: Tag not defined for this message type, field=6300|10=116|
8=FIX.4.4|9=95|35=A|34=1|49=TEST_INITIATOR|52=20250613-14:48:10.290|56=TEST_ACCEPTOR|98=0|108=30|141=Y|6300=1|10=171|
8=FIX.4.4|9=147|35=5|34=45|49=TEST_ACCEPTOR|52=20250613-14:48:10.292|56=TEST_INITIATOR|58=Invalid Logon message: Tag not defined for this message type, field=6300|10=113|
8=FIX.4.4|9=95|35=A|34=1|49=TEST_INITIATOR|52=20250613-14:48:15.287|56=TEST_ACCEPTOR|98=0|108=30|141=Y|6300=1|10=182|
8=FIX.4.4|9=147|35=5|34=46|49=TEST_ACCEPTOR|52=20250613-14:48:15.288|56=TEST_INITIATOR|58=Invalid Logon message: Tag not defined for this message type, field=6300|10=124|
8=FIX.4.4|9=95|35=A|34=1|49=TEST_INITIATOR|52=20250613-14:48:20.290|56=TEST_ACCEPTOR|98=0|108=30|141=Y|6300=1|10=172|
8=FIX.4.4|9=147|35=5|34=47|49=TEST_ACCEPTOR|52=20250613-14:48:20.292|56=TEST_INITIATOR|58=Invalid Logon message: Tag not defined for this message type, field=6300|10=116|
8=FIX.4.4|9=95|35=A|34=1|49=TEST_INITIATOR|52=20250613-14:48:25.290|56=TEST_ACCEPTOR|98=0|108=30|141=Y|6300=1|10=177|
8=FIX.4.4|9=147|35=5|34=48|49=TEST_ACCEPTOR|52=20250613-14:48:25.291|56=TEST_INITIATOR|58=Invalid Logon message: Tag not defined for this message type, field=6300|10=121|
8=FIX.4.4|9=95|35=A|34=1|49=TEST_INITIATOR|52=20250613-14:48:30.288|56=TEST_ACCEPTOR|98=0|108=30|141=Y|6300=1|10=180|
8=FIX.4.4|9=147|35=5|34=49|49=TEST_ACCEPTOR|52=20250613-14:48:30.290|56=TEST_INITIATOR|58=Invalid Logon message: Tag not defined for this message type, field=6300|10=117|
8=FIX.4.4|9=95|35=A|34=1|49=TEST_INITIATOR|52=20250613-14:48:35.291|56=TEST_ACCEPTOR|98=0|108=30|141=Y|6300=1|10=179|
8=FIX.4.4|9=147|35=5|34=50|49=TEST_ACCEPTOR|52=20250613-14:48:35.293|56=TEST_INITIATOR|58=Invalid Logon message: Tag not defined for this message type, field=6300|10=117|
8=FIX.4.4|9=95|35=A|34=1|49=TEST_INITIATOR|52=20250613-14:48:40.289|56=TEST_ACCEPTOR|98=0|108=30|141=Y|6300=1|10=182|
8=FIX.4.4|9=147|35=5|34=51|49=TEST_ACCEPTOR|52=20250613-14:48:40.290|56=TEST_INITIATOR|58=Invalid Logon message: Tag not defined for this message type, field=6300|10=111|
8=FIX.4.4|9=95|35=A|34=1|49=TEST_INITIATOR|52=20250613-14:48:45.290|56=TEST_ACCEPTOR|98=0|108=30|141=Y|6300=1|10=179|
8=FIX.4.4|9=147|35=5|34=52|49=TEST_ACCEPTOR|52=20250613-14:48:45.291|56=TEST_INITIATOR|58=Invalid Logon message: Tag not defined for this message type, field=6300|10=118|
8=FIX.4.4|9=95|35=A|34=1|49=TEST_INITIATOR|52=20250613-14:48:50.289|56=TEST_ACCEPTOR|98=0|108=30|141=Y|6300=1|10=183|
8=FIX.4.4|9=147|35=5|34=53|49=TEST_ACCEPTOR|52=20250613-14:48:50.290|56=TEST_INITIATOR|58=Invalid Logon message: Tag not defined for this message type, field=6300|10=114|
8=FIX.4.4|9=95|35=A|34=1|49=TEST_INITIATOR|52=20250613-14:48:55.290|56=TEST_ACCEPTOR|98=0|108=30|141=Y|6300=1|10=180|
8=FIX.4.4|9=147|35=5|34=54|49=TEST_ACCEPTOR|52=20250613-14:48:55.292|56=TEST_INITIATOR|58=Invalid Logon message: Tag not defined for this message type, field=6300|10=122|
8=FIX.4.4|9=95|35=A|34=1|49=TEST_INITIATOR|52=20250613-14:49:00.289|56=TEST_ACCEPTOR|98=0|108=30|141=Y|6300=1|10=179|
8=FIX.4.4|9=147|35=5|34=55|49=TEST_ACCEPTOR|52=20250613-14:49:00.290|56=TEST_INITIATOR|58=Invalid Logon message: Tag not defined for this message type, field=6300|10=112|
8=FIX.4.4|9=95|35=A|34=1|49=TEST_INITIATOR|52=20250613-14:49:05.289|56=TEST_ACCEPTOR|98=0|108=30|141=Y|6300=1|10=184|
8=FIX.4.4|9=147|35=5|34=56|49=TEST_ACCEPTOR|52=20250613-14:49:05.290|56=TEST_INITIATOR|58=Invalid Logon message: Tag not defined for this message type, field=6300|10=118|
8=FIX.4.4|9=95|35=A|34=1|49=TEST_INITIATOR|52=20250613-14:49:10.291|56=TEST_ACCEPTOR|98=0|108=30|141=Y|6300=1|10=173|
8=FIX.4.4|9=147|35=5|34=57|49=TEST_ACCEPTOR|52=20250613-14:49:10.292|56=TEST_INITIATOR|58=Invalid Logon message: Tag not defined for this message type, field=6300|10=117|
8=FIX.4.4|9=95|35=A|34=1|49=TEST_INITIATOR|52=20250613-14:49:15.286|56=TEST_ACCEPTOR|98=0|108=30|141=Y|6300=1|10=182|
8=FIX.4.4|9=147|35=5|34=58|49=TEST_ACCEPTOR|52=20250613-14:49:15.288|56=TEST_INITIATOR|58=Invalid Logon message: Tag not defined for this message type, field=6300|10=128|
8=FIX.4.4|9=95|35=A|34=1|49=TEST_INITIATOR|52=20250613-14:49:20.290|56=TEST_ACCEPTOR|98=0|108=30|141=Y|6300=1|10=173|
8=FIX.4.4|9=147|35=5|34=59|49=TEST_ACCEPTOR|52=20250613-14:49:20.291|56=TEST_INITIATOR|58=Invalid Logon message: Tag not defined for this message type, field=6300|10=119|
8=FIX.4.4|9=95|35=A|34=1|49=TEST_INITIATOR|52=20250613-14:49:25.290|56=TEST_ACCEPTOR|98=0|108=30|141=Y|6300=1|10=178|
8=FIX.4.4|9=147|35=5|34=60|49=TEST_ACCEPTOR|52=20250613-14:49:25.291|56=TEST_INITIATOR|58=Invalid Logon message: Tag not defined for this message type, field=6300|10=116|
8=FIX.4.4|9=95|35=A|34=1|49=TEST_INITIATOR|52=20250613-14:49:30.290|56=TEST_ACCEPTOR|98=0|108=30|141=Y|6300=1|10=174|
8=FIX.4.4|9=147|35=5|34=61|49=TEST_ACCEPTOR|52=20250613-14:49:30.292|56=TEST_INITIATOR|58=Invalid Logon message: Tag not defined for this message type, field=6300|10=114|
8=FIX.4.4|9=95|35=A|34=1|49=TEST_INITIATOR|52=20250613-14:49:35.290|56=TEST_ACCEPTOR|98=0|108=30|141=Y|6300=1|10=179|
8=FIX.4.4|9=147|35=5|34=62|49=TEST_ACCEPTOR|52=20250613-14:49:35.291|56=TEST_INITIATOR|58=Invalid Logon message: Tag not defined for this message type, field=6300|10=119|
8=FIX.4.4|9=95|35=A|34=1|49=TEST_INITIATOR|52=20250613-14:49:40.290|56=TEST_ACCEPTOR|98=0|108=30|141=Y|6300=1|10=175|
8=FIX.4.4|9=147|35=5|34=63|49=TEST_ACCEPTOR|52=20250613-14:49:40.292|56=TEST_INITIATOR|58=Invalid Logon message: Tag not defined for this message type, field=6300|10=117|
8=FIX.4.4|9=95|35=A|34=1|49=TEST_INITIATOR|52=20250613-14:49:45.290|56=TEST_ACCEPTOR|98=0|108=30|141=Y|6300=1|10=180|
8=FIX.4.4|9=147|35=5|34=64|49=TEST_ACCEPTOR|52=20250613-14:49:45.291|56=TEST_INITIATOR|58=Invalid Logon message: Tag not defined for this message type, field=6300|10=122|
8=FIX.4.4|9=95|35=A|34=1|49=TEST_INITIATOR|52=20250613-14:49:50.290|56=TEST_ACCEPTOR|98=0|108=30|141=Y|6300=1|10=176|
8=FIX.4.4|9=147|35=5|34=65|49=TEST_ACCEPTOR|52=20250613-14:49:50.291|56=TEST_INITIATOR|58=Invalid Logon message: Tag not defined for this message type, field=6300|10=119|
8=FIX.4.4|9=95|35=A|34=1|49=TEST_INITIATOR|52=20250613-14:49:55.286|56=TEST_ACCEPTOR|98=0|108=30|141=Y|6300=1|10=186|
8=FIX.4.4|9=147|35=5|34=66|49=TEST_ACCEPTOR|52=20250613-14:49:55.287|56=TEST_INITIATOR|58=Invalid Logon message: Tag not defined for this message type, field=6300|10=130|
8=FIX.4.4|9=95|35=A|34=1|49=TEST_INITIATOR|52=20250613-14:50:01.291|56=TEST_ACCEPTOR|98=0|108=30|141=Y|6300=1|10=165|
8=FIX.4.4|9=147|35=5|34=67|49=TEST_ACCEPTOR|52=20250613-14:50:01.292|56=TEST_INITIATOR|58=Invalid Logon message: Tag not defined for this message type, field=6300|10=110|
8=FIX.4.4|9=95|35=A|34=1|49=TEST_INITIATOR|52=20250613-14:50:06.291|56=TEST_ACCEPTOR|98=0|108=30|141=Y|6300=1|10=170|
8=FIX.4.4|9=147|35=5|34=68|49=TEST_ACCEPTOR|52=20250613-14:50:06.292|56=TEST_INITIATOR|58=Invalid Logon message: Tag not defined for this message type, field=6300|10=116|
8=FIX.4.4|9=95|35=A|34=1|49=TEST_INITIATOR|52=20250613-14:50:11.290|56=TEST_ACCEPTOR|98=0|108=30|141=Y|6300=1|10=165|
8=FIX.4.4|9=147|35=5|34=69|49=TEST_ACCEPTOR|52=20250613-14:50:11.292|56=TEST_INITIATOR|58=Invalid Logon message: Tag not defined for this message type, field=6300|10=113|
8=FIX.4.4|9=95|35=A|34=1|49=TEST_INITIATOR|52=20250613-14:50:16.291|56=TEST_ACCEPTOR|98=0|108=30|141=Y|6300=1|10=171|
8=FIX.4.4|9=147|35=5|34=70|49=TEST_ACCEPTOR|52=20250613-14:50:16.292|56=TEST_INITIATOR|58=Invalid Logon message: Tag not defined for this message type, field=6300|10=110|
8=FIX.4.4|9=95|35=A|34=1|49=TEST_INITIATOR|52=20250613-14:50:21.291|56=TEST_ACCEPTOR|98=0|108=30|141=Y|6300=1|10=167|
8=FIX.4.4|9=147|35=5|34=71|49=TEST_ACCEPTOR|52=20250613-14:50:21.293|56=TEST_INITIATOR|58=Invalid Logon message: Tag not defined for this message type, field=6300|10=108|
8=FIX.4.4|9=95|35=A|34=1|49=TEST_INITIATOR|52=20250613-14:50:26.290|56=TEST_ACCEPTOR|98=0|108=30|141=Y|6300=1|10=171|
8=FIX.4.4|9=147|35=5|34=72|49=TEST_ACCEPTOR|52=20250613-14:50:26.291|56=TEST_INITIATOR|58=Invalid Logon message: Tag not defined for this message type, field=6300|10=112|
8=FIX.4.4|9=95|35=A|34=1|49=TEST_INITIATOR|52=20250613-14:50:31.291|56=TEST_ACCEPTOR|98=0|108=30|141=Y|6300=1|10=168|
8=FIX.4.4|9=147|35=5|34=73|49=TEST_ACCEPTOR|52=20250613-14:50:31.292|56=TEST_INITIATOR|58=Invalid Logon message: Tag not defined for this message type, field=6300|10=110|
8=FIX.4.4|9=95|35=A|34=1|49=TEST_INITIATOR|52=20250613-14:50:36.291|56=TEST_ACCEPTOR|98=0|108=30|141=Y|6300=1|10=173|
8=FIX.4.4|9=147|35=5|34=74|49=TEST_ACCEPTOR|52=20250613-14:50:36.292|56=TEST_INITIATOR|58=Invalid Logon message: Tag not defined for this message type, field=6300|10=116|
8=FIX.4.4|9=95|35=A|34=1|49=TEST_INITIATOR|52=20250613-14:50:41.291|56=TEST_ACCEPTOR|98=0|108=30|141=Y|6300=1|10=169|
8=FIX.4.4|9=147|35=5|34=75|49=TEST_ACCEPTOR|52=20250613-14:50:41.292|56=TEST_INITIATOR|58=Invalid Logon message: Tag not defined for this message type, field=6300|10=113|
8=FIX.4.4|9=95|35=A|34=1|49=TEST_INITIATOR|52=20250613-14:50:46.291|56=TEST_ACCEPTOR|98=0|108=30|141=Y|6300=1|10=174|
8=FIX.4.4|9=147|35=5|34=76|49=TEST_ACCEPTOR|52=20250613-14:50:46.293|56=TEST_INITIATOR|58=Invalid Logon message: Tag not defined for this message type, field=6300|10=120|
8=FIX.4.4|9=95|35=A|34=1|49=TEST_INITIATOR|52=20250613-14:50:51.291|56=TEST_ACCEPTOR|98=0|108=30|141=Y|6300=1|10=170|
8=FIX.4.4|9=147|35=5|34=77|49=TEST_ACCEPTOR|52=20250613-14:50:51.292|56=TEST_INITIATOR|58=Invalid Logon message: Tag not defined for this message type, field=6300|10=116|
8=FIX.4.4|9=95|35=A|34=1|49=TEST_INITIATOR|52=20250613-14:50:56.291|56=TEST_ACCEPTOR|98=0|108=30|141=Y|6300=1|10=175|
8=FIX.4.4|9=147|35=5|34=78|49=TEST_ACCEPTOR|52=20250613-14:50:56.292|56=TEST_INITIATOR|58=Invalid Logon message: Tag not defined for this message type, field=6300|10=122|
8=FIX.4.4|9=95|35=A|34=1|49=TEST_INITIATOR|52=20250613-14:51:01.291|56=TEST_ACCEPTOR|98=0|108=30|141=Y|6300=1|10=166|
8=FIX.4.4|9=147|35=5|34=79|49=TEST_ACCEPTOR|52=20250613-14:51:01.293|56=TEST_INITIATOR|58=Invalid Logon message: Tag not defined for this message type, field=6300|10=115|
8=FIX.4.4|9=95|35=A|34=1|49=TEST_INITIATOR|52=20250613-14:51:06.289|56=TEST_ACCEPTOR|98=0|108=30|141=Y|6300=1|10=178|
8=FIX.4.4|9=147|35=5|34=80|49=TEST_ACCEPTOR|52=20250613-14:51:06.290|56=TEST_INITIATOR|58=Invalid Logon message: Tag not defined for this message type, field=6300|10=109|
8=FIX.4.4|9=95|35=A|34=1|49=TEST_INITIATOR|52=20250613-14:51:11.291|56=TEST_ACCEPTOR|98=0|108=30|141=Y|6300=1|10=167|
8=FIX.4.4|9=147|35=5|34=81|49=TEST_ACCEPTOR|52=20250613-14:51:11.292|56=TEST_INITIATOR|58=Invalid Logon message: Tag not defined for this message type, field=6300|10=108|
8=FIX.4.4|9=95|35=A|34=1|49=TEST_INITIATOR|52=20250613-14:51:16.291|56=TEST_ACCEPTOR|98=0|108=30|141=Y|6300=1|10=172|
8=FIX.4.4|9=147|35=5|34=82|49=TEST_ACCEPTOR|52=20250613-14:51:16.292|56=TEST_INITIATOR|58=Invalid Logon message: Tag not defined for this message type, field=6300|10=114|
8=FIX.4.4|9=95|35=A|34=1|49=TEST_INITIATOR|52=20250613-14:51:21.290|56=TEST_ACCEPTOR|98=0|108=30|141=Y|6300=1|10=167|
8=FIX.4.4|9=147|35=5|34=83|49=TEST_ACCEPTOR|52=20250613-14:51:21.291|56=TEST_INITIATOR|58=Invalid Logon message: Tag not defined for this message type, field=6300|10=110|
8=FIX.4.4|9=95|35=A|34=1|49=TEST_INITIATOR|52=20250613-14:51:26.291|56=TEST_ACCEPTOR|98=0|108=30|141=Y|6300=1|10=173|
8=FIX.4.4|9=147|35=5|34=84|49=TEST_ACCEPTOR|52=20250613-14:51:26.292|56=TEST_INITIATOR|58=Invalid Logon message: Tag not defined for this message type, field=6300|10=117|
8=FIX.4.4|9=95|35=A|34=1|49=TEST_INITIATOR|52=20250613-14:51:31.290|56=TEST_ACCEPTOR|98=0|108=30|141=Y|6300=1|10=168|
8=FIX.4.4|9=147|35=5|34=85|49=TEST_ACCEPTOR|52=20250613-14:51:31.292|56=TEST_INITIATOR|58=Invalid Logon message: Tag not defined for this message type, field=6300|10=114|
8=FIX.4.4|9=95|35=A|34=1|49=TEST_INITIATOR|52=20250613-14:51:36.291|56=TEST_ACCEPTOR|98=0|108=30|141=Y|6300=1|10=174|
8=FIX.4.4|9=147|35=5|34=86|49=TEST_ACCEPTOR|52=20250613-14:51:36.292|56=TEST_INITIATOR|58=Invalid Logon message: Tag not defined for this message type, field=6300|10=120|
8=FIX.4.4|9=95|35=A|34=1|49=TEST_INITIATOR|52=20250613-14:51:41.291|56=TEST_ACCEPTOR|98=0|108=30|141=Y|6300=1|10=170|
8=FIX.4.4|9=147|35=5|34=87|49=TEST_ACCEPTOR|52=20250613-14:51:41.292|56=TEST_INITIATOR|58=Invalid Logon message: Tag not defined for this message type, field=6300|10=117|
8=FIX.4.4|9=95|35=A|34=1|49=TEST_INITIATOR|52=20250613-14:51:46.288|56=TEST_ACCEPTOR|98=0|108=30|141=Y|6300=1|10=181|
8=FIX.4.4|9=147|35=5|34=88|49=TEST_ACCEPTOR|52=20250613-14:51:46.290|56=TEST_INITIATOR|58=Invalid Logon message: Tag not defined for this message type, field=6300|10=121|
8=FIX.4.4|9=95|35=A|34=1|49=TEST_INITIATOR|52=20250613-14:51:51.290|56=TEST_ACCEPTOR|98=0|108=30|141=Y|6300=1|10=170|
8=FIX.4.4|9=147|35=5|34=89|49=TEST_ACCEPTOR|52=20250613-14:51:51.292|56=TEST_INITIATOR|58=Invalid Logon message: Tag not defined for this message type, field=6300|10=120|
8=FIX.4.4|9=95|35=A|34=1|49=TEST_INITIATOR|52=20250613-14:51:56.287|56=TEST_ACCEPTOR|98=0|108=30|141=Y|6300=1|10=181|
8=FIX.4.4|9=147|35=5|34=90|49=TEST_ACCEPTOR|52=20250613-14:51:56.288|56=TEST_INITIATOR|58=Invalid Logon message: Tag not defined for this message type, field=6300|10=122|
8=FIX.4.4|9=95|35=A|34=1|49=TEST_INITIATOR|52=20250613-14:52:01.291|56=TEST_ACCEPTOR|98=0|108=30|141=Y|6300=1|10=167|
8=FIX.4.4|9=147|35=5|34=91|49=TEST_ACCEPTOR|52=20250613-14:52:01.292|56=TEST_INITIATOR|58=Invalid Logon message: Tag not defined for this message type, field=6300|10=109|
8=FIX.4.4|9=95|35=A|34=1|49=TEST_INITIATOR|52=20250613-14:52:06.287|56=TEST_ACCEPTOR|98=0|108=30|141=Y|6300=1|10=177|
8=FIX.4.4|9=147|35=5|34=92|49=TEST_ACCEPTOR|52=20250613-14:52:06.289|56=TEST_INITIATOR|58=Invalid Logon message: Tag not defined for this message type, field=6300|10=121|
8=FIX.4.4|9=95|35=A|34=1|49=TEST_INITIATOR|52=20250613-14:52:11.289|56=TEST_ACCEPTOR|98=0|108=30|141=Y|6300=1|10=175|
8=FIX.4.4|9=147|35=5|34=93|49=TEST_ACCEPTOR|52=20250613-14:52:11.291|56=TEST_INITIATOR|58=Invalid Logon message: Tag not defined for this message type, field=6300|10=111|
8=FIX.4.4|9=95|35=A|34=1|49=TEST_INITIATOR|52=20250613-14:52:16.291|56=TEST_ACCEPTOR|98=0|108=30|141=Y|6300=1|10=173|
8=FIX.4.4|9=147|35=5|34=94|49=TEST_ACCEPTOR|52=20250613-14:52:16.292|56=TEST_INITIATOR|58=Invalid Logon message: Tag not defined for this message type, field=6300|10=118|
8=FIX.4.4|9=95|35=A|34=1|49=TEST_INITIATOR|52=20250613-14:52:21.290|56=TEST_ACCEPTOR|98=0|108=30|141=Y|6300=1|10=168|
8=FIX.4.4|9=147|35=5|34=95|49=TEST_ACCEPTOR|52=20250613-14:52:21.292|56=TEST_INITIATOR|58=Invalid Logon message: Tag not defined for this message type, field=6300|10=115|
8=FIX.4.4|9=95|35=A|34=1|49=TEST_INITIATOR|52=20250613-14:52:26.286|56=TEST_ACCEPTOR|98=0|108=30|141=Y|6300=1|10=178|
8=FIX.4.4|9=147|35=5|34=96|49=TEST_ACCEPTOR|52=20250613-14:52:26.287|56=TEST_INITIATOR|58=Invalid Logon message: Tag not defined for this message type, field=6300|10=125|
8=FIX.4.4|9=95|35=A|34=1|49=TEST_INITIATOR|52=20250613-14:52:31.291|56=TEST_ACCEPTOR|98=0|108=30|141=Y|6300=1|10=170|
8=FIX.4.4|9=147|35=5|34=97|49=TEST_ACCEPTOR|52=20250613-14:52:31.292|56=TEST_INITIATOR|58=Invalid Logon message: Tag not defined for this message type, field=6300|10=118|
8=FIX.4.4|9=95|35=A|34=1|49=TEST_INITIATOR|52=20250613-14:52:36.291|56=TEST_ACCEPTOR|98=0|108=30|141=Y|6300=1|10=175|
8=FIX.4.4|9=147|35=5|34=98|49=TEST_ACCEPTOR|52=20250613-14:52:36.292|56=TEST_INITIATOR|58=Invalid Logon message: Tag not defined for this message type, field=6300|10=124|
8=FIX.4.4|9=95|35=A|34=1|49=TEST_INITIATOR|52=20250613-14:52:41.290|56=TEST_ACCEPTOR|98=0|108=30|141=Y|6300=1|10=170|
8=FIX.4.4|9=147|35=5|34=99|49=TEST_ACCEPTOR|52=20250613-14:52:41.292|56=TEST_INITIATOR|58=Invalid Logon message: Tag not defined for this message type, field=6300|10=121|
8=FIX.4.4|9=95|35=A|34=1|49=TEST_INITIATOR|52=20250613-14:52:46.291|56=TEST_ACCEPTOR|98=0|108=30|141=Y|6300=1|10=176|
8=FIX.4.4|9=148|35=5|34=100|49=TEST_ACCEPTOR|52=20250613-14:52:46.292|56=TEST_INITIATOR|58=Invalid Logon message: Tag not defined for this message type, field=6300|10=158|
8=FIX.4.4|9=95|35=A|34=1|49=TEST_INITIATOR|52=20250613-14:52:51.290|56=TEST_ACCEPTOR|98=0|108=30|141=Y|6300=1|10=171|
8=FIX.4.4|9=148|35=5|34=101|49=TEST_ACCEPTOR|52=20250613-14:52:51.292|56=TEST_INITIATOR|58=Invalid Logon message: Tag not defined for this message type, field=6300|10=155|
8=FIX.4.4|9=95|35=A|34=1|49=TEST_INITIATOR|52=20250613-14:52:56.290|56=TEST_ACCEPTOR|98=0|108=30|141=Y|6300=1|10=176|
8=FIX.4.4|9=148|35=5|34=102|49=TEST_ACCEPTOR|52=20250613-14:52:56.291|56=TEST_INITIATOR|58=Invalid Logon message: Tag not defined for this message type, field=6300|10=160|
8=FIX.4.4|9=95|35=A|34=1|49=TEST_INITIATOR|52=20250613-14:53:01.290|56=TEST_ACCEPTOR|98=0|108=30|141=Y|6300=1|10=167|
8=FIX.4.4|9=148|35=5|34=103|49=TEST_ACCEPTOR|52=20250613-14:53:01.292|56=TEST_INITIATOR|58=Invalid Logon message: Tag not defined for this message type, field=6300|10=153|
8=FIX.4.4|9=95|35=A|34=1|49=TEST_INITIATOR|52=20250613-14:53:06.287|56=TEST_ACCEPTOR|98=0|108=30|141=Y|6300=1|10=178|
8=FIX.4.4|9=148|35=5|34=104|49=TEST_ACCEPTOR|52=20250613-14:53:06.289|56=TEST_INITIATOR|58=Invalid Logon message: Tag not defined for this message type, field=6300|10=165|
8=FIX.4.4|9=95|35=A|34=1|49=TEST_INITIATOR|52=20250613-14:53:11.291|56=TEST_ACCEPTOR|98=0|108=30|141=Y|6300=1|10=169|
8=FIX.4.4|9=148|35=5|34=105|49=TEST_ACCEPTOR|52=20250613-14:53:11.292|56=TEST_INITIATOR|58=Invalid Logon message: Tag not defined for this message type, field=6300|10=156|
8=FIX.4.4|9=95|35=A|34=1|49=TEST_INITIATOR|52=20250613-14:53:16.291|56=TEST_ACCEPTOR|98=0|108=30|141=Y|6300=1|10=174|
8=FIX.4.4|9=148|35=5|34=106|49=TEST_ACCEPTOR|52=20250613-14:53:16.292|56=TEST_INITIATOR|58=Invalid Logon message: Tag not defined for this message type, field=6300|10=162|
8=FIX.4.4|9=95|35=A|34=1|49=TEST_INITIATOR|52=20250613-14:53:21.290|56=TEST_ACCEPTOR|98=0|108=30|141=Y|6300=1|10=169|
8=FIX.4.4|9=148|35=5|34=107|49=TEST_ACCEPTOR|52=20250613-14:53:21.292|56=TEST_INITIATOR|58=Invalid Logon message: Tag not defined for this message type, field=6300|10=159|
8=FIX.4.4|9=95|35=A|34=1|49=TEST_INITIATOR|52=20250613-14:53:26.286|56=TEST_ACCEPTOR|98=0|108=30|141=Y|6300=1|10=179|
8=FIX.4.4|9=148|35=5|34=108|49=TEST_ACCEPTOR|52=20250613-14:53:26.287|56=TEST_INITIATOR|58=Invalid Logon message: Tag not defined for this message type, field=6300|10=169|
8=FIX.4.4|9=95|35=A|34=1|49=TEST_INITIATOR|52=20250613-14:53:31.290|56=TEST_ACCEPTOR|98=0|108=30|141=Y|6300=1|10=170|
8=FIX.4.4|9=148|35=5|34=109|49=TEST_ACCEPTOR|52=20250613-14:53:31.291|56=TEST_INITIATOR|58=Invalid Logon message: Tag not defined for this message type, field=6300|10=161|
8=FIX.4.4|9=95|35=A|34=1|49=TEST_INITIATOR|52=20250613-14:53:36.290|56=TEST_ACCEPTOR|98=0|108=30|141=Y|6300=1|10=175|
8=FIX.4.4|9=148|35=5|34=110|49=TEST_ACCEPTOR|52=20250613-14:53:36.291|56=TEST_INITIATOR|58=Invalid Logon message: Tag not defined for this message type, field=6300|10=158|
8=FIX.4.4|9=95|35=A|34=1|49=TEST_INITIATOR|52=20250613-14:53:41.290|56=TEST_ACCEPTOR|98=0|108=30|141=Y|6300=1|10=171|
8=FIX.4.4|9=148|35=5|34=111|49=TEST_ACCEPTOR|52=20250613-14:53:41.291|56=TEST_INITIATOR|58=Invalid Logon message: Tag not defined for this message type, field=6300|10=155|
8=FIX.4.4|9=95|35=A|34=1|49=TEST_INITIATOR|52=20250613-14:53:46.290|56=TEST_ACCEPTOR|98=0|108=30|141=Y|6300=1|10=176|
8=FIX.4.4|9=148|35=5|34=112|49=TEST_ACCEPTOR|52=20250613-14:53:46.291|56=TEST_INITIATOR|58=Invalid Logon message: Tag not defined for this message type, field=6300|10=161|
8=FIX.4.4|9=95|35=A|34=1|49=TEST_INITIATOR|52=20250613-14:53:51.288|56=TEST_ACCEPTOR|98=0|108=30|141=Y|6300=1|10=179|
8=FIX.4.4|9=148|35=5|34=113|49=TEST_ACCEPTOR|52=20250613-14:53:51.289|56=TEST_INITIATOR|58=Invalid Logon message: Tag not defined for this message type, field=6300|10=165|
8=FIX.4.4|9=95|35=A|34=1|49=TEST_INITIATOR|52=20250613-14:53:57.290|56=TEST_ACCEPTOR|98=0|108=30|141=Y|6300=1|10=178|
8=FIX.4.4|9=148|35=5|34=114|49=TEST_ACCEPTOR|52=20250613-14:53:57.292|56=TEST_INITIATOR|58=Invalid Logon message: Tag not defined for this message type, field=6300|10=166|
8=FIX.4.4|9=95|35=A|34=1|49=TEST_INITIATOR|52=20250613-14:54:02.287|56=TEST_ACCEPTOR|98=0|108=30|141=Y|6300=1|10=175|
8=FIX.4.4|9=148|35=5|34=115|49=TEST_ACCEPTOR|52=20250613-14:54:02.289|56=TEST_INITIATOR|58=Invalid Logon message: Tag not defined for this message type, field=6300|10=164|
8=FIX.4.4|9=95|35=A|34=1|49=TEST_INITIATOR|52=20250613-14:54:07.290|56=TEST_ACCEPTOR|98=0|108=30|141=Y|6300=1|10=174|
8=FIX.4.4|9=148|35=5|34=116|49=TEST_ACCEPTOR|52=20250613-14:54:07.291|56=TEST_INITIATOR|58=Invalid Logon message: Tag not defined for this message type, field=6300|10=163|
8=FIX.4.4|9=95|35=A|34=1|49=TEST_INITIATOR|52=20250613-14:54:12.287|56=TEST_ACCEPTOR|98=0|108=30|141=Y|6300=1|10=176|
8=FIX.4.4|9=148|35=5|34=117|49=TEST_ACCEPTOR|52=20250613-14:54:12.288|56=TEST_INITIATOR|58=Invalid Logon message: Tag not defined for this message type, field=6300|10=166|
8=FIX.4.4|9=95|35=A|34=1|49=TEST_INITIATOR|52=20250613-14:54:17.290|56=TEST_ACCEPTOR|98=0|108=30|141=Y|6300=1|10=175|
8=FIX.4.4|9=148|35=5|34=118|49=TEST_ACCEPTOR|52=20250613-14:54:17.291|56=TEST_INITIATOR|58=Invalid Logon message: Tag not defined for this message type, field=6300|10=166|
8=FIX.4.4|9=95|35=A|34=1|49=TEST_INITIATOR|52=20250613-14:54:22.290|56=TEST_ACCEPTOR|98=0|108=30|141=Y|6300=1|10=171|
8=FIX.4.4|9=148|35=5|34=119|49=TEST_ACCEPTOR|52=20250613-14:54:22.291|56=TEST_INITIATOR|58=Invalid Logon message: Tag not defined for this message type, field=6300|10=163|
8=FIX.4.4|9=95|35=A|34=1|49=TEST_INITIATOR|52=20250613-14:54:27.288|56=TEST_ACCEPTOR|98=0|108=30|141=Y|6300=1|10=183|
8=FIX.4.4|9=148|35=5|34=120|49=TEST_ACCEPTOR|52=20250613-14:54:27.290|56=TEST_INITIATOR|58=Invalid Logon message: Tag not defined for this message type, field=6300|10=159|
8=FIX.4.4|9=95|35=A|34=1|49=TEST_INITIATOR|52=20250613-14:54:32.289|56=TEST_ACCEPTOR|98=0|108=30|141=Y|6300=1|10=180|
8=FIX.4.4|9=148|35=5|34=121|49=TEST_ACCEPTOR|52=20250613-14:54:32.290|56=TEST_INITIATOR|58=Invalid Logon message: Tag not defined for this message type, field=6300|10=156|
8=FIX.4.4|9=95|35=A|34=1|49=TEST_INITIATOR|52=20250613-14:54:37.291|56=TEST_ACCEPTOR|98=0|108=30|141=Y|6300=1|10=178|
8=FIX.4.4|9=148|35=5|34=122|49=TEST_ACCEPTOR|52=20250613-14:54:37.294|56=TEST_INITIATOR|58=Invalid Logon message: Tag not defined for this message type, field=6300|10=166|
8=FIX.4.4|9=95|35=A|34=1|49=TEST_INITIATOR|52=20250613-14:54:42.291|56=TEST_ACCEPTOR|98=0|108=30|141=Y|6300=1|10=174|
8=FIX.4.4|9=148|35=5|34=123|49=TEST_ACCEPTOR|52=20250613-14:54:42.292|56=TEST_INITIATOR|58=Invalid Logon message: Tag not defined for this message type, field=6300|10=161|
8=FIX.4.4|9=95|35=A|34=1|49=TEST_INITIATOR|52=20250613-14:54:47.286|56=TEST_ACCEPTOR|98=0|108=30|141=Y|6300=1|10=183|
8=FIX.4.4|9=148|35=5|34=124|49=TEST_ACCEPTOR|52=20250613-14:54:47.289|56=TEST_INITIATOR|58=Invalid Logon message: Tag not defined for this message type, field=6300|10=173|
8=FIX.4.4|9=95|35=A|34=1|49=TEST_INITIATOR|52=20250613-14:54:52.291|56=TEST_ACCEPTOR|98=0|108=30|141=Y|6300=1|10=175|
8=FIX.4.4|9=148|35=5|34=125|49=TEST_ACCEPTOR|52=20250613-14:54:52.293|56=TEST_INITIATOR|58=Invalid Logon message: Tag not defined for this message type, field=6300|10=165|
8=FIX.4.4|9=95|35=A|34=1|49=TEST_INITIATOR|52=20250613-14:54:57.290|56=TEST_ACCEPTOR|98=0|108=30|141=Y|6300=1|10=179|
8=FIX.4.4|9=148|35=5|34=126|49=TEST_ACCEPTOR|52=20250613-14:54:57.292|56=TEST_INITIATOR|58=Invalid Logon message: Tag not defined for this message type, field=6300|10=170|
8=FIX.4.4|9=95|35=A|34=1|49=TEST_INITIATOR|52=20250613-14:55:02.291|56=TEST_ACCEPTOR|98=0|108=30|141=Y|6300=1|10=171|
8=FIX.4.4|9=148|35=5|34=127|49=TEST_ACCEPTOR|52=20250613-14:55:02.293|56=TEST_INITIATOR|58=Invalid Logon message: Tag not defined for this message type, field=6300|10=163|
8=FIX.4.4|9=95|35=A|34=1|49=TEST_INITIATOR|52=20250613-14:55:07.291|56=TEST_ACCEPTOR|98=0|108=30|141=Y|6300=1|10=176|
8=FIX.4.4|9=148|35=5|34=128|49=TEST_ACCEPTOR|52=20250613-14:55:07.292|56=TEST_INITIATOR|58=Invalid Logon message: Tag not defined for this message type, field=6300|10=168|
8=FIX.4.4|9=95|35=A|34=1|49=TEST_INITIATOR|52=20250613-14:55:12.291|56=TEST_ACCEPTOR|98=0|108=30|141=Y|6300=1|10=172|
8=FIX.4.4|9=148|35=5|34=129|49=TEST_ACCEPTOR|52=20250613-14:55:12.292|56=TEST_INITIATOR|58=Invalid Logon message: Tag not defined for this message type, field=6300|10=165|
8=FIX.4.4|9=95|35=A|34=1|49=TEST_INITIATOR|52=20250613-14:55:17.290|56=TEST_ACCEPTOR|98=0|108=30|141=Y|6300=1|10=176|
8=FIX.4.4|9=148|35=5|34=130|49=TEST_ACCEPTOR|52=20250613-14:55:17.291|56=TEST_INITIATOR|58=Invalid Logon message: Tag not defined for this message type, field=6300|10=161|
8=FIX.4.4|9=95|35=A|34=1|49=TEST_INITIATOR|52=20250613-14:55:22.291|56=TEST_ACCEPTOR|98=0|108=30|141=Y|6300=1|10=173|
8=FIX.4.4|9=148|35=5|34=131|49=TEST_ACCEPTOR|52=20250613-14:55:22.292|56=TEST_INITIATOR|58=Invalid Logon message: Tag not defined for this message type, field=6300|10=159|
8=FIX.4.4|9=95|35=A|34=1|49=TEST_INITIATOR|52=20250613-14:55:27.291|56=TEST_ACCEPTOR|98=0|108=30|141=Y|6300=1|10=178|
8=FIX.4.4|9=148|35=5|34=132|49=TEST_ACCEPTOR|52=20250613-14:55:27.292|56=TEST_INITIATOR|58=Invalid Logon message: Tag not defined for this message type, field=6300|10=165|
8=FIX.4.4|9=95|35=A|34=1|49=TEST_INITIATOR|52=20250613-14:55:32.289|56=TEST_ACCEPTOR|98=0|108=30|141=Y|6300=1|10=181|
8=FIX.4.4|9=148|35=5|34=133|49=TEST_ACCEPTOR|52=20250613-14:55:32.290|56=TEST_INITIATOR|58=Invalid Logon message: Tag not defined for this message type, field=6300|10=160|
8=FIX.4.4|9=95|35=A|34=1|49=TEST_INITIATOR|52=20250613-14:55:37.289|56=TEST_ACCEPTOR|98=0|108=30|141=Y|6300=1|10=186|
8=FIX.4.4|9=148|35=5|34=134|49=TEST_ACCEPTOR|52=20250613-14:55:37.291|56=TEST_INITIATOR|58=Invalid Logon message: Tag not defined for this message type, field=6300|10=167|
8=FIX.4.4|9=95|35=A|34=1|49=TEST_INITIATOR|52=20250613-14:55:42.288|56=TEST_ACCEPTOR|98=0|108=30|141=Y|6300=1|10=181|
8=FIX.4.4|9=148|35=5|34=135|49=TEST_ACCEPTOR|52=20250613-14:55:42.290|56=TEST_INITIATOR|58=Invalid Logon message: Tag not defined for this message type, field=6300|10=163|
8=FIX.4.4|9=95|35=A|34=1|49=TEST_INITIATOR|52=20250613-14:55:47.288|56=TEST_ACCEPTOR|98=0|108=30|141=Y|6300=1|10=186|
8=FIX.4.4|9=148|35=5|34=136|49=TEST_ACCEPTOR|52=20250613-14:55:47.289|56=TEST_INITIATOR|58=Invalid Logon message: Tag not defined for this message type, field=6300|10=177|
8=FIX.4.4|9=95|35=A|34=1|49=TEST_INITIATOR|52=20250613-14:55:52.291|56=TEST_ACCEPTOR|98=0|108=30|141=Y|6300=1|10=176|
8=FIX.4.4|9=148|35=5|34=137|49=TEST_ACCEPTOR|52=20250613-14:55:52.292|56=TEST_INITIATOR|58=Invalid Logon message: Tag not defined for this message type, field=6300|10=168|
8=FIX.4.4|9=95|35=A|34=1|49=TEST_INITIATOR|52=20250613-14:55:57.291|56=TEST_ACCEPTOR|98=0|108=30|141=Y|6300=1|10=181|
8=FIX.4.4|9=148|35=5|34=138|49=TEST_ACCEPTOR|52=20250613-14:55:57.292|56=TEST_INITIATOR|58=Invalid Logon message: Tag not defined for this message type, field=6300|10=174|
8=FIX.4.4|9=95|35=A|34=1|49=TEST_INITIATOR|52=20250613-14:56:02.291|56=TEST_ACCEPTOR|98=0|108=30|141=Y|6300=1|10=172|
8=FIX.4.4|9=148|35=5|34=139|49=TEST_ACCEPTOR|52=20250613-14:56:02.292|56=TEST_INITIATOR|58=Invalid Logon message: Tag not defined for this message type, field=6300|10=166|
8=FIX.4.4|9=95|35=A|34=1|49=TEST_INITIATOR|52=20250613-14:56:07.291|56=TEST_ACCEPTOR|98=0|108=30|141=Y|6300=1|10=177|
8=FIX.4.4|9=148|35=5|34=140|49=TEST_ACCEPTOR|52=20250613-14:56:07.292|56=TEST_INITIATOR|58=Invalid Logon message: Tag not defined for this message type, field=6300|10=163|
8=FIX.4.4|9=95|35=A|34=1|49=TEST_INITIATOR|52=20250613-14:56:12.286|56=TEST_ACCEPTOR|98=0|108=30|141=Y|6300=1|10=177|
8=FIX.4.4|9=148|35=5|34=141|49=TEST_ACCEPTOR|52=20250613-14:56:12.287|56=TEST_INITIATOR|58=Invalid Logon message: Tag not defined for this message type, field=6300|10=164|
8=FIX.4.4|9=95|35=A|34=1|49=TEST_INITIATOR|52=20250613-14:56:17.290|56=TEST_ACCEPTOR|98=0|108=30|141=Y|6300=1|10=177|
8=FIX.4.4|9=148|35=5|34=142|49=TEST_ACCEPTOR|52=20250613-14:56:17.292|56=TEST_INITIATOR|58=Invalid Logon message: Tag not defined for this message type, field=6300|10=166|
8=FIX.4.4|9=95|35=A|34=1|49=TEST_INITIATOR|52=20250613-14:56:22.291|56=TEST_ACCEPTOR|98=0|108=30|141=Y|6300=1|10=174|
8=FIX.4.4|9=148|35=5|34=143|49=TEST_ACCEPTOR|52=20250613-14:56:22.292|56=TEST_INITIATOR|58=Invalid Logon message: Tag not defined for this message type, field=6300|10=163|
8=FIX.4.4|9=95|35=A|34=1|49=TEST_INITIATOR|52=20250613-14:56:27.290|56=TEST_ACCEPTOR|98=0|108=30|141=Y|6300=1|10=178|
8=FIX.4.4|9=148|35=5|34=144|49=TEST_ACCEPTOR|52=20250613-14:56:27.291|56=TEST_INITIATOR|58=Invalid Logon message: Tag not defined for this message type, field=6300|10=168|
8=FIX.4.4|9=95|35=A|34=1|49=TEST_INITIATOR|52=20250613-14:56:32.291|56=TEST_ACCEPTOR|98=0|108=30|141=Y|6300=1|10=175|
8=FIX.4.4|9=148|35=5|34=145|49=TEST_ACCEPTOR|52=20250613-14:56:32.292|56=TEST_INITIATOR|58=Invalid Logon message: Tag not defined for this message type, field=6300|10=166|
8=FIX.4.4|9=95|35=A|34=1|49=TEST_INITIATOR|52=20250613-14:56:37.291|56=TEST_ACCEPTOR|98=0|108=30|141=Y|6300=1|10=180|
8=FIX.4.4|9=148|35=5|34=146|49=TEST_ACCEPTOR|52=20250613-14:56:37.292|56=TEST_INITIATOR|58=Invalid Logon message: Tag not defined for this message type, field=6300|10=172|
8=FIX.4.4|9=95|35=A|34=1|49=TEST_INITIATOR|52=20250613-14:56:42.291|56=TEST_ACCEPTOR|98=0|108=30|141=Y|6300=1|10=176|
8=FIX.4.4|9=148|35=5|34=147|49=TEST_ACCEPTOR|52=20250613-14:56:42.292|56=TEST_INITIATOR|58=Invalid Logon message: Tag not defined for this message type, field=6300|10=169|
8=FIX.4.4|9=95|35=A|34=1|49=TEST_INITIATOR|52=20250613-14:56:47.290|56=TEST_ACCEPTOR|98=0|108=30|141=Y|6300=1|10=180|
8=FIX.4.4|9=148|35=5|34=148|49=TEST_ACCEPTOR|52=20250613-14:56:47.291|56=TEST_INITIATOR|58=Invalid Logon message: Tag not defined for this message type, field=6300|10=174|
8=FIX.4.4|9=95|35=A|34=1|49=TEST_INITIATOR|52=20250613-14:56:52.291|56=TEST_ACCEPTOR|98=0|108=30|141=Y|6300=1|10=177|
8=FIX.4.4|9=148|35=5|34=149|49=TEST_ACCEPTOR|52=20250613-14:56:52.292|56=TEST_INITIATOR|58=Invalid Logon message: Tag not defined for this message type, field=6300|10=172|
8=FIX.4.4|9=95|35=A|34=1|49=TEST_INITIATOR|52=20250613-14:56:57.291|56=TEST_ACCEPTOR|98=0|108=30|141=Y|6300=1|10=182|
8=FIX.4.4|9=148|35=5|34=150|49=TEST_ACCEPTOR|52=20250613-14:56:57.292|56=TEST_INITIATOR|58=Invalid Logon message: Tag not defined for this message type, field=6300|10=169|
8=FIX.4.4|9=95|35=A|34=1|49=TEST_INITIATOR|52=20250613-14:57:02.291|56=TEST_ACCEPTOR|98=0|108=30|141=Y|6300=1|10=173|
8=FIX.4.4|9=148|35=5|34=151|49=TEST_ACCEPTOR|52=20250613-14:57:02.292|56=TEST_INITIATOR|58=Invalid Logon message: Tag not defined for this message type, field=6300|10=161|
8=FIX.4.4|9=95|35=A|34=1|49=TEST_INITIATOR|52=20250613-14:57:07.291|56=TEST_ACCEPTOR|98=0|108=30|141=Y|6300=1|10=178|
8=FIX.4.4|9=148|35=5|34=152|49=TEST_ACCEPTOR|52=20250613-14:57:07.292|56=TEST_INITIATOR|58=Invalid Logon message: Tag not defined for this message type, field=6300|10=167|
8=FIX.4.4|9=95|35=A|34=1|49=TEST_INITIATOR|52=20250613-14:57:12.291|56=TEST_ACCEPTOR|98=0|108=30|141=Y|6300=1|10=174|
8=FIX.4.4|9=148|35=5|34=153|49=TEST_ACCEPTOR|52=20250613-14:57:12.292|56=TEST_INITIATOR|58=Invalid Logon message: Tag not defined for this message type, field=6300|10=164|
8=FIX.4.4|9=95|35=A|34=1|49=TEST_INITIATOR|52=20250613-14:57:17.290|56=TEST_ACCEPTOR|98=0|108=30|141=Y|6300=1|10=178|
8=FIX.4.4|9=148|35=5|34=154|49=TEST_ACCEPTOR|52=20250613-14:57:17.291|56=TEST_INITIATOR|58=Invalid Logon message: Tag not defined for this message type, field=6300|10=169|
8=FIX.4.4|9=95|35=A|34=1|49=TEST_INITIATOR|52=20250613-14:57:22.290|56=TEST_ACCEPTOR|98=0|108=30|141=Y|6300=1|10=174|
8=FIX.4.4|9=148|35=5|34=155|49=TEST_ACCEPTOR|52=20250613-14:57:22.291|56=TEST_INITIATOR|58=Invalid Logon message: Tag not defined for this message type, field=6300|10=166|
8=FIX.4.4|9=95|35=A|34=1|49=TEST_INITIATOR|52=20250613-14:57:27.290|56=TEST_ACCEPTOR|98=0|108=30|141=Y|6300=1|10=179|
8=FIX.4.4|9=148|35=5|34=156|49=TEST_ACCEPTOR|52=20250613-14:57:27.291|56=TEST_INITIATOR|58=Invalid Logon message: Tag not defined for this message type, field=6300|10=172|
8=FIX.4.4|9=95|35=A|34=1|49=TEST_INITIATOR|52=20250613-14:57:32.287|56=TEST_ACCEPTOR|98=0|108=30|141=Y|6300=1|10=181|
8=FIX.4.4|9=148|35=5|34=157|49=TEST_ACCEPTOR|52=20250613-14:57:32.288|56=TEST_INITIATOR|58=Invalid Logon message: Tag not defined for this message type, field=6300|10=175|
8=FIX.4.4|9=95|35=A|34=1|49=TEST_INITIATOR|52=20250613-14:57:38.286|56=TEST_ACCEPTOR|98=0|108=30|141=Y|6300=1|10=186|
8=FIX.4.4|9=148|35=5|34=158|49=TEST_ACCEPTOR|52=20250613-14:57:38.287|56=TEST_INITIATOR|58=Invalid Logon message: Tag not defined for this message type, field=6300|10=181|
8=FIX.4.4|9=95|35=A|34=1|49=TEST_INITIATOR|52=20250613-14:57:43.291|56=TEST_ACCEPTOR|98=0|108=30|141=Y|6300=1|10=178|
8=FIX.4.4|9=148|35=5|34=159|49=TEST_ACCEPTOR|52=20250613-14:57:43.292|56=TEST_INITIATOR|58=Invalid Logon message: Tag not defined for this message type, field=6300|10=174|
8=FIX.4.4|9=95|35=A|34=1|49=TEST_INITIATOR|52=20250613-14:57:48.290|56=TEST_ACCEPTOR|98=0|108=30|141=Y|6300=1|10=182|
8=FIX.4.4|9=148|35=5|34=160|49=TEST_ACCEPTOR|52=20250613-14:57:48.293|56=TEST_INITIATOR|58=Invalid Logon message: Tag not defined for this message type, field=6300|10=172|
8=FIX.4.4|9=95|35=A|34=1|49=TEST_INITIATOR|52=20250613-14:57:53.287|56=TEST_ACCEPTOR|98=0|108=30|141=Y|6300=1|10=184|
8=FIX.4.4|9=148|35=5|34=161|49=TEST_ACCEPTOR|52=20250613-14:57:53.288|56=TEST_INITIATOR|58=Invalid Logon message: Tag not defined for this message type, field=6300|10=173|
8=FIX.4.4|9=95|35=A|34=1|49=TEST_INITIATOR|52=20250613-14:57:58.291|56=TEST_ACCEPTOR|98=0|108=30|141=Y|6300=1|10=184|
8=FIX.4.4|9=148|35=5|34=162|49=TEST_ACCEPTOR|52=20250613-14:57:58.292|56=TEST_INITIATOR|58=Invalid Logon message: Tag not defined for this message type, field=6300|10=174|
8=FIX.4.4|9=95|35=A|34=1|49=TEST_INITIATOR|52=20250613-14:58:03.291|56=TEST_ACCEPTOR|98=0|108=30|141=Y|6300=1|10=175|
8=FIX.4.4|9=148|35=5|34=163|49=TEST_ACCEPTOR|52=20250613-14:58:03.293|56=TEST_INITIATOR|58=Invalid Logon message: Tag not defined for this message type, field=6300|10=167|
8=FIX.4.4|9=95|35=A|34=1|49=TEST_INITIATOR|52=20250613-14:58:08.288|56=TEST_ACCEPTOR|98=0|108=30|141=Y|6300=1|10=186|
8=FIX.4.4|9=148|35=5|34=164|49=TEST_ACCEPTOR|52=20250613-14:58:08.290|56=TEST_INITIATOR|58=Invalid Logon message: Tag not defined for this message type, field=6300|10=170|
8=FIX.4.4|9=95|35=A|34=1|49=TEST_INITIATOR|52=20250613-14:58:13.288|56=TEST_ACCEPTOR|98=0|108=30|141=Y|6300=1|10=182|
8=FIX.4.4|9=148|35=5|34=165|49=TEST_ACCEPTOR|52=20250613-14:58:13.290|56=TEST_INITIATOR|58=Invalid Logon message: Tag not defined for this message type, field=6300|10=167|
8=FIX.4.4|9=95|35=A|34=1|49=TEST_INITIATOR|52=20250613-14:58:18.291|56=TEST_ACCEPTOR|98=0|108=30|141=Y|6300=1|10=181|
8=FIX.4.4|9=148|35=5|34=166|49=TEST_ACCEPTOR|52=20250613-14:58:18.293|56=TEST_INITIATOR|58=Invalid Logon message: Tag not defined for this message type, field=6300|10=176|
8=FIX.4.4|9=95|35=A|34=1|49=TEST_INITIATOR|52=20250613-14:58:23.290|56=TEST_ACCEPTOR|98=0|108=30|141=Y|6300=1|10=176|
8=FIX.4.4|9=148|35=5|34=167|49=TEST_ACCEPTOR|52=20250613-14:58:23.292|56=TEST_INITIATOR|58=Invalid Logon message: Tag not defined for this message type, field=6300|10=172|
8=FIX.4.4|9=95|35=A|34=1|49=TEST_INITIATOR|52=20250613-14:58:28.287|56=TEST_ACCEPTOR|98=0|108=30|141=Y|6300=1|10=187|
8=FIX.4.4|9=148|35=5|34=168|49=TEST_ACCEPTOR|52=20250613-14:58:28.288|56=TEST_INITIATOR|58=Invalid Logon message: Tag not defined for this message type, field=6300|10=183|
8=FIX.4.4|9=95|35=A|34=1|49=TEST_INITIATOR|52=20250613-14:58:33.290|56=TEST_ACCEPTOR|98=0|108=30|141=Y|6300=1|10=177|
8=FIX.4.4|9=148|35=5|34=169|49=TEST_ACCEPTOR|52=20250613-14:58:33.292|56=TEST_INITIATOR|58=Invalid Logon message: Tag not defined for this message type, field=6300|10=175|
8=FIX.4.4|9=95|35=A|34=1|49=TEST_INITIATOR|52=20250613-14:58:38.288|56=TEST_ACCEPTOR|98=0|108=30|141=Y|6300=1|10=189|
8=FIX.4.4|9=148|35=5|34=170|49=TEST_ACCEPTOR|52=20250613-14:58:38.289|56=TEST_INITIATOR|58=Invalid Logon message: Tag not defined for this message type, field=6300|10=178|
8=FIX.4.4|9=95|35=A|34=1|49=TEST_INITIATOR|52=20250613-14:58:43.291|56=TEST_ACCEPTOR|98=0|108=30|141=Y|6300=1|10=179|
8=FIX.4.4|9=148|35=5|34=171|49=TEST_ACCEPTOR|52=20250613-14:58:43.293|56=TEST_INITIATOR|58=Invalid Logon message: Tag not defined for this message type, field=6300|10=170|
8=FIX.4.4|9=95|35=A|34=1|49=TEST_INITIATOR|52=20250613-14:58:48.286|56=TEST_ACCEPTOR|98=0|108=30|141=Y|6300=1|10=188|
8=FIX.4.4|9=148|35=5|34=172|49=TEST_ACCEPTOR|52=20250613-14:58:48.288|56=TEST_INITIATOR|58=Invalid Logon message: Tag not defined for this message type, field=6300|10=180|
8=FIX.4.4|9=95|35=A|34=1|49=TEST_INITIATOR|52=20250613-14:58:53.291|56=TEST_ACCEPTOR|98=0|108=30|141=Y|6300=1|10=180|
8=FIX.4.4|9=148|35=5|34=173|49=TEST_ACCEPTOR|52=20250613-14:58:53.292|56=TEST_INITIATOR|58=Invalid Logon message: Tag not defined for this message type, field=6300|10=172|
8=FIX.4.4|9=95|35=A|34=1|49=TEST_INITIATOR|52=20250613-14:58:58.291|56=TEST_ACCEPTOR|98=0|108=30|141=Y|6300=1|10=185|
8=FIX.4.4|9=148|35=5|34=174|49=TEST_ACCEPTOR|52=20250613-14:58:58.292|56=TEST_INITIATOR|58=Invalid Logon message: Tag not defined for this message type, field=6300|10=178|
8=FIX.4.4|9=95|35=A|34=1|49=TEST_INITIATOR|52=20250613-14:59:03.288|56=TEST_ACCEPTOR|98=0|108=30|141=Y|6300=1|10=182|
8=FIX.4.4|9=148|35=5|34=175|49=TEST_ACCEPTOR|52=20250613-14:59:03.289|56=TEST_INITIATOR|58=Invalid Logon message: Tag not defined for this message type, field=6300|10=176|
8=FIX.4.4|9=95|35=A|34=1|49=TEST_INITIATOR|52=20250613-14:59:08.290|56=TEST_ACCEPTOR|98=0|108=30|141=Y|6300=1|10=180|
8=FIX.4.4|9=148|35=5|34=176|49=TEST_ACCEPTOR|52=20250613-14:59:08.291|56=TEST_INITIATOR|58=Invalid Logon message: Tag not defined for this message type, field=6300|10=175|
8=FIX.4.4|9=95|35=A|34=1|49=TEST_INITIATOR|52=20250613-14:59:13.289|56=TEST_ACCEPTOR|98=0|108=30|141=Y|6300=1|10=184|
8=FIX.4.4|9=148|35=5|34=177|49=TEST_ACCEPTOR|52=20250613-14:59:13.290|56=TEST_INITIATOR|58=Invalid Logon message: Tag not defined for this message type, field=6300|10=171|
8=FIX.4.4|9=95|35=A|34=1|49=TEST_INITIATOR|52=20250613-14:59:18.291|56=TEST_ACCEPTOR|98=0|108=30|141=Y|6300=1|10=182|
8=FIX.4.4|9=148|35=5|34=178|49=TEST_ACCEPTOR|52=20250613-14:59:18.293|56=TEST_INITIATOR|58=Invalid Logon message: Tag not defined for this message type, field=6300|10=180|
8=FIX.4.4|9=95|35=A|34=1|49=TEST_INITIATOR|52=20250613-14:59:23.291|56=TEST_ACCEPTOR|98=0|108=30|141=Y|6300=1|10=178|
8=FIX.4.4|9=148|35=5|34=179|49=TEST_ACCEPTOR|52=20250613-14:59:23.292|56=TEST_INITIATOR|58=Invalid Logon message: Tag not defined for this message type, field=6300|10=176|
8=FIX.4.4|9=95|35=A|34=1|49=TEST_INITIATOR|52=20250613-14:59:28.291|56=TEST_ACCEPTOR|98=0|108=30|141=Y|6300=1|10=183|
8=FIX.4.4|9=148|35=5|34=180|49=TEST_ACCEPTOR|52=20250613-14:59:28.292|56=TEST_INITIATOR|58=Invalid Logon message: Tag not defined for this message type, field=6300|10=173|
8=FIX.4.4|9=95|35=A|34=1|49=TEST_INITIATOR|52=20250613-14:59:33.291|56=TEST_ACCEPTOR|98=0|108=30|141=Y|6300=1|10=179|
8=FIX.4.4|9=148|35=5|34=181|49=TEST_ACCEPTOR|52=20250613-14:59:33.293|56=TEST_INITIATOR|58=Invalid Logon message: Tag not defined for this message type, field=6300|10=171|
8=FIX.4.4|9=95|35=A|34=1|49=TEST_INITIATOR|52=20250613-14:59:38.291|56=TEST_ACCEPTOR|98=0|108=30|141=Y|6300=1|10=184|
8=FIX.4.4|9=148|35=5|34=182|49=TEST_ACCEPTOR|52=20250613-14:59:38.293|56=TEST_INITIATOR|58=Invalid Logon message: Tag not defined for this message type, field=6300|10=177|
8=FIX.4.4|9=95|35=A|34=1|49=TEST_INITIATOR|52=20250613-14:59:43.291|56=TEST_ACCEPTOR|98=0|108=30|141=Y|6300=1|10=180|
8=FIX.4.4|9=148|35=5|34=183|49=TEST_ACCEPTOR|52=20250613-14:59:43.292|56=TEST_INITIATOR|58=Invalid Logon message: Tag not defined for this message type, field=6300|10=173|
8=FIX.4.4|9=95|35=A|34=1|49=TEST_INITIATOR|52=20250613-14:59:48.291|56=TEST_ACCEPTOR|98=0|108=30|141=Y|6300=1|10=185|
8=FIX.4.4|9=148|35=5|34=184|49=TEST_ACCEPTOR|52=20250613-14:59:48.292|56=TEST_INITIATOR|58=Invalid Logon message: Tag not defined for this message type, field=6300|10=179|
8=FIX.4.4|9=95|35=A|34=1|49=TEST_INITIATOR|52=20250613-14:59:53.289|56=TEST_ACCEPTOR|98=0|108=30|141=Y|6300=1|10=188|
8=FIX.4.4|9=148|35=5|34=185|49=TEST_ACCEPTOR|52=20250613-14:59:53.290|56=TEST_INITIATOR|58=Invalid Logon message: Tag not defined for this message type, field=6300|10=174|
8=FIX.4.4|9=95|35=A|34=1|49=TEST_INITIATOR|52=20250613-14:59:58.290|56=TEST_ACCEPTOR|98=0|108=30|141=Y|6300=1|10=185|
8=FIX.4.4|9=148|35=5|34=186|49=TEST_ACCEPTOR|52=20250613-14:59:58.292|56=TEST_INITIATOR|58=Invalid Logon message: Tag not defined for this message type, field=6300|10=182|
8=FIX.4.4|9=95|35=A|34=1|49=TEST_INITIATOR|52=20250613-15:00:03.291|56=TEST_ACCEPTOR|98=0|108=30|141=Y|6300=1|10=163|
8=FIX.4.4|9=148|35=5|34=187|49=TEST_ACCEPTOR|52=20250613-15:00:03.292|56=TEST_INITIATOR|58=Invalid Logon message: Tag not defined for this message type, field=6300|10=160|
8=FIX.4.4|9=95|35=A|34=1|49=TEST_INITIATOR|52=20250613-15:00:08.291|56=TEST_ACCEPTOR|98=0|108=30|141=Y|6300=1|10=168|
8=FIX.4.4|9=148|35=5|34=188|49=TEST_ACCEPTOR|52=20250613-15:00:08.292|56=TEST_INITIATOR|58=Invalid Logon message: Tag not defined for this message type, field=6300|10=166|
8=FIX.4.4|9=95|35=A|34=1|49=TEST_INITIATOR|52=20250613-15:00:13.287|56=TEST_ACCEPTOR|98=0|108=30|141=Y|6300=1|10=169|
8=FIX.4.4|9=148|35=5|34=189|49=TEST_ACCEPTOR|52=20250613-15:00:13.288|56=TEST_INITIATOR|58=Invalid Logon message: Tag not defined for this message type, field=6300|10=168|
8=FIX.4.4|9=95|35=A|34=1|49=TEST_INITIATOR|52=20250613-15:00:18.286|56=TEST_ACCEPTOR|98=0|108=30|141=Y|6300=1|10=173|
8=FIX.4.4|9=148|35=5|34=190|49=TEST_ACCEPTOR|52=20250613-15:00:18.287|56=TEST_INITIATOR|58=Invalid Logon message: Tag not defined for this message type, field=6300|10=164|
8=FIX.4.4|9=95|35=A|34=1|49=TEST_INITIATOR|52=20250613-15:00:23.291|56=TEST_ACCEPTOR|98=0|108=30|141=Y|6300=1|10=165|
8=FIX.4.4|9=148|35=5|34=191|49=TEST_ACCEPTOR|52=20250613-15:00:23.292|56=TEST_INITIATOR|58=Invalid Logon message: Tag not defined for this message type, field=6300|10=157|
8=FIX.4.4|9=95|35=A|34=1|49=TEST_INITIATOR|52=20250613-15:00:28.291|56=TEST_ACCEPTOR|98=0|108=30|141=Y|6300=1|10=170|
8=FIX.4.4|9=148|35=5|34=192|49=TEST_ACCEPTOR|52=20250613-15:00:28.292|56=TEST_INITIATOR|58=Invalid Logon message: Tag not defined for this message type, field=6300|10=163|
8=FIX.4.4|9=95|35=A|34=1|49=TEST_INITIATOR|52=20250613-15:00:33.291|56=TEST_ACCEPTOR|98=0|108=30|141=Y|6300=1|10=166|
8=FIX.4.4|9=148|35=5|34=193|49=TEST_ACCEPTOR|52=20250613-15:00:33.292|56=TEST_INITIATOR|58=Invalid Logon message: Tag not defined for this message type, field=6300|10=160|
8=FIX.4.4|9=95|35=A|34=1|49=TEST_INITIATOR|52=20250613-15:00:38.291|56=TEST_ACCEPTOR|98=0|108=30|141=Y|6300=1|10=171|
8=FIX.4.4|9=148|35=5|34=194|49=TEST_ACCEPTOR|52=20250613-15:00:38.292|56=TEST_INITIATOR|58=Invalid Logon message: Tag not defined for this message type, field=6300|10=166|
8=FIX.4.4|9=95|35=A|34=1|49=TEST_INITIATOR|52=20250613-15:00:43.286|56=TEST_ACCEPTOR|98=0|108=30|141=Y|6300=1|10=171|
8=FIX.4.4|9=148|35=5|34=195|49=TEST_ACCEPTOR|52=20250613-15:00:43.287|56=TEST_INITIATOR|58=Invalid Logon message: Tag not defined for this message type, field=6300|10=167|
8=FIX.4.4|9=95|35=A|34=1|49=TEST_INITIATOR|52=20250613-15:00:48.290|56=TEST_ACCEPTOR|98=0|108=30|141=Y|6300=1|10=171|
8=FIX.4.4|9=148|35=5|34=196|49=TEST_ACCEPTOR|52=20250613-15:00:48.291|56=TEST_INITIATOR|58=Invalid Logon message: Tag not defined for this message type, field=6300|10=168|
8=FIX.4.4|9=95|35=A|34=1|49=TEST_INITIATOR|52=20250613-15:00:53.291|56=TEST_ACCEPTOR|98=0|108=30|141=Y|6300=1|10=168|
8=FIX.4.4|9=148|35=5|34=197|49=TEST_ACCEPTOR|52=20250613-15:00:53.292|56=TEST_INITIATOR|58=Invalid Logon message: Tag not defined for this message type, field=6300|10=166|
8=FIX.4.4|9=95|35=A|34=1|49=TEST_INITIATOR|52=20250613-15:00:58.286|56=TEST_ACCEPTOR|98=0|108=30|141=Y|6300=1|10=177|
8=FIX.4.4|9=148|35=5|34=198|49=TEST_ACCEPTOR|52=20250613-15:00:58.287|56=TEST_INITIATOR|58=Invalid Logon message: Tag not defined for this message type, field=6300|10=176|
8=FIX.4.4|9=95|35=A|34=1|49=TEST_INITIATOR|52=20250613-15:01:03.291|56=TEST_ACCEPTOR|98=0|108=30|141=Y|6300=1|10=164|
8=FIX.4.4|9=148|35=5|34=199|49=TEST_ACCEPTOR|52=20250613-15:01:03.292|56=TEST_INITIATOR|58=Invalid Logon message: Tag not defined for this message type, field=6300|10=164|
8=FIX.4.4|9=95|35=A|34=1|49=TEST_INITIATOR|52=20250613-15:01:08.290|56=TEST_ACCEPTOR|98=0|108=30|141=Y|6300=1|10=168|
8=FIX.4.4|9=148|35=5|34=200|49=TEST_ACCEPTOR|52=20250613-15:01:08.291|56=TEST_INITIATOR|58=Invalid Logon message: Tag not defined for this message type, field=6300|10=151|
8=FIX.4.4|9=95|35=A|34=1|49=TEST_INITIATOR|52=20250613-15:01:13.289|56=TEST_ACCEPTOR|98=0|108=30|141=Y|6300=1|10=172|
8=FIX.4.4|9=148|35=5|34=201|49=TEST_ACCEPTOR|52=20250613-15:01:13.290|56=TEST_INITIATOR|58=Invalid Logon message: Tag not defined for this message type, field=6300|10=147|
8=FIX.4.4|9=95|35=A|34=1|49=TEST_INITIATOR|52=20250613-15:01:18.290|56=TEST_ACCEPTOR|98=0|108=30|141=Y|6300=1|10=169|
8=FIX.4.4|9=148|35=5|34=202|49=TEST_ACCEPTOR|52=20250613-15:01:18.291|56=TEST_INITIATOR|58=Invalid Logon message: Tag not defined for this message type, field=6300|10=154|
8=FIX.4.4|9=95|35=A|34=1|49=TEST_INITIATOR|52=20250613-15:01:23.290|56=TEST_ACCEPTOR|98=0|108=30|141=Y|6300=1|10=165|
8=FIX.4.4|9=148|35=5|34=203|49=TEST_ACCEPTOR|52=20250613-15:01:23.291|56=TEST_INITIATOR|58=Invalid Logon message: Tag not defined for this message type, field=6300|10=151|
8=FIX.4.4|9=95|35=A|34=1|49=TEST_INITIATOR|52=20250613-15:01:28.288|56=TEST_ACCEPTOR|98=0|108=30|141=Y|6300=1|10=177|
8=FIX.4.4|9=148|35=5|34=204|49=TEST_ACCEPTOR|52=20250613-15:01:28.289|56=TEST_INITIATOR|58=Invalid Logon message: Tag not defined for this message type, field=6300|10=164|
8=FIX.4.4|9=95|35=A|34=1|49=TEST_INITIATOR|52=20250613-15:01:34.291|56=TEST_ACCEPTOR|98=0|108=30|141=Y|6300=1|10=168|
8=FIX.4.4|9=148|35=5|34=205|49=TEST_ACCEPTOR|52=20250613-15:01:34.292|56=TEST_INITIATOR|58=Invalid Logon message: Tag not defined for this message type, field=6300|10=156|
8=FIX.4.4|9=95|35=A|34=1|49=TEST_INITIATOR|52=20250613-15:01:39.291|56=TEST_ACCEPTOR|98=0|108=30|141=Y|6300=1|10=173|
8=FIX.4.4|9=148|35=5|34=206|49=TEST_ACCEPTOR|52=20250613-15:01:39.292|56=TEST_INITIATOR|58=Invalid Logon message: Tag not defined for this message type, field=6300|10=162|
8=FIX.4.4|9=95|35=A|34=1|49=TEST_INITIATOR|52=20250613-15:01:44.291|56=TEST_ACCEPTOR|98=0|108=30|141=Y|6300=1|10=169|
8=FIX.4.4|9=148|35=5|34=207|49=TEST_ACCEPTOR|52=20250613-15:01:44.292|56=TEST_INITIATOR|58=Invalid Logon message: Tag not defined for this message type, field=6300|10=159|
8=FIX.4.4|9=95|35=A|34=1|49=TEST_INITIATOR|52=20250613-15:01:49.291|56=TEST_ACCEPTOR|98=0|108=30|141=Y|6300=1|10=174|
8=FIX.4.4|9=148|35=5|34=208|49=TEST_ACCEPTOR|52=20250613-15:01:49.292|56=TEST_INITIATOR|58=Invalid Logon message: Tag not defined for this message type, field=6300|10=165|
8=FIX.4.4|9=95|35=A|34=1|49=TEST_INITIATOR|52=20250613-15:01:54.291|56=TEST_ACCEPTOR|98=0|108=30|141=Y|6300=1|10=170|
8=FIX.4.4|9=148|35=5|34=209|49=TEST_ACCEPTOR|52=20250613-15:01:54.292|56=TEST_INITIATOR|58=Invalid Logon message: Tag not defined for this message type, field=6300|10=162|
8=FIX.4.4|9=95|35=A|34=1|49=TEST_INITIATOR|52=20250613-15:01:59.286|56=TEST_ACCEPTOR|98=0|108=30|141=Y|6300=1|10=179|
8=FIX.4.4|9=148|35=5|34=210|49=TEST_ACCEPTOR|52=20250613-15:01:59.287|56=TEST_INITIATOR|58=Invalid Logon message: Tag not defined for this message type, field=6300|10=163|
8=FIX.4.4|9=95|35=A|34=1|49=TEST_INITIATOR|52=20250613-15:02:04.288|56=TEST_ACCEPTOR|98=0|108=30|141=Y|6300=1|10=172|
8=FIX.4.4|9=148|35=5|34=211|49=TEST_ACCEPTOR|52=20250613-15:02:04.290|56=TEST_INITIATOR|58=Invalid Logon message: Tag not defined for this message type, field=6300|10=149|
8=FIX.4.4|9=95|35=A|34=1|49=TEST_INITIATOR|52=20250613-15:02:09.291|56=TEST_ACCEPTOR|98=0|108=30|141=Y|6300=1|10=171|
8=FIX.4.4|9=148|35=5|34=212|49=TEST_ACCEPTOR|52=20250613-15:02:09.292|56=TEST_INITIATOR|58=Invalid Logon message: Tag not defined for this message type, field=6300|10=157|
8=FIX.4.4|9=95|35=A|34=1|49=TEST_INITIATOR|52=20250613-15:02:14.291|56=TEST_ACCEPTOR|98=0|108=30|141=Y|6300=1|10=167|
8=FIX.4.4|9=148|35=5|34=213|49=TEST_ACCEPTOR|52=20250613-15:02:14.293|56=TEST_INITIATOR|58=Invalid Logon message: Tag not defined for this message type, field=6300|10=155|
8=FIX.4.4|9=95|35=A|34=1|49=TEST_INITIATOR|52=20250613-15:02:19.291|56=TEST_ACCEPTOR|98=0|108=30|141=Y|6300=1|10=172|
8=FIX.4.4|9=148|35=5|34=214|49=TEST_ACCEPTOR|52=20250613-15:02:19.293|56=TEST_INITIATOR|58=Invalid Logon message: Tag not defined for this message type, field=6300|10=161|
8=FIX.4.4|9=95|35=A|34=1|49=TEST_INITIATOR|52=20250613-15:02:24.291|56=TEST_ACCEPTOR|98=0|108=30|141=Y|6300=1|10=168|
8=FIX.4.4|9=148|35=5|34=215|49=TEST_ACCEPTOR|52=20250613-15:02:24.292|56=TEST_INITIATOR|58=Invalid Logon message: Tag not defined for this message type, field=6300|10=157|
8=FIX.4.4|9=95|35=A|34=1|49=TEST_INITIATOR|52=20250613-15:02:29.286|56=TEST_ACCEPTOR|98=0|108=30|141=Y|6300=1|10=177|
8=FIX.4.4|9=148|35=5|34=216|49=TEST_ACCEPTOR|52=20250613-15:02:29.288|56=TEST_INITIATOR|58=Invalid Logon message: Tag not defined for this message type, field=6300|10=168|
8=FIX.4.4|9=95|35=A|34=1|49=TEST_INITIATOR|52=20250613-15:02:34.291|56=TEST_ACCEPTOR|98=0|108=30|141=Y|6300=1|10=169|
8=FIX.4.4|9=148|35=5|34=217|49=TEST_ACCEPTOR|52=20250613-15:02:34.293|56=TEST_INITIATOR|58=Invalid Logon message: Tag not defined for this message type, field=6300|10=161|
8=FIX.4.4|9=95|35=A|34=1|49=TEST_INITIATOR|52=20250613-15:02:39.291|56=TEST_ACCEPTOR|98=0|108=30|141=Y|6300=1|10=174|
8=FIX.4.4|9=148|35=5|34=218|49=TEST_ACCEPTOR|52=20250613-15:02:39.292|56=TEST_INITIATOR|58=Invalid Logon message: Tag not defined for this message type, field=6300|10=166|
8=FIX.4.4|9=95|35=A|34=1|49=TEST_INITIATOR|52=20250613-15:02:44.291|56=TEST_ACCEPTOR|98=0|108=30|141=Y|6300=1|10=170|
8=FIX.4.4|9=148|35=5|34=219|49=TEST_ACCEPTOR|52=20250613-15:02:44.292|56=TEST_INITIATOR|58=Invalid Logon message: Tag not defined for this message type, field=6300|10=163|
8=FIX.4.4|9=95|35=A|34=1|49=TEST_INITIATOR|52=20250613-15:02:49.291|56=TEST_ACCEPTOR|98=0|108=30|141=Y|6300=1|10=175|
8=FIX.4.4|9=148|35=5|34=220|49=TEST_ACCEPTOR|52=20250613-15:02:49.292|56=TEST_INITIATOR|58=Invalid Logon message: Tag not defined for this message type, field=6300|10=160|
8=FIX.4.4|9=95|35=A|34=1|49=TEST_INITIATOR|52=20250613-15:02:54.291|56=TEST_ACCEPTOR|98=0|108=30|141=Y|6300=1|10=171|
8=FIX.4.4|9=148|35=5|34=221|49=TEST_ACCEPTOR|52=20250613-15:02:54.292|56=TEST_INITIATOR|58=Invalid Logon message: Tag not defined for this message type, field=6300|10=157|
8=FIX.4.4|9=95|35=A|34=1|49=TEST_INITIATOR|52=20250613-15:02:59.291|56=TEST_ACCEPTOR|98=0|108=30|141=Y|6300=1|10=176|
8=FIX.4.4|9=148|35=5|34=222|49=TEST_ACCEPTOR|52=20250613-15:02:59.292|56=TEST_INITIATOR|58=Invalid Logon message: Tag not defined for this message type, field=6300|10=163|
8=FIX.4.4|9=95|35=A|34=1|49=TEST_INITIATOR|52=20250613-15:03:04.291|56=TEST_ACCEPTOR|98=0|108=30|141=Y|6300=1|10=167|
8=FIX.4.4|9=148|35=5|34=223|49=TEST_ACCEPTOR|52=20250613-15:03:04.292|56=TEST_INITIATOR|58=Invalid Logon message: Tag not defined for this message type, field=6300|10=155|
8=FIX.4.4|9=95|35=A|34=1|49=TEST_INITIATOR|52=20250613-15:03:09.289|56=TEST_ACCEPTOR|98=0|108=30|141=Y|6300=1|10=179|
8=FIX.4.4|9=148|35=5|34=224|49=TEST_ACCEPTOR|52=20250613-15:03:09.290|56=TEST_INITIATOR|58=Invalid Logon message: Tag not defined for this message type, field=6300|10=159|
8=FIX.4.4|9=95|35=A|34=1|49=TEST_INITIATOR|52=20250613-15:03:14.288|56=TEST_ACCEPTOR|98=0|108=30|141=Y|6300=1|10=174|
8=FIX.4.4|9=148|35=5|34=225|49=TEST_ACCEPTOR|52=20250613-15:03:14.289|56=TEST_INITIATOR|58=Invalid Logon message: Tag not defined for this message type, field=6300|10=164|
8=FIX.4.4|9=95|35=A|34=1|49=TEST_INITIATOR|52=20250613-15:03:19.291|56=TEST_ACCEPTOR|98=0|108=30|141=Y|6300=1|10=173|
8=FIX.4.4|9=148|35=5|34=226|49=TEST_ACCEPTOR|52=20250613-15:03:19.292|56=TEST_INITIATOR|58=Invalid Logon message: Tag not defined for this message type, field=6300|10=164|
8=FIX.4.4|9=95|35=A|34=1|49=TEST_INITIATOR|52=20250613-15:03:24.288|56=TEST_ACCEPTOR|98=0|108=30|141=Y|6300=1|10=175|
8=FIX.4.4|9=148|35=5|34=227|49=TEST_ACCEPTOR|52=20250613-15:03:24.289|56=TEST_INITIATOR|58=Invalid Logon message: Tag not defined for this message type, field=6300|10=167|
8=FIX.4.4|9=95|35=A|34=1|49=TEST_INITIATOR|52=20250613-15:03:29.289|56=TEST_ACCEPTOR|98=0|108=30|141=Y|6300=1|10=181|
8=FIX.4.4|9=148|35=5|34=228|49=TEST_ACCEPTOR|52=20250613-15:03:29.290|56=TEST_INITIATOR|58=Invalid Logon message: Tag not defined for this message type, field=6300|10=165|
8=FIX.4.4|9=95|35=A|34=1|49=TEST_INITIATOR|52=20250613-15:03:34.291|56=TEST_ACCEPTOR|98=0|108=30|141=Y|6300=1|10=170|
8=FIX.4.4|9=148|35=5|34=229|49=TEST_ACCEPTOR|52=20250613-15:03:34.292|56=TEST_INITIATOR|58=Invalid Logon message: Tag not defined for this message type, field=6300|10=164|
8=FIX.4.4|9=95|35=A|34=1|49=TEST_INITIATOR|52=20250613-15:03:39.291|56=TEST_ACCEPTOR|98=0|108=30|141=Y|6300=1|10=175|
8=FIX.4.4|9=148|35=5|34=230|49=TEST_ACCEPTOR|52=20250613-15:03:39.292|56=TEST_INITIATOR|58=Invalid Logon message: Tag not defined for this message type, field=6300|10=161|
8=FIX.4.4|9=95|35=A|34=1|49=TEST_INITIATOR|52=20250613-15:03:44.287|56=TEST_ACCEPTOR|98=0|108=30|141=Y|6300=1|10=176|
8=FIX.4.4|9=148|35=5|34=231|49=TEST_ACCEPTOR|52=20250613-15:03:44.288|56=TEST_INITIATOR|58=Invalid Logon message: Tag not defined for this message type, field=6300|10=163|
8=FIX.4.4|9=95|35=A|34=1|49=TEST_INITIATOR|52=20250613-15:03:49.291|56=TEST_ACCEPTOR|98=0|108=30|141=Y|6300=1|10=176|
8=FIX.4.4|9=148|35=5|34=232|49=TEST_ACCEPTOR|52=20250613-15:03:49.292|56=TEST_INITIATOR|58=Invalid Logon message: Tag not defined for this message type, field=6300|10=164|
8=FIX.4.4|9=95|35=A|34=1|49=TEST_INITIATOR|52=20250613-15:03:54.291|56=TEST_ACCEPTOR|98=0|108=30|141=Y|6300=1|10=172|
8=FIX.4.4|9=148|35=5|34=233|49=TEST_ACCEPTOR|52=20250613-15:03:54.292|56=TEST_INITIATOR|58=Invalid Logon message: Tag not defined for this message type, field=6300|10=161|
8=FIX.4.4|9=95|35=A|34=1|49=TEST_INITIATOR|52=20250613-15:03:59.291|56=TEST_ACCEPTOR|98=0|108=30|141=Y|6300=1|10=177|
8=FIX.4.4|9=148|35=5|34=234|49=TEST_ACCEPTOR|52=20250613-15:03:59.292|56=TEST_INITIATOR|58=Invalid Logon message: Tag not defined for this message type, field=6300|10=167|
8=FIX.4.4|9=95|35=A|34=1|49=TEST_INITIATOR|52=20250613-15:04:04.290|56=TEST_ACCEPTOR|98=0|108=30|141=Y|6300=1|10=167|
8=FIX.4.4|9=148|35=5|34=235|49=TEST_ACCEPTOR|52=20250613-15:04:04.292|56=TEST_INITIATOR|58=Invalid Logon message: Tag not defined for this message type, field=6300|10=159|
8=FIX.4.4|9=95|35=A|34=1|49=TEST_INITIATOR|52=20250613-15:04:09.291|56=TEST_ACCEPTOR|98=0|108=30|141=Y|6300=1|10=173|
8=FIX.4.4|9=148|35=5|34=236|49=TEST_ACCEPTOR|52=20250613-15:04:09.292|56=TEST_INITIATOR|58=Invalid Logon message: Tag not defined for this message type, field=6300|10=165|
8=FIX.4.4|9=95|35=A|34=1|49=TEST_INITIATOR|52=20250613-15:04:14.289|56=TEST_ACCEPTOR|98=0|108=30|141=Y|6300=1|10=176|
8=FIX.4.4|9=148|35=5|34=237|49=TEST_ACCEPTOR|52=20250613-15:04:14.290|56=TEST_INITIATOR|58=Invalid Logon message: Tag not defined for this message type, field=6300|10=160|
8=FIX.4.4|9=95|35=A|34=1|49=TEST_INITIATOR|52=20250613-15:04:19.288|56=TEST_ACCEPTOR|98=0|108=30|141=Y|6300=1|10=180|
8=FIX.4.4|9=148|35=5|34=238|49=TEST_ACCEPTOR|52=20250613-15:04:19.289|56=TEST_INITIATOR|58=Invalid Logon message: Tag not defined for this message type, field=6300|10=174|
8=FIX.4.4|9=95|35=A|34=1|49=TEST_INITIATOR|52=20250613-15:04:24.290|56=TEST_ACCEPTOR|98=0|108=30|141=Y|6300=1|10=169|
8=FIX.4.4|9=148|35=5|34=239|49=TEST_ACCEPTOR|52=20250613-15:04:24.291|56=TEST_INITIATOR|58=Invalid Logon message: Tag not defined for this message type, field=6300|10=164|
8=FIX.4.4|9=95|35=A|34=1|49=TEST_INITIATOR|52=20250613-15:04:29.290|56=TEST_ACCEPTOR|98=0|108=30|141=Y|6300=1|10=174|
8=FIX.4.4|9=148|35=5|34=240|49=TEST_ACCEPTOR|52=20250613-15:04:29.291|56=TEST_INITIATOR|58=Invalid Logon message: Tag not defined for this message type, field=6300|10=161|
8=FIX.4.4|9=95|35=A|34=1|49=TEST_INITIATOR|52=20250613-15:04:34.286|56=TEST_ACCEPTOR|98=0|108=30|141=Y|6300=1|10=175|
8=FIX.4.4|9=148|35=5|34=241|49=TEST_ACCEPTOR|52=20250613-15:04:34.287|56=TEST_INITIATOR|58=Invalid Logon message: Tag not defined for this message type, field=6300|10=163|
8=FIX.4.4|9=95|35=A|34=1|49=TEST_INITIATOR|52=20250613-15:04:39.291|56=TEST_ACCEPTOR|98=0|108=30|141=Y|6300=1|10=176|
8=FIX.4.4|9=148|35=5|34=242|49=TEST_ACCEPTOR|52=20250613-15:04:39.292|56=TEST_INITIATOR|58=Invalid Logon message: Tag not defined for this message type, field=6300|10=165|
8=FIX.4.4|9=95|35=A|34=1|49=TEST_INITIATOR|52=20250613-15:04:44.291|56=TEST_ACCEPTOR|98=0|108=30|141=Y|6300=1|10=172|
8=FIX.4.4|9=148|35=5|34=243|49=TEST_ACCEPTOR|52=20250613-15:04:44.292|56=TEST_INITIATOR|58=Invalid Logon message: Tag not defined for this message type, field=6300|10=162|
8=FIX.4.4|9=95|35=A|34=1|49=TEST_INITIATOR|52=20250613-15:04:49.289|56=TEST_ACCEPTOR|98=0|108=30|141=Y|6300=1|10=184|
8=FIX.4.4|9=148|35=5|34=244|49=TEST_ACCEPTOR|52=20250613-15:04:49.290|56=TEST_INITIATOR|58=Invalid Logon message: Tag not defined for this message type, field=6300|10=166|
8=FIX.4.4|9=95|35=A|34=1|49=TEST_INITIATOR|52=20250613-15:04:54.288|56=TEST_ACCEPTOR|98=0|108=30|141=Y|6300=1|10=179|
8=FIX.4.4|9=148|35=5|34=245|49=TEST_ACCEPTOR|52=20250613-15:04:54.289|56=TEST_INITIATOR|58=Invalid Logon message: Tag not defined for this message type, field=6300|10=171|
8=FIX.4.4|9=95|35=A|34=1|49=TEST_INITIATOR|52=20250613-15:04:59.290|56=TEST_ACCEPTOR|98=0|108=30|141=Y|6300=1|10=177|
8=FIX.4.4|9=148|35=5|34=246|49=TEST_ACCEPTOR|52=20250613-15:04:59.291|56=TEST_INITIATOR|58=Invalid Logon message: Tag not defined for this message type, field=6300|10=170|
8=FIX.4.4|9=95|35=A|34=1|49=TEST_INITIATOR|52=20250613-15:05:04.291|56=TEST_ACCEPTOR|98=0|108=30|141=Y|6300=1|10=169|
8=FIX.4.4|9=148|35=5|34=247|49=TEST_ACCEPTOR|52=20250613-15:05:04.291|56=TEST_INITIATOR|58=Invalid Logon message: Tag not defined for this message type, field=6300|10=162|
8=FIX.4.4|9=95|35=A|34=1|49=TEST_INITIATOR|52=20250613-15:05:09.290|56=TEST_ACCEPTOR|98=0|108=30|141=Y|6300=1|10=173|
8=FIX.4.4|9=148|35=5|34=248|49=TEST_ACCEPTOR|52=20250613-15:05:09.291|56=TEST_INITIATOR|58=Invalid Logon message: Tag not defined for this message type, field=6300|10=168|
8=FIX.4.4|9=95|35=A|34=1|49=TEST_INITIATOR|52=20250613-15:05:14.287|56=TEST_ACCEPTOR|98=0|108=30|141=Y|6300=1|10=175|
8=FIX.4.4|9=148|35=5|34=249|49=TEST_ACCEPTOR|52=20250613-15:05:14.288|56=TEST_INITIATOR|58=Invalid Logon message: Tag not defined for this message type, field=6300|10=171|
8=FIX.4.4|9=95|35=A|34=1|49=TEST_INITIATOR|52=20250613-15:05:20.290|56=TEST_ACCEPTOR|98=0|108=30|141=Y|6300=1|10=166|
8=FIX.4.4|9=148|35=5|34=250|49=TEST_ACCEPTOR|52=20250613-15:05:20.292|56=TEST_INITIATOR|58=Invalid Logon message: Tag not defined for this message type, field=6300|10=155|
8=FIX.4.4|9=95|35=A|34=1|49=TEST_INITIATOR|52=20250613-15:05:25.290|56=TEST_ACCEPTOR|98=0|108=30|141=Y|6300=1|10=171|
8=FIX.4.4|9=148|35=5|34=251|49=TEST_ACCEPTOR|52=20250613-15:05:25.291|56=TEST_INITIATOR|58=Invalid Logon message: Tag not defined for this message type, field=6300|10=160|
8=FIX.4.4|9=95|35=A|34=1|49=TEST_INITIATOR|52=20250613-15:05:30.291|56=TEST_ACCEPTOR|98=0|108=30|141=Y|6300=1|10=168|
8=FIX.4.4|9=148|35=5|34=252|49=TEST_ACCEPTOR|52=20250613-15:05:30.292|56=TEST_INITIATOR|58=Invalid Logon message: Tag not defined for this message type, field=6300|10=158|
8=FIX.4.4|9=95|35=A|34=1|49=TEST_INITIATOR|52=20250613-15:05:35.291|56=TEST_ACCEPTOR|98=0|108=30|141=Y|6300=1|10=173|
8=FIX.4.4|9=148|35=5|34=253|49=TEST_ACCEPTOR|52=20250613-15:05:35.291|56=TEST_INITIATOR|58=Invalid Logon message: Tag not defined for this message type, field=6300|10=163|
8=FIX.4.4|9=95|35=A|34=1|49=TEST_INITIATOR|52=20250613-15:05:40.288|56=TEST_ACCEPTOR|98=0|108=30|141=Y|6300=1|10=175|
8=FIX.4.4|9=148|35=5|34=254|49=TEST_ACCEPTOR|52=20250613-15:05:40.290|56=TEST_INITIATOR|58=Invalid Logon message: Tag not defined for this message type, field=6300|10=159|
8=FIX.4.4|9=95|35=A|34=1|49=TEST_INITIATOR|52=20250613-15:05:45.290|56=TEST_ACCEPTOR|98=0|108=30|141=Y|6300=1|10=173|
8=FIX.4.4|9=148|35=5|34=255|49=TEST_ACCEPTOR|52=20250613-15:05:45.291|56=TEST_INITIATOR|58=Invalid Logon message: Tag not defined for this message type, field=6300|10=166|
8=FIX.4.4|9=95|35=A|34=1|49=TEST_INITIATOR|52=20250613-15:05:50.290|56=TEST_ACCEPTOR|98=0|108=30|141=Y|6300=1|10=169|
8=FIX.4.4|9=148|35=5|34=256|49=TEST_ACCEPTOR|52=20250613-15:05:50.292|56=TEST_INITIATOR|58=Invalid Logon message: Tag not defined for this message type, field=6300|10=164|
8=FIX.4.4|9=95|35=A|34=1|49=TEST_INITIATOR|52=20250613-15:05:55.291|56=TEST_ACCEPTOR|98=0|108=30|141=Y|6300=1|10=175|
8=FIX.4.4|9=148|35=5|34=257|49=TEST_ACCEPTOR|52=20250613-15:05:55.292|56=TEST_INITIATOR|58=Invalid Logon message: Tag not defined for this message type, field=6300|10=170|
8=FIX.4.4|9=95|35=A|34=1|49=TEST_INITIATOR|52=20250613-15:06:00.291|56=TEST_ACCEPTOR|98=0|108=30|141=Y|6300=1|10=166|
8=FIX.4.4|9=148|35=5|34=258|49=TEST_ACCEPTOR|52=20250613-15:06:00.293|56=TEST_INITIATOR|58=Invalid Logon message: Tag not defined for this message type, field=6300|10=163|
8=FIX.4.4|9=95|35=A|34=1|49=TEST_INITIATOR|52=20250613-15:06:05.288|56=TEST_ACCEPTOR|98=0|108=30|141=Y|6300=1|10=177|
8=FIX.4.4|9=148|35=5|34=259|49=TEST_ACCEPTOR|52=20250613-15:06:05.289|56=TEST_INITIATOR|58=Invalid Logon message: Tag not defined for this message type, field=6300|10=174|
8=FIX.4.4|9=95|35=A|34=1|49=TEST_INITIATOR|52=20250613-15:06:10.289|56=TEST_ACCEPTOR|98=0|108=30|141=Y|6300=1|10=174|
8=FIX.4.4|9=148|35=5|34=260|49=TEST_ACCEPTOR|52=20250613-15:06:10.290|56=TEST_INITIATOR|58=Invalid Logon message: Tag not defined for this message type, field=6300|10=154|
8=FIX.4.4|9=95|35=A|34=1|49=TEST_INITIATOR|52=20250613-15:06:15.291|56=TEST_ACCEPTOR|98=0|108=30|141=Y|6300=1|10=172|
8=FIX.4.4|9=148|35=5|34=261|49=TEST_ACCEPTOR|52=20250613-15:06:15.291|56=TEST_INITIATOR|58=Invalid Logon message: Tag not defined for this message type, field=6300|10=161|
8=FIX.4.4|9=95|35=A|34=1|49=TEST_INITIATOR|52=20250613-15:06:20.288|56=TEST_ACCEPTOR|98=0|108=30|141=Y|6300=1|10=174|
8=FIX.4.4|9=148|35=5|34=262|49=TEST_ACCEPTOR|52=20250613-15:06:20.289|56=TEST_INITIATOR|58=Invalid Logon message: Tag not defined for this message type, field=6300|10=165|
8=FIX.4.4|9=95|35=A|34=1|49=TEST_INITIATOR|52=20250613-15:06:25.290|56=TEST_ACCEPTOR|98=0|108=30|141=Y|6300=1|10=172|
8=FIX.4.4|9=148|35=5|34=263|49=TEST_ACCEPTOR|52=20250613-15:06:25.291|56=TEST_INITIATOR|58=Invalid Logon message: Tag not defined for this message type, field=6300|10=164|
8=FIX.4.4|9=95|35=A|34=1|49=TEST_INITIATOR|52=20250613-15:06:30.286|56=TEST_ACCEPTOR|98=0|108=30|141=Y|6300=1|10=173|
8=FIX.4.4|9=148|35=5|34=264|49=TEST_ACCEPTOR|52=20250613-15:06:30.287|56=TEST_INITIATOR|58=Invalid Logon message: Tag not defined for this message type, field=6300|10=166|
8=FIX.4.4|9=95|35=A|34=1|49=TEST_INITIATOR|52=20250613-15:06:35.287|56=TEST_ACCEPTOR|98=0|108=30|141=Y|6300=1|10=179|
8=FIX.4.4|9=148|35=5|34=265|49=TEST_ACCEPTOR|52=20250613-15:06:35.288|56=TEST_INITIATOR|58=Invalid Logon message: Tag not defined for this message type, field=6300|10=173|
8=FIX.4.4|9=95|35=A|34=1|49=TEST_INITIATOR|52=20250613-15:06:40.287|56=TEST_ACCEPTOR|98=0|108=30|141=Y|6300=1|10=175|
8=FIX.4.4|9=148|35=5|34=266|49=TEST_ACCEPTOR|52=20250613-15:06:40.288|56=TEST_INITIATOR|58=Invalid Logon message: Tag not defined for this message type, field=6300|10=170|
8=FIX.4.4|9=95|35=A|34=1|49=TEST_INITIATOR|52=20250613-15:06:45.291|56=TEST_ACCEPTOR|98=0|108=30|141=Y|6300=1|10=175|
8=FIX.4.4|9=148|35=5|34=267|49=TEST_ACCEPTOR|52=20250613-15:06:45.292|56=TEST_INITIATOR|58=Invalid Logon message: Tag not defined for this message type, field=6300|10=171|
8=FIX.4.4|9=95|35=A|34=1|49=TEST_INITIATOR|52=20250613-15:06:50.290|56=TEST_ACCEPTOR|98=0|108=30|141=Y|6300=1|10=170|
8=FIX.4.4|9=148|35=5|34=268|49=TEST_ACCEPTOR|52=20250613-15:06:50.291|56=TEST_INITIATOR|58=Invalid Logon message: Tag not defined for this message type, field=6300|10=167|
8=FIX.4.4|9=95|35=A|34=1|49=TEST_INITIATOR|52=20250613-15:06:55.290|56=TEST_ACCEPTOR|98=0|108=30|141=Y|6300=1|10=175|
8=FIX.4.4|9=148|35=5|34=269|49=TEST_ACCEPTOR|52=20250613-15:06:55.291|56=TEST_INITIATOR|58=Invalid Logon message: Tag not defined for this message type, field=6300|10=173|
8=FIX.4.4|9=95|35=A|34=1|49=TEST_INITIATOR|52=20250613-15:07:00.291|56=TEST_ACCEPTOR|98=0|108=30|141=Y|6300=1|10=167|
8=FIX.4.4|9=148|35=5|34=270|49=TEST_ACCEPTOR|52=20250613-15:07:00.291|56=TEST_INITIATOR|58=Invalid Logon message: Tag not defined for this message type, field=6300|10=156|
8=FIX.4.4|9=95|35=A|34=1|49=TEST_INITIATOR|52=20250613-15:07:05.291|56=TEST_ACCEPTOR|98=0|108=30|141=Y|6300=1|10=172|
8=FIX.4.4|9=148|35=5|34=271|49=TEST_ACCEPTOR|52=20250613-15:07:05.291|56=TEST_INITIATOR|58=Invalid Logon message: Tag not defined for this message type, field=6300|10=162|
8=FIX.4.4|9=95|35=A|34=1|49=TEST_INITIATOR|52=20250613-15:07:10.290|56=TEST_ACCEPTOR|98=0|108=30|141=Y|6300=1|10=167|
8=FIX.4.4|9=148|35=5|34=272|49=TEST_ACCEPTOR|52=20250613-15:07:10.291|56=TEST_INITIATOR|58=Invalid Logon message: Tag not defined for this message type, field=6300|10=159|
8=FIX.4.4|9=95|35=A|34=1|49=TEST_INITIATOR|52=20250613-15:07:15.291|56=TEST_ACCEPTOR|98=0|108=30|141=Y|6300=1|10=173|
8=FIX.4.4|9=148|35=5|34=273|49=TEST_ACCEPTOR|52=20250613-15:07:15.291|56=TEST_INITIATOR|58=Invalid Logon message: Tag not defined for this message type, field=6300|10=165|
8=FIX.4.4|9=95|35=A|34=1|49=TEST_INITIATOR|52=20250613-15:07:20.290|56=TEST_ACCEPTOR|98=0|108=30|141=Y|6300=1|10=168|
8=FIX.4.4|9=148|35=5|34=274|49=TEST_ACCEPTOR|52=20250613-15:07:20.291|56=TEST_INITIATOR|58=Invalid Logon message: Tag not defined for this message type, field=6300|10=162|
8=FIX.4.4|9=95|35=A|34=1|49=TEST_INITIATOR|52=20250613-15:07:25.290|56=TEST_ACCEPTOR|98=0|108=30|141=Y|6300=1|10=173|
8=FIX.4.4|9=148|35=5|34=275|49=TEST_ACCEPTOR|52=20250613-15:07:25.291|56=TEST_INITIATOR|58=Invalid Logon message: Tag not defined for this message type, field=6300|10=168|
8=FIX.4.4|9=95|35=A|34=1|49=TEST_INITIATOR|52=20250613-15:07:30.290|56=TEST_ACCEPTOR|98=0|108=30|141=Y|6300=1|10=169|
8=FIX.4.4|9=148|35=5|34=276|49=TEST_ACCEPTOR|52=20250613-15:07:30.291|56=TEST_INITIATOR|58=Invalid Logon message: Tag not defined for this message type, field=6300|10=165|
8=FIX.4.4|9=95|35=A|34=1|49=TEST_INITIATOR|52=20250613-15:07:35.292|56=TEST_ACCEPTOR|98=0|108=30|141=Y|6300=1|10=176|
8=FIX.4.4|9=148|35=5|34=277|49=TEST_ACCEPTOR|52=20250613-15:07:35.295|56=TEST_INITIATOR|58=Invalid Logon message: Tag not defined for this message type, field=6300|10=175|
8=FIX.4.4|9=95|35=A|34=1|49=TEST_INITIATOR|52=20250613-15:07:40.291|56=TEST_ACCEPTOR|98=0|108=30|141=Y|6300=1|10=171|
8=FIX.4.4|9=148|35=5|34=278|49=TEST_ACCEPTOR|52=20250613-15:07:40.293|56=TEST_INITIATOR|58=Invalid Logon message: Tag not defined for this message type, field=6300|10=170|
8=FIX.4.4|9=95|35=A|34=1|49=TEST_INITIATOR|52=20250613-15:07:45.291|56=TEST_ACCEPTOR|98=0|108=30|141=Y|6300=1|10=176|
8=FIX.4.4|9=148|35=5|34=279|49=TEST_ACCEPTOR|52=20250613-15:07:45.292|56=TEST_INITIATOR|58=Invalid Logon message: Tag not defined for this message type, field=6300|10=175|
8=FIX.4.4|9=95|35=A|34=1|49=TEST_INITIATOR|52=20250613-15:07:50.288|56=TEST_ACCEPTOR|98=0|108=30|141=Y|6300=1|10=178|
8=FIX.4.4|9=148|35=5|34=280|49=TEST_ACCEPTOR|52=20250613-15:07:50.289|56=TEST_INITIATOR|58=Invalid Logon message: Tag not defined for this message type, field=6300|10=169|
8=FIX.4.4|9=95|35=A|34=1|49=TEST_INITIATOR|52=20250613-15:07:55.290|56=TEST_ACCEPTOR|98=0|108=30|141=Y|6300=1|10=176|
8=FIX.4.4|9=148|35=5|34=281|49=TEST_ACCEPTOR|52=20250613-15:07:55.291|56=TEST_INITIATOR|58=Invalid Logon message: Tag not defined for this message type, field=6300|10=168|
8=FIX.4.4|9=95|35=A|34=1|49=TEST_INITIATOR|52=20250613-15:08:00.290|56=TEST_ACCEPTOR|98=0|108=30|141=Y|6300=1|10=167|
8=FIX.4.4|9=148|35=5|34=282|49=TEST_ACCEPTOR|52=20250613-15:08:00.291|56=TEST_INITIATOR|58=Invalid Logon message: Tag not defined for this message type, field=6300|10=160|
8=FIX.4.4|9=95|35=A|34=1|49=TEST_INITIATOR|52=20250613-15:08:05.286|56=TEST_ACCEPTOR|98=0|108=30|141=Y|6300=1|10=177|
8=FIX.4.4|9=148|35=5|34=283|49=TEST_ACCEPTOR|52=20250613-15:08:05.287|56=TEST_INITIATOR|58=Invalid Logon message: Tag not defined for this message type, field=6300|10=171|
8=FIX.4.4|9=95|35=A|34=1|49=TEST_INITIATOR|52=20250613-15:08:10.290|56=TEST_ACCEPTOR|98=0|108=30|141=Y|6300=1|10=168|
8=FIX.4.4|9=148|35=5|34=284|49=TEST_ACCEPTOR|52=20250613-15:08:10.291|56=TEST_INITIATOR|58=Invalid Logon message: Tag not defined for this message type, field=6300|10=163|
8=FIX.4.4|9=95|35=A|34=1|49=TEST_INITIATOR|52=20250613-15:08:15.291|56=TEST_ACCEPTOR|98=0|108=30|141=Y|6300=1|10=174|
8=FIX.4.4|9=148|35=5|34=285|49=TEST_ACCEPTOR|52=20250613-15:08:15.291|56=TEST_INITIATOR|58=Invalid Logon message: Tag not defined for this message type, field=6300|10=169|
8=FIX.4.4|9=95|35=A|34=1|49=TEST_INITIATOR|52=20250613-15:08:21.406|56=TEST_ACCEPTOR|98=0|108=30|141=Y|6300=1|10=169|
8=FIX.4.4|9=148|35=5|34=286|49=TEST_ACCEPTOR|52=20250613-15:08:21.424|56=TEST_INITIATOR|58=Invalid Logon message: Tag not defined for this message type, field=6300|10=165|
8=FIX.4.4|9=95|35=A|34=1|49=TEST_INITIATOR|52=20250613-15:08:26.467|56=TEST_ACCEPTOR|98=0|108=30|141=Y|6300=1|10=181|
8=FIX.4.4|9=148|35=5|34=287|49=TEST_ACCEPTOR|52=20250613-15:08:26.477|56=TEST_INITIATOR|58=Invalid Logon message: Tag not defined for this message type, field=6300|10=179|
8=FIX.4.4|9=95|35=A|34=1|49=TEST_INITIATOR|52=20250613-15:08:31.401|56=TEST_ACCEPTOR|98=0|108=30|141=Y|6300=1|10=165|
8=FIX.4.4|9=148|35=5|34=288|49=TEST_ACCEPTOR|52=20250613-15:08:31.403|56=TEST_INITIATOR|58=Invalid Logon message: Tag not defined for this message type, field=6300|10=165|
8=FIX.4.4|9=95|35=A|34=1|49=TEST_INITIATOR|52=20250613-15:11:10.030|56=TEST_ACCEPTOR|98=0|108=30|141=Y|6300=1|10=154|
8=FIX.4.4|9=148|35=5|34=289|49=TEST_ACCEPTOR|52=20250613-15:11:10.057|56=TEST_INITIATOR|58=Invalid Logon message: Tag not defined for this message type, field=6300|10=162|
8=FIX.4.4|9=95|35=A|34=1|49=TEST_INITIATOR|52=20250613-15:11:12.024|56=TEST_ACCEPTOR|98=0|108=30|141=Y|6300=1|10=159|
8=FIX.4.4|9=148|35=5|34=290|49=TEST_ACCEPTOR|52=20250613-15:11:12.026|56=TEST_INITIATOR|58=Invalid Logon message: Tag not defined for this message type, field=6300|10=152|
8=FIX.4.4|9=95|35=A|34=1|49=TEST_INITIATOR|52=20250613-15:11:17.024|56=TEST_ACCEPTOR|98=0|108=30|141=Y|6300=1|10=164|
8=FIX.4.4|9=148|35=5|34=291|49=TEST_ACCEPTOR|52=20250613-15:11:17.026|56=TEST_INITIATOR|58=Invalid Logon message: Tag not defined for this message type, field=6300|10=158|
8=FIX.4.4|9=95|35=A|34=1|49=TEST_INITIATOR|52=20250613-15:11:22.020|56=TEST_ACCEPTOR|98=0|108=30|141=Y|6300=1|10=156|
8=FIX.4.4|9=148|35=5|34=292|49=TEST_ACCEPTOR|52=20250613-15:11:22.021|56=TEST_INITIATOR|58=Invalid Logon message: Tag not defined for this message type, field=6300|10=150|
8=FIX.4.4|9=95|35=A|34=1|49=TEST_INITIATOR|52=20250613-15:11:27.021|56=TEST_ACCEPTOR|98=0|108=30|141=Y|6300=1|10=162|
8=FIX.4.4|9=148|35=5|34=293|49=TEST_ACCEPTOR|52=20250613-15:11:27.022|56=TEST_INITIATOR|58=Invalid Logon message: Tag not defined for this message type, field=6300|10=157|
8=FIX.4.4|9=95|35=A|34=1|49=TEST_INITIATOR|52=20250613-15:11:32.024|56=TEST_ACCEPTOR|98=0|108=30|141=Y|6300=1|10=161|
8=FIX.4.4|9=148|35=5|34=294|49=TEST_ACCEPTOR|52=20250613-15:11:32.026|56=TEST_INITIATOR|58=Invalid Logon message: Tag not defined for this message type, field=6300|10=158|
8=FIX.4.4|9=95|35=A|34=1|49=TEST_INITIATOR|52=20250613-15:11:37.019|56=TEST_ACCEPTOR|98=0|108=30|141=Y|6300=1|10=170|
8=FIX.4.4|9=148|35=5|34=295|49=TEST_ACCEPTOR|52=20250613-15:11:37.021|56=TEST_INITIATOR|58=Invalid Logon message: Tag not defined for this message type, field=6300|10=159|
8=FIX.4.4|9=95|35=A|34=1|49=TEST_INITIATOR|52=20250613-15:11:42.020|56=TEST_ACCEPTOR|98=0|108=30|141=Y|6300=1|10=158|
8=FIX.4.4|9=148|35=5|34=296|49=TEST_ACCEPTOR|52=20250613-15:11:42.021|56=TEST_INITIATOR|58=Invalid Logon message: Tag not defined for this message type, field=6300|10=156|
8=FIX.4.4|9=95|35=A|34=1|49=TEST_INITIATOR|52=20250613-15:11:47.023|56=TEST_ACCEPTOR|98=0|108=30|141=Y|6300=1|10=166|
8=FIX.4.4|9=148|35=5|34=297|49=TEST_ACCEPTOR|52=20250613-15:11:47.025|56=TEST_INITIATOR|58=Invalid Logon message: Tag not defined for this message type, field=6300|10=166|
8=FIX.4.4|9=95|35=A|34=1|49=TEST_INITIATOR|52=20250613-15:11:52.020|56=TEST_ACCEPTOR|98=0|108=30|141=Y|6300=1|10=159|
8=FIX.4.4|9=148|35=5|34=298|49=TEST_ACCEPTOR|52=20250613-15:11:52.021|56=TEST_INITIATOR|58=Invalid Logon message: Tag not defined for this message type, field=6300|10=159|
8=FIX.4.4|9=95|35=A|34=1|49=TEST_INITIATOR|52=20250613-15:11:57.023|56=TEST_ACCEPTOR|98=0|108=30|141=Y|6300=1|10=167|
8=FIX.4.4|9=148|35=5|34=299|49=TEST_ACCEPTOR|52=20250613-15:11:57.024|56=TEST_INITIATOR|58=Invalid Logon message: Tag not defined for this message type, field=6300|10=168|
8=FIX.4.4|9=95|35=A|34=1|49=TEST_INITIATOR|52=20250613-15:12:03.023|56=TEST_ACCEPTOR|98=0|108=30|141=Y|6300=1|10=159|
8=FIX.4.4|9=148|35=5|34=300|49=TEST_ACCEPTOR|52=20250613-15:12:03.024|56=TEST_INITIATOR|58=Invalid Logon message: Tag not defined for this message type, field=6300|10=143|
8=FIX.4.4|9=95|35=A|34=1|49=TEST_INITIATOR|52=20250613-15:12:08.025|56=TEST_ACCEPTOR|98=0|108=30|141=Y|6300=1|10=166|
8=FIX.4.4|9=148|35=5|34=301|49=TEST_ACCEPTOR|52=20250613-15:12:08.027|56=TEST_INITIATOR|58=Invalid Logon message: Tag not defined for this message type, field=6300|10=152|
8=FIX.4.4|9=95|35=A|34=1|49=TEST_INITIATOR|52=20250613-15:12:13.024|56=TEST_ACCEPTOR|98=0|108=30|141=Y|6300=1|10=161|
8=FIX.4.4|9=148|35=5|34=302|49=TEST_ACCEPTOR|52=20250613-15:12:13.026|56=TEST_INITIATOR|58=Invalid Logon message: Tag not defined for this message type, field=6300|10=148|
8=FIX.4.4|9=95|35=A|34=1|49=TEST_INITIATOR|52=20250613-15:12:18.024|56=TEST_ACCEPTOR|98=0|108=30|141=Y|6300=1|10=166|
8=FIX.4.4|9=148|35=5|34=303|49=TEST_ACCEPTOR|52=20250613-15:12:18.027|56=TEST_INITIATOR|58=Invalid Logon message: Tag not defined for this message type, field=6300|10=155|
8=FIX.4.4|9=95|35=A|34=1|49=TEST_INITIATOR|52=20250613-15:12:23.024|56=TEST_ACCEPTOR|98=0|108=30|141=Y|6300=1|10=162|
8=FIX.4.4|9=148|35=5|34=304|49=TEST_ACCEPTOR|52=20250613-15:12:23.025|56=TEST_INITIATOR|58=Invalid Logon message: Tag not defined for this message type, field=6300|10=150|
8=FIX.4.4|9=95|35=A|34=1|49=TEST_INITIATOR|52=20250613-15:12:28.024|56=TEST_ACCEPTOR|98=0|108=30|141=Y|6300=1|10=167|
8=FIX.4.4|9=148|35=5|34=305|49=TEST_ACCEPTOR|52=20250613-15:12:28.025|56=TEST_INITIATOR|58=Invalid Logon message: Tag not defined for this message type, field=6300|10=156|
8=FIX.4.4|9=95|35=A|34=1|49=TEST_INITIATOR|52=20250613-15:12:33.024|56=TEST_ACCEPTOR|98=0|108=30|141=Y|6300=1|10=163|
8=FIX.4.4|9=148|35=5|34=306|49=TEST_ACCEPTOR|52=20250613-15:12:33.025|56=TEST_INITIATOR|58=Invalid Logon message: Tag not defined for this message type, field=6300|10=153|
8=FIX.4.4|9=95|35=A|34=1|49=TEST_INITIATOR|52=20250613-15:12:38.020|56=TEST_ACCEPTOR|98=0|108=30|141=Y|6300=1|10=164|
8=FIX.4.4|9=148|35=5|34=307|49=TEST_ACCEPTOR|52=20250613-15:12:38.022|56=TEST_INITIATOR|58=Invalid Logon message: Tag not defined for this message type, field=6300|10=156|
8=FIX.4.4|9=95|35=A|34=1|49=TEST_INITIATOR|52=20250613-15:12:43.021|56=TEST_ACCEPTOR|98=0|108=30|141=Y|6300=1|10=161|
8=FIX.4.4|9=148|35=5|34=308|49=TEST_ACCEPTOR|52=20250613-15:12:43.022|56=TEST_INITIATOR|58=Invalid Logon message: Tag not defined for this message type, field=6300|10=153|
8=FIX.4.4|9=95|35=A|34=1|49=TEST_INITIATOR|52=20250613-15:12:48.024|56=TEST_ACCEPTOR|98=0|108=30|141=Y|6300=1|10=169|
8=FIX.4.4|9=148|35=5|34=309|49=TEST_ACCEPTOR|52=20250613-15:12:48.026|56=TEST_INITIATOR|58=Invalid Logon message: Tag not defined for this message type, field=6300|10=163|
8=FIX.4.4|9=95|35=A|34=1|49=TEST_INITIATOR|52=20250613-15:12:53.020|56=TEST_ACCEPTOR|98=0|108=30|141=Y|6300=1|10=161|
8=FIX.4.4|9=148|35=5|34=310|49=TEST_ACCEPTOR|52=20250613-15:12:53.021|56=TEST_INITIATOR|58=Invalid Logon message: Tag not defined for this message type, field=6300|10=146|
8=FIX.4.4|9=95|35=A|34=1|49=TEST_INITIATOR|52=20250613-15:12:58.020|56=TEST_ACCEPTOR|98=0|108=30|141=Y|6300=1|10=166|
8=FIX.4.4|9=148|35=5|34=311|49=TEST_ACCEPTOR|52=20250613-15:12:58.021|56=TEST_INITIATOR|58=Invalid Logon message: Tag not defined for this message type, field=6300|10=152|
8=FIX.4.4|9=95|35=A|34=1|49=TEST_INITIATOR|52=20250613-15:13:03.020|56=TEST_ACCEPTOR|98=0|108=30|141=Y|6300=1|10=157|
8=FIX.4.4|9=148|35=5|34=312|49=TEST_ACCEPTOR|52=20250613-15:13:03.021|56=TEST_INITIATOR|58=Invalid Logon message: Tag not defined for this message type, field=6300|10=144|
8=FIX.4.4|9=95|35=A|34=1|49=TEST_INITIATOR|52=20250613-15:13:08.023|56=TEST_ACCEPTOR|98=0|108=30|141=Y|6300=1|10=165|
8=FIX.4.4|9=148|35=5|34=313|49=TEST_ACCEPTOR|52=20250613-15:13:08.024|56=TEST_INITIATOR|58=Invalid Logon message: Tag not defined for this message type, field=6300|10=153|
8=FIX.4.4|9=95|35=A|34=1|49=TEST_INITIATOR|52=20250613-15:13:13.024|56=TEST_ACCEPTOR|98=0|108=30|141=Y|6300=1|10=162|
8=FIX.4.4|9=148|35=5|34=314|49=TEST_ACCEPTOR|52=20250613-15:13:13.026|56=TEST_INITIATOR|58=Invalid Logon message: Tag not defined for this message type, field=6300|10=152|
8=FIX.4.4|9=95|35=A|34=1|49=TEST_INITIATOR|52=20250613-15:13:18.023|56=TEST_ACCEPTOR|98=0|108=30|141=Y|6300=1|10=166|
8=FIX.4.4|9=148|35=5|34=315|49=TEST_ACCEPTOR|52=20250613-15:13:18.025|56=TEST_INITIATOR|58=Invalid Logon message: Tag not defined for this message type, field=6300|10=157|
8=FIX.4.4|9=95|35=A|34=1|49=TEST_INITIATOR|52=20250613-15:13:23.020|56=TEST_ACCEPTOR|98=0|108=30|141=Y|6300=1|10=159|
8=FIX.4.4|9=148|35=5|34=316|49=TEST_ACCEPTOR|52=20250613-15:13:23.021|56=TEST_INITIATOR|58=Invalid Logon message: Tag not defined for this message type, field=6300|10=150|
8=FIX.4.4|9=95|35=A|34=1|49=TEST_INITIATOR|52=20250613-15:13:28.021|56=TEST_ACCEPTOR|98=0|108=30|141=Y|6300=1|10=165|
8=FIX.4.4|9=148|35=5|34=317|49=TEST_ACCEPTOR|52=20250613-15:13:28.023|56=TEST_INITIATOR|58=Invalid Logon message: Tag not defined for this message type, field=6300|10=158|
8=FIX.4.4|9=95|35=A|34=1|49=TEST_INITIATOR|52=20250613-15:13:33.024|56=TEST_ACCEPTOR|98=0|108=30|141=Y|6300=1|10=164|
8=FIX.4.4|9=148|35=5|34=318|49=TEST_ACCEPTOR|52=20250613-15:13:33.025|56=TEST_INITIATOR|58=Invalid Logon message: Tag not defined for this message type, field=6300|10=157|
8=FIX.4.4|9=95|35=A|34=1|49=TEST_INITIATOR|52=20250613-15:13:38.024|56=TEST_ACCEPTOR|98=0|108=30|141=Y|6300=1|10=169|
8=FIX.4.4|9=148|35=5|34=319|49=TEST_ACCEPTOR|52=20250613-15:13:38.026|56=TEST_INITIATOR|58=Invalid Logon message: Tag not defined for this message type, field=6300|10=164|
8=FIX.4.4|9=95|35=A|34=1|49=TEST_INITIATOR|52=20250613-15:13:43.021|56=TEST_ACCEPTOR|98=0|108=30|141=Y|6300=1|10=162|
8=FIX.4.4|9=148|35=5|34=320|49=TEST_ACCEPTOR|52=20250613-15:13:43.022|56=TEST_INITIATOR|58=Invalid Logon message: Tag not defined for this message type, field=6300|10=148|
8=FIX.4.4|9=95|35=A|34=1|49=TEST_INITIATOR|52=20250613-15:13:48.025|56=TEST_ACCEPTOR|98=0|108=30|141=Y|6300=1|10=171|
8=FIX.4.4|9=148|35=5|34=321|49=TEST_ACCEPTOR|52=20250613-15:13:48.026|56=TEST_INITIATOR|58=Invalid Logon message: Tag not defined for this message type, field=6300|10=158|
8=FIX.4.4|9=95|35=A|34=1|49=TEST_INITIATOR|52=20250613-15:13:53.024|56=TEST_ACCEPTOR|98=0|108=30|141=Y|6300=1|10=166|
8=FIX.4.4|9=148|35=5|34=322|49=TEST_ACCEPTOR|52=20250613-15:13:53.025|56=TEST_INITIATOR|58=Invalid Logon message: Tag not defined for this message type, field=6300|10=154|
8=FIX.4.4|9=95|35=A|34=1|49=TEST_INITIATOR|52=20250613-15:13:58.024|56=TEST_ACCEPTOR|98=0|108=30|141=Y|6300=1|10=171|
8=FIX.4.4|9=148|35=5|34=323|49=TEST_ACCEPTOR|52=20250613-15:13:58.025|56=TEST_INITIATOR|58=Invalid Logon message: Tag not defined for this message type, field=6300|10=160|
8=FIX.4.4|9=88|35=A|34=1|49=TEST_INITIATOR|52=20250613-15:14:32.293|56=TEST_ACCEPTOR|98=0|108=30|141=Y|10=118|
8=FIX.4.4|9=88|35=A|34=1|49=TEST_ACCEPTOR|52=20250613-15:14:32.314|56=TEST_INITIATOR|98=0|108=30|141=Y|10=112|
8=FIX.4.4|9=144|35=V|34=2|49=TEST_INITIATOR|52=20250613-15:14:32.333|56=TEST_ACCEPTOR|262=MDReq-USDMXN-SPOT-1749827672318-4ba33016|263=1|146=1|55=USD/MXN|65=KX|10=143|
8=FIX.4.4|9=79|35=1|34=2|49=TEST_ACCEPTOR|52=20250613-15:15:27.720|56=TEST_INITIATOR|112=TEST|10=051|
8=FIX.4.4|9=154|35=V|34=3|49=TEST_INITIATOR|52=20250613-15:14:32.334|56=TEST_ACCEPTOR|262=MDReq-USDMXN-ON+1-1749827672334-13a26572|263=1|146=1|55=USD/MXN|65=KX|6215=ON+1|10=031|
8=FIX.4.4|9=150|35=V|34=4|49=TEST_INITIATOR|52=20250613-15:14:32.334|56=TEST_ACCEPTOR|262=MDReq-USDMXN-1M-1749827672334-e7fe71f2|263=1|146=1|55=USD/MXN|65=KX|6215=1M|10=194|
8=FIX.4.4|9=152|35=V|34=5|49=TEST_INITIATOR|52=20250613-15:14:32.334|56=TEST_ACCEPTOR|262=MDReq-USDMXN-12M-1749827672334-c6d98307|263=1|146=1|55=USD/MXN|65=KX|6215=12M|10=202|
8=FIX.4.4|9=152|35=V|34=6|49=TEST_INITIATOR|52=20250613-15:14:32.334|56=TEST_ACCEPTOR|262=MDReq-USDMXN-15M-1749827672334-0cb9b6d3|263=1|146=1|55=USD/MXN|65=KX|6215=15M|10=038|
8=FIX.4.4|9=152|35=V|34=7|49=TEST_INITIATOR|52=20250613-15:14:32.335|56=TEST_ACCEPTOR|262=MDReq-USDMXN-18M-1749827672335-82e22827|263=1|146=1|55=USD/MXN|65=KX|6215=18M|10=166|
8=FIX.4.4|9=150|35=V|34=8|49=TEST_INITIATOR|52=20250613-15:14:32.335|56=TEST_ACCEPTOR|262=MDReq-USDMXN-1W-1749827672335-d028946d|263=1|146=1|55=USD/MXN|65=KX|6215=1W|10=122|
8=FIX.4.4|9=150|35=V|34=9|49=TEST_INITIATOR|52=20250613-15:14:32.335|56=TEST_ACCEPTOR|262=MDReq-USDMXN-2M-1749827672335-806c47f4|263=1|146=1|55=USD/MXN|65=KX|6215=2M|10=106|
8=FIX.4.4|9=151|35=V|34=10|49=TEST_INITIATOR|52=20250613-15:14:32.335|56=TEST_ACCEPTOR|262=MDReq-USDMXN-2W-1749827672335-c4c89ff2|263=1|146=1|55=USD/MXN|65=KX|6215=2W|10=010|
8=FIX.4.4|9=151|35=V|34=11|49=TEST_INITIATOR|52=20250613-15:14:32.335|56=TEST_ACCEPTOR|262=MDReq-USDMXN-2Y-1749827672335-53be5fad|263=1|146=1|55=USD/MXN|65=KX|6215=2Y|10=053|
8=FIX.4.4|9=151|35=V|34=12|49=TEST_INITIATOR|52=20250613-15:14:32.336|56=TEST_ACCEPTOR|262=MDReq-USDMXN-3M-1749827672336-78b5da19|263=1|146=1|55=USD/MXN|65=KX|6215=3M|10=200|
8=FIX.4.4|9=151|35=V|34=13|49=TEST_INITIATOR|52=20250613-15:14:32.336|56=TEST_ACCEPTOR|262=MDReq-USDMXN-3W-1749827672336-d05305cd|263=1|146=1|55=USD/MXN|65=KX|6215=3W|10=208|
8=FIX.4.4|9=151|35=V|34=14|49=TEST_INITIATOR|52=20250613-15:14:32.336|56=TEST_ACCEPTOR|262=MDReq-USDMXN-4M-1749827672336-26877b29|263=1|146=1|55=USD/MXN|65=KX|6215=4M|10=114|
8=FIX.4.4|9=151|35=V|34=15|49=TEST_INITIATOR|52=20250613-15:14:32.336|56=TEST_ACCEPTOR|262=MDReq-USDMXN-5M-1749827672336-70325e96|263=1|146=1|55=USD/MXN|65=KX|6215=5M|10=111|
8=FIX.4.4|9=151|35=V|34=16|49=TEST_INITIATOR|52=20250613-15:14:32.336|56=TEST_ACCEPTOR|262=MDReq-USDMXN-6M-1749827672336-7e1f787c|263=1|146=1|55=USD/MXN|65=KX|6215=6M|10=217|
8=FIX.4.4|9=151|35=V|34=17|49=TEST_INITIATOR|52=20250613-15:14:32.336|56=TEST_ACCEPTOR|262=MDReq-USDMXN-9M-1749827672336-558c32ea|263=1|146=1|55=USD/MXN|65=KX|6215=9M|10=212|
8=FIX.4.4|9=151|35=V|34=18|49=TEST_INITIATOR|52=20250613-15:14:32.337|56=TEST_ACCEPTOR|262=MDReq-USDMXN-SN-1749827672337-3d804fae|263=1|146=1|55=USD/MXN|65=KX|6215=SN|10=060|
8=FIX.4.4|9=155|35=V|34=19|49=TEST_INITIATOR|52=20250613-15:14:32.337|56=TEST_ACCEPTOR|262=MDReq-USDMXN-TN+1-1749827672337-1ddea200|263=1|146=1|55=USD/MXN|65=KX|6215=TN+1|10=237|
8=FIX.4.4|9=145|35=V|34=20|49=TEST_INITIATOR|52=20250613-15:14:32.337|56=TEST_ACCEPTOR|262=MDReq-EURMXN-SPOT-1749827672337-ac6a1a4d|263=1|146=1|55=EUR/MXN|65=KX|10=086|
8=FIX.4.4|9=145|35=V|34=21|49=TEST_INITIATOR|52=20250613-15:14:32.337|56=TEST_ACCEPTOR|262=MDReq-USDCOP-SPOT-1749827672337-affaf5a3|263=1|146=1|55=USD/COP|65=KX|10=109|
8=FIX.4.4|9=153|35=V|34=22|49=TEST_INITIATOR|52=20250613-15:14:32.337|56=TEST_ACCEPTOR|262=MDReq-USDCOP-12M-1749827672337-bb1e7abc|263=1|146=1|55=USD/COP|65=KX|6215=12M|10=141|
8=FIX.4.4|9=153|35=V|34=23|49=TEST_INITIATOR|52=20250613-15:14:32.337|56=TEST_ACCEPTOR|262=MDReq-USDCOP-15M-1749827672337-6f0bdcb7|263=1|146=1|55=USD/COP|65=KX|6215=15M|10=107|
8=FIX.4.4|9=153|35=V|34=24|49=TEST_INITIATOR|52=20250613-15:14:32.338|56=TEST_ACCEPTOR|262=MDReq-USDCOP-18M-1749827672338-be47b9c9|263=1|146=1|55=USD/COP|65=KX|6215=18M|10=079|
8=FIX.4.4|9=151|35=V|34=25|49=TEST_INITIATOR|52=20250613-15:14:32.338|56=TEST_ACCEPTOR|262=MDReq-USDCOP-1M-1749827672338-883363d0|263=1|146=1|55=USD/COP|65=KX|6215=1M|10=072|
8=FIX.4.4|9=151|35=V|34=26|49=TEST_INITIATOR|52=20250613-15:14:32.338|56=TEST_ACCEPTOR|262=MDReq-USDCOP-1W-1749827672338-f3d712d9|263=1|146=1|55=USD/COP|65=KX|6215=1W|10=190|
8=FIX.4.4|9=153|35=V|34=27|49=TEST_INITIATOR|52=20250613-15:14:32.338|56=TEST_ACCEPTOR|262=MDReq-USDCOP-21M-1749827672338-2c7f367f|263=1|146=1|55=USD/COP|65=KX|6215=21M|10=021|
8=FIX.4.4|9=151|35=V|34=28|49=TEST_INITIATOR|52=20250613-15:14:32.338|56=TEST_ACCEPTOR|262=MDReq-USDCOP-2M-1749827672338-6c2cb046|263=1|146=1|55=USD/COP|65=KX|6215=2M|10=164|
8=FIX.4.4|9=151|35=V|34=29|49=TEST_INITIATOR|52=20250613-15:14:32.338|56=TEST_ACCEPTOR|262=MDReq-USDCOP-2W-1749827672338-465d5fbc|263=1|146=1|55=USD/COP|65=KX|6215=2W|10=242|
8=FIX.4.4|9=151|35=V|34=30|49=TEST_INITIATOR|52=20250613-15:14:32.339|56=TEST_ACCEPTOR|262=MDReq-USDCOP-2Y-1749827672338-2587ec44|263=1|146=1|55=USD/COP|65=KX|6215=2Y|10=146|
8=FIX.4.4|9=151|35=V|34=31|49=TEST_INITIATOR|52=20250613-15:14:32.339|56=TEST_ACCEPTOR|262=MDReq-USDCOP-3M-1749827672339-d3a0ad50|263=1|146=1|55=USD/COP|65=KX|6215=3M|10=202|
8=FIX.4.4|9=145|35=3|34=3|49=TEST_ACCEPTOR|52=20250613-15:15:33.487|56=TEST_INITIATOR|45=2|58=Tag not defined for this message type, field=65|371=65|372=V|373=2|10=244|
8=FIX.4.4|9=151|35=V|34=32|49=TEST_INITIATOR|52=20250613-15:14:32.339|56=TEST_ACCEPTOR|262=MDReq-USDCOP-3Y-1749827672339-6a302232|263=1|146=1|55=USD/COP|65=KX|6215=3Y|10=084|
8=FIX.4.4|9=151|35=V|34=33|49=TEST_INITIATOR|52=20250613-15:14:32.339|56=TEST_ACCEPTOR|262=MDReq-USDCOP-6M-1749827672339-f675ab26|263=1|146=1|55=USD/COP|65=KX|6215=6M|10=179|
8=FIX.4.4|9=151|35=V|34=34|49=TEST_INITIATOR|52=20250613-15:14:32.339|56=TEST_ACCEPTOR|262=MDReq-USDCOP-9M-1749827672339-67ff6f59|263=1|146=1|55=USD/COP|65=KX|6215=9M|10=202|
