8=FIX.4.4|9=88|35=A|34=1|49=TEST_ACCEPTOR|52=20250613-15:14:32.314|56=TEST_INITIATOR|98=0|108=30|141=Y|10=112|8=FIX.4.4|9=79|35=1|34=2|49=TEST_ACCEPTOR|52=20250613-15:15:27.720|56=TEST_INITIATOR|112=TEST|10=051|8=FIX.4.4|9=145|35=3|34=3|49=TEST_ACCEPTOR|52=20250613-15:15:33.487|56=TEST_INITIATOR|45=2|58=Tag not defined for this message type, field=65|371=65|372=V|373=2|10=244|8=FIX.4.4|9=145|35=3|34=4|49=TEST_ACCEPTOR|52=20250613-15:15:33.488|56=TEST_INITIATOR|45=3|58=Tag not defined for this message type, field=65|371=65|372=V|373=2|10=247|8=FIX.4.4|9=145|35=3|34=5|49=TEST_ACCEPTOR|52=20250613-15:15:33.488|56=TEST_INITIATOR|45=4|58=Tag not defined for this message type, field=65|371=65|372=V|373=2|10=249|8=FIX.4.4|9=145|35=3|34=6|49=TEST_ACCEPTOR|52=20250613-15:15:33.489|56=TEST_INITIATOR|45=5|58=Tag not defined for this message type, field=65|371=65|372=V|373=2|10=252|8=FIX.4.4|9=145|35=3|34=7|49=TEST_ACCEPTOR|52=20250613-15:15:33.489|56=TEST_INITIATOR|45=6|58=Tag not defined for this message type, field=65|371=65|372=V|373=2|10=254|8=FIX.4.4|9=145|35=3|34=8|49=TEST_ACCEPTOR|52=20250613-15:15:33.489|56=TEST_INITIATOR|45=7|58=Tag not defined for this message type, field=65|371=65|372=V|373=2|10=000|8=FIX.4.4|9=145|35=3|34=9|49=TEST_ACCEPTOR|52=20250613-15:15:33.490|56=TEST_INITIATOR|45=8|58=Tag not defined for this message type, field=65|371=65|372=V|373=2|10=250|8=FIX.4.4|9=146|35=3|34=10|49=TEST_ACCEPTOR|52=20250613-15:15:33.490|56=TEST_INITIATOR|45=9|58=Tag not defined for this message type, field=65|371=65|372=V|373=2|10=036|8=FIX.4.4|9=147|35=3|34=11|49=TEST_ACCEPTOR|52=20250613-15:15:33.490|56=TEST_INITIATOR|45=10|58=Tag not defined for this message type, field=65|371=65|372=V|373=2|10=078|8=FIX.4.4|9=147|35=3|34=12|49=TEST_ACCEPTOR|52=20250613-15:15:33.491|56=TEST_INITIATOR|45=11|58=Tag not defined for this message type, field=65|371=65|372=V|373=2|10=081|8=FIX.4.4|9=147|35=3|34=13|49=TEST_ACCEPTOR|52=20250613-15:15:33.492|56=TEST_INITIATOR|45=12|58=Tag not defined for this message type, field=65|371=65|372=V|373=2|10=084|8=FIX.4.4|9=147|35=3|34=14|49=TEST_ACCEPTOR|52=20250613-15:15:33.492|56=TEST_INITIATOR|45=13|58=Tag not defined for this message type, field=65|371=65|372=V|373=2|10=086|8=FIX.4.4|9=147|35=3|34=15|49=TEST_ACCEPTOR|52=20250613-15:15:33.492|56=TEST_INITIATOR|45=14|58=Tag not defined for this message type, field=65|371=65|372=V|373=2|10=088|8=FIX.4.4|9=147|35=3|34=16|49=TEST_ACCEPTOR|52=20250613-15:15:33.493|56=TEST_INITIATOR|45=15|58=Tag not defined for this message type, field=65|371=65|372=V|373=2|10=091|8=FIX.4.4|9=147|35=3|34=17|49=TEST_ACCEPTOR|52=20250613-15:15:33.493|56=TEST_INITIATOR|45=16|58=Tag not defined for this message type, field=65|371=65|372=V|373=2|10=093|8=FIX.4.4|9=147|35=3|34=18|49=TEST_ACCEPTOR|52=20250613-15:15:33.493|56=TEST_INITIATOR|45=17|58=Tag not defined for this message type, field=65|371=65|372=V|373=2|10=095|8=FIX.4.4|9=147|35=3|34=19|49=TEST_ACCEPTOR|52=20250613-15:15:33.493|56=TEST_INITIATOR|45=18|58=Tag not defined for this message type, field=65|371=65|372=V|373=2|10=097|8=FIX.4.4|9=147|35=3|34=20|49=TEST_ACCEPTOR|52=20250613-15:15:33.494|56=TEST_INITIATOR|45=19|58=Tag not defined for this message type, field=65|371=65|372=V|373=2|10=091|8=FIX.4.4|9=147|35=3|34=21|49=TEST_ACCEPTOR|52=20250613-15:15:33.494|56=TEST_INITIATOR|45=20|58=Tag not defined for this message type, field=65|371=65|372=V|373=2|10=084|8=FIX.4.4|9=147|35=3|34=22|49=TEST_ACCEPTOR|52=20250613-15:15:33.494|56=TEST_INITIATOR|45=21|58=Tag not defined for this message type, field=65|371=65|372=V|373=2|10=086|8=FIX.4.4|9=147|35=3|34=23|49=TEST_ACCEPTOR|52=20250613-15:15:33.495|56=TEST_INITIATOR|45=22|58=Tag not defined for this message type, field=65|371=65|372=V|373=2|10=089|8=FIX.4.4|9=147|35=3|34=24|49=TEST_ACCEPTOR|52=20250613-15:15:33.495|56=TEST_INITIATOR|45=23|58=Tag not defined for this message type, field=65|371=65|372=V|373=2|10=091|8=FIX.4.4|9=147|35=3|34=25|49=TEST_ACCEPTOR|52=20250613-15:15:33.495|56=TEST_INITIATOR|45=24|58=Tag not defined for this message type, field=65|371=65|372=V|373=2|10=093|8=FIX.4.4|9=147|35=3|34=26|49=TEST_ACCEPTOR|52=20250613-15:15:33.495|56=TEST_INITIATOR|45=25|58=Tag not defined for this message type, field=65|371=65|372=V|373=2|10=095|8=FIX.4.4|9=147|35=3|34=27|49=TEST_ACCEPTOR|52=20250613-15:15:33.496|56=TEST_INITIATOR|45=26|58=Tag not defined for this message type, field=65|371=65|372=V|373=2|10=098|8=FIX.4.4|9=147|35=3|34=28|49=TEST_ACCEPTOR|52=20250613-15:15:33.496|56=TEST_INITIATOR|45=27|58=Tag not defined for this message type, field=65|371=65|372=V|373=2|10=100|8=FIX.4.4|9=147|35=3|34=29|49=TEST_ACCEPTOR|52=20250613-15:15:33.497|56=TEST_INITIATOR|45=28|58=Tag not defined for this message type, field=65|371=65|372=V|373=2|10=103|8=FIX.4.4|9=147|35=3|34=30|49=TEST_ACCEPTOR|52=20250613-15:15:33.497|56=TEST_INITIATOR|45=29|58=Tag not defined for this message type, field=65|371=65|372=V|373=2|10=096|8=FIX.4.4|9=147|35=3|34=31|49=TEST_ACCEPTOR|52=20250613-15:15:33.497|56=TEST_INITIATOR|45=30|58=Tag not defined for this message type, field=65|371=65|372=V|373=2|10=089|8=FIX.4.4|9=147|35=3|34=32|49=TEST_ACCEPTOR|52=20250613-15:15:33.498|56=TEST_INITIATOR|45=31|58=Tag not defined for this message type, field=65|371=65|372=V|373=2|10=092|8=FIX.4.4|9=147|35=3|34=33|49=TEST_ACCEPTOR|52=20250613-15:15:33.498|56=TEST_INITIATOR|45=32|58=Tag not defined for this message type, field=65|371=65|372=V|373=2|10=094|8=FIX.4.4|9=147|35=3|34=34|49=TEST_ACCEPTOR|52=20250613-15:15:33.498|56=TEST_INITIATOR|45=33|58=Tag not defined for this message type, field=65|371=65|372=V|373=2|10=096|8=FIX.4.4|9=147|35=3|34=35|49=TEST_ACCEPTOR|52=20250613-15:15:33.499|56=TEST_INITIATOR|45=34|58=Tag not defined for this message type, field=65|371=65|372=V|373=2|10=099|8=FIX.4.4|9=147|35=3|34=36|49=TEST_ACCEPTOR|52=20250613-15:15:33.499|56=TEST_INITIATOR|45=35|58=Tag not defined for this message type, field=65|371=65|372=V|373=2|10=101|8=FIX.4.4|9=147|35=3|34=37|49=TEST_ACCEPTOR|52=20250613-15:15:33.499|56=TEST_INITIATOR|45=36|58=Tag not defined for this message type, field=65|371=65|372=V|373=2|10=103|8=FIX.4.4|9=147|35=3|34=38|49=TEST_ACCEPTOR|52=20250613-15:15:33.499|56=TEST_INITIATOR|45=37|58=Tag not defined for this message type, field=65|371=65|372=V|373=2|10=105|8=FIX.4.4|9=147|35=3|34=39|49=TEST_ACCEPTOR|52=20250613-15:15:33.499|56=TEST_INITIATOR|45=38|58=Tag not defined for this message type, field=65|371=65|372=V|373=2|10=107|8=FIX.4.4|9=147|35=3|34=40|49=TEST_ACCEPTOR|52=20250613-15:15:33.500|56=TEST_INITIATOR|45=39|58=Tag not defined for this message type, field=65|371=65|372=V|373=2|10=083|8=FIX.4.4|9=147|35=3|34=41|49=TEST_ACCEPTOR|52=20250613-15:15:33.500|56=TEST_INITIATOR|45=40|58=Tag not defined for this message type, field=65|371=65|372=V|373=2|10=076|8=FIX.4.4|9=147|35=3|34=42|49=TEST_ACCEPTOR|52=20250613-15:15:33.500|56=TEST_INITIATOR|45=41|58=Tag not defined for this message type, field=65|371=65|372=V|373=2|10=078|8=FIX.4.4|9=147|35=3|34=43|49=TEST_ACCEPTOR|52=20250613-15:15:33.500|56=TEST_INITIATOR|45=42|58=Tag not defined for this message type, field=65|371=65|372=V|373=2|10=080|8=FIX.4.4|9=147|35=3|34=44|49=TEST_ACCEPTOR|52=20250613-15:15:33.501|56=TEST_INITIATOR|45=43|58=Tag not defined for this message type, field=65|371=65|372=V|373=2|10=083|8=FIX.4.4|9=147|35=3|34=45|49=TEST_ACCEPTOR|52=20250613-15:15:33.501|56=TEST_INITIATOR|45=44|58=Tag not defined for this message type, field=65|371=65|372=V|373=2|10=085|8=FIX.4.4|9=147|35=3|34=46|49=TEST_ACCEPTOR|52=20250613-15:15:33.501|56=TEST_INITIATOR|45=45|58=Tag not defined for this message type, field=65|371=65|372=V|373=2|10=087|8=FIX.4.4|9=147|35=3|34=47|49=TEST_ACCEPTOR|52=20250613-15:15:33.501|56=TEST_INITIATOR|45=46|58=Tag not defined for this message type, field=65|371=65|372=V|373=2|10=089|8=FIX.4.4|9=147|35=3|34=48|49=TEST_ACCEPTOR|52=20250613-15:15:33.501|56=TEST_INITIATOR|45=47|58=Tag not defined for this message type, field=65|371=65|372=V|373=2|10=091|8=FIX.4.4|9=147|35=3|34=49|49=TEST_ACCEPTOR|52=20250613-15:15:33.502|56=TEST_INITIATOR|45=48|58=Tag not defined for this message type, field=65|371=65|372=V|373=2|10=094|8=FIX.4.4|9=147|35=3|34=50|49=TEST_ACCEPTOR|52=20250613-15:15:33.502|56=TEST_INITIATOR|45=49|58=Tag not defined for this message type, field=65|371=65|372=V|373=2|10=087|8=FIX.4.4|9=147|35=3|34=51|49=TEST_ACCEPTOR|52=20250613-15:15:33.502|56=TEST_INITIATOR|45=50|58=Tag not defined for this message type, field=65|371=65|372=V|373=2|10=080|8=FIX.4.4|9=147|35=3|34=52|49=TEST_ACCEPTOR|52=20250613-15:15:33.502|56=TEST_INITIATOR|45=51|58=Tag not defined for this message type, field=65|371=65|372=V|373=2|10=082|8=FIX.4.4|9=147|35=3|34=53|49=TEST_ACCEPTOR|52=20250613-15:15:33.503|56=TEST_INITIATOR|45=52|58=Tag not defined for this message type, field=65|371=65|372=V|373=2|10=085|8=FIX.4.4|9=147|35=3|34=54|49=TEST_ACCEPTOR|52=20250613-15:15:33.503|56=TEST_INITIATOR|45=53|58=Tag not defined for this message type, field=65|371=65|372=V|373=2|10=087|8=FIX.4.4|9=147|35=3|34=55|49=TEST_ACCEPTOR|52=20250613-15:15:33.503|56=TEST_INITIATOR|45=54|58=Tag not defined for this message type, field=65|371=65|372=V|373=2|10=089|8=FIX.4.4|9=147|35=3|34=56|49=TEST_ACCEPTOR|52=20250613-15:15:33.503|56=TEST_INITIATOR|45=55|58=Tag not defined for this message type, field=65|371=65|372=V|373=2|10=091|8=FIX.4.4|9=147|35=3|34=57|49=TEST_ACCEPTOR|52=20250613-15:15:33.504|56=TEST_INITIATOR|45=56|58=Tag not defined for this message type, field=65|371=65|372=V|373=2|10=094|8=FIX.4.4|9=147|35=3|34=58|49=TEST_ACCEPTOR|52=20250613-15:15:33.504|56=TEST_INITIATOR|45=57|58=Tag not defined for this message type, field=65|371=65|372=V|373=2|10=096|8=FIX.4.4|9=147|35=3|34=59|49=TEST_ACCEPTOR|52=20250613-15:15:33.504|56=TEST_INITIATOR|45=58|58=Tag not defined for this message type, field=65|371=65|372=V|373=2|10=098|8=FIX.4.4|9=147|35=3|34=60|49=TEST_ACCEPTOR|52=20250613-15:15:33.504|56=TEST_INITIATOR|45=59|58=Tag not defined for this message type, field=65|371=65|372=V|373=2|10=091|8=FIX.4.4|9=147|35=3|34=61|49=TEST_ACCEPTOR|52=20250613-15:15:33.505|56=TEST_INITIATOR|45=60|58=Tag not defined for this message type, field=65|371=65|372=V|373=2|10=085|8=FIX.4.4|9=147|35=3|34=62|49=TEST_ACCEPTOR|52=20250613-15:15:33.505|56=TEST_INITIATOR|45=61|58=Tag not defined for this message type, field=65|371=65|372=V|373=2|10=087|8=FIX.4.4|9=147|35=3|34=63|49=TEST_ACCEPTOR|52=20250613-15:15:33.505|56=TEST_INITIATOR|45=62|58=Tag not defined for this message type, field=65|371=65|372=V|373=2|10=089|8=FIX.4.4|9=147|35=3|34=64|49=TEST_ACCEPTOR|52=20250613-15:15:33.505|56=TEST_INITIATOR|45=63|58=Tag not defined for this message type, field=65|371=65|372=V|373=2|10=091|8=FIX.4.4|9=147|35=3|34=65|49=TEST_ACCEPTOR|52=20250613-15:15:33.505|56=TEST_INITIATOR|45=64|58=Tag not defined for this message type, field=65|371=65|372=V|373=2|10=093|8=FIX.4.4|9=147|35=3|34=66|49=TEST_ACCEPTOR|52=20250613-15:15:33.506|56=TEST_INITIATOR|45=65|58=Tag not defined for this message type, field=65|371=65|372=V|373=2|10=096|8=FIX.4.4|9=147|35=3|34=67|49=TEST_ACCEPTOR|52=20250613-15:15:33.506|56=TEST_INITIATOR|45=66|58=Tag not defined for this message type, field=65|371=65|372=V|373=2|10=098|8=FIX.4.4|9=147|35=3|34=68|49=TEST_ACCEPTOR|52=20250613-15:15:33.506|56=TEST_INITIATOR|45=67|58=Tag not defined for this message type, field=65|371=65|372=V|373=2|10=100|8=FIX.4.4|9=147|35=3|34=69|49=TEST_ACCEPTOR|52=20250613-15:15:33.506|56=TEST_INITIATOR|45=68|58=Tag not defined for this message type, field=65|371=65|372=V|373=2|10=102|8=FIX.4.4|9=147|35=3|34=70|49=TEST_ACCEPTOR|52=20250613-15:15:33.506|56=TEST_INITIATOR|45=69|58=Tag not defined for this message type, field=65|371=65|372=V|373=2|10=095|8=FIX.4.4|9=147|35=3|34=71|49=TEST_ACCEPTOR|52=20250613-15:15:33.506|56=TEST_INITIATOR|45=70|58=Tag not defined for this message type, field=65|371=65|372=V|373=2|10=088|8=FIX.4.4|9=147|35=3|34=72|49=TEST_ACCEPTOR|52=20250613-15:15:33.507|56=TEST_INITIATOR|45=71|58=Tag not defined for this message type, field=65|371=65|372=V|373=2|10=091|8=FIX.4.4|9=147|35=3|34=73|49=TEST_ACCEPTOR|52=20250613-15:15:33.507|56=TEST_INITIATOR|45=72|58=Tag not defined for this message type, field=65|371=65|372=V|373=2|10=093|8=FIX.4.4|9=147|35=3|34=74|49=TEST_ACCEPTOR|52=20250613-15:15:33.507|56=TEST_INITIATOR|45=73|58=Tag not defined for this message type, field=65|371=65|372=V|373=2|10=095|8=FIX.4.4|9=147|35=3|34=75|49=TEST_ACCEPTOR|52=20250613-15:15:33.507|56=TEST_INITIATOR|45=74|58=Tag not defined for this message type, field=65|371=65|372=V|373=2|10=097|8=FIX.4.4|9=147|35=3|34=76|49=TEST_ACCEPTOR|52=20250613-15:15:33.507|56=TEST_INITIATOR|45=75|58=Tag not defined for this message type, field=65|371=65|372=V|373=2|10=099|8=FIX.4.4|9=147|35=3|34=77|49=TEST_ACCEPTOR|52=20250613-15:15:33.507|56=TEST_INITIATOR|45=76|58=Tag not defined for this message type, field=65|371=65|372=V|373=2|10=101|8=FIX.4.4|9=147|35=3|34=78|49=TEST_ACCEPTOR|52=20250613-15:15:33.508|56=TEST_INITIATOR|45=77|58=Tag not defined for this message type, field=65|371=65|372=V|373=2|10=104|8=FIX.4.4|9=147|35=3|34=79|49=TEST_ACCEPTOR|52=20250613-15:15:33.508|56=TEST_INITIATOR|45=78|58=Tag not defined for this message type, field=65|371=65|372=V|373=2|10=106|8=FIX.4.4|9=147|35=3|34=80|49=TEST_ACCEPTOR|52=20250613-15:15:33.508|56=TEST_INITIATOR|45=79|58=Tag not defined for this message type, field=65|371=65|372=V|373=2|10=099|8=FIX.4.4|9=147|35=3|34=81|49=TEST_ACCEPTOR|52=20250613-15:15:33.508|56=TEST_INITIATOR|45=80|58=Tag not defined for this message type, field=65|371=65|372=V|373=2|10=092|8=FIX.4.4|9=147|35=3|34=82|49=TEST_ACCEPTOR|52=20250613-15:15:33.508|56=TEST_INITIATOR|45=81|58=Tag not defined for this message type, field=65|371=65|372=V|373=2|10=094|8=FIX.4.4|9=147|35=3|34=83|49=TEST_ACCEPTOR|52=20250613-15:15:33.509|56=TEST_INITIATOR|45=82|58=Tag not defined for this message type, field=65|371=65|372=V|373=2|10=097|8=FIX.4.4|9=147|35=3|34=84|49=TEST_ACCEPTOR|52=20250613-15:15:33.509|56=TEST_INITIATOR|45=83|58=Tag not defined for this message type, field=65|371=65|372=V|373=2|10=099|8=FIX.4.4|9=147|35=3|34=85|49=TEST_ACCEPTOR|52=20250613-15:15:33.509|56=TEST_INITIATOR|45=84|58=Tag not defined for this message type, field=65|371=65|372=V|373=2|10=101|8=FIX.4.4|9=147|35=3|34=86|49=TEST_ACCEPTOR|52=20250613-15:15:33.509|56=TEST_INITIATOR|45=85|58=Tag not defined for this message type, field=65|371=65|372=V|373=2|10=103|8=FIX.4.4|9=147|35=3|34=87|49=TEST_ACCEPTOR|52=20250613-15:15:33.509|56=TEST_INITIATOR|45=86|58=Tag not defined for this message type, field=65|371=65|372=V|373=2|10=105|8=FIX.4.4|9=147|35=3|34=88|49=TEST_ACCEPTOR|52=20250613-15:15:33.510|56=TEST_INITIATOR|45=87|58=Tag not defined for this message type, field=65|371=65|372=V|373=2|10=099|8=FIX.4.4|9=147|35=3|34=89|49=TEST_ACCEPTOR|52=20250613-15:15:33.510|56=TEST_INITIATOR|45=88|58=Tag not defined for this message type, field=65|371=65|372=V|373=2|10=101|8=FIX.4.4|9=147|35=3|34=90|49=TEST_ACCEPTOR|52=20250613-15:15:33.510|56=TEST_INITIATOR|45=89|58=Tag not defined for this message type, field=65|371=65|372=V|373=2|10=094|8=FIX.4.4|9=147|35=3|34=91|49=TEST_ACCEPTOR|52=20250613-15:15:33.510|56=TEST_INITIATOR|45=90|58=Tag not defined for this message type, field=65|371=65|372=V|373=2|10=087|8=FIX.4.4|9=147|35=3|34=92|49=TEST_ACCEPTOR|52=20250613-15:15:33.510|56=TEST_INITIATOR|45=91|58=Tag not defined for this message type, field=65|371=65|372=V|373=2|10=089|8=FIX.4.4|9=147|35=3|34=93|49=TEST_ACCEPTOR|52=20250613-15:15:33.511|56=TEST_INITIATOR|45=92|58=Tag not defined for this message type, field=65|371=65|372=V|373=2|10=092|8=FIX.4.4|9=147|35=3|34=94|49=TEST_ACCEPTOR|52=20250613-15:15:33.511|56=TEST_INITIATOR|45=93|58=Tag not defined for this message type, field=65|371=65|372=V|373=2|10=094|8=FIX.4.4|9=147|35=3|34=95|49=TEST_ACCEPTOR|52=20250613-15:15:33.511|56=TEST_INITIATOR|45=94|58=Tag not defined for this message type, field=65|371=65|372=V|373=2|10=096|8=FIX.4.4|9=147|35=3|34=96|49=TEST_ACCEPTOR|52=20250613-15:15:33.512|56=TEST_INITIATOR|45=95|58=Tag not defined for this message type, field=65|371=65|372=V|373=2|10=099|8=FIX.4.4|9=147|35=3|34=97|49=TEST_ACCEPTOR|52=20250613-15:15:33.512|56=TEST_INITIATOR|45=96|58=Tag not defined for this message type, field=65|371=65|372=V|373=2|10=101|8=FIX.4.4|9=147|35=3|34=98|49=TEST_ACCEPTOR|52=20250613-15:15:33.512|56=TEST_INITIATOR|45=97|58=Tag not defined for this message type, field=65|371=65|372=V|373=2|10=103|8=FIX.4.4|9=147|35=3|34=99|49=TEST_ACCEPTOR|52=20250613-15:15:33.512|56=TEST_INITIATOR|45=98|58=Tag not defined for this message type, field=65|371=65|372=V|373=2|10=105|8=FIX.4.4|9=148|35=3|34=100|49=TEST_ACCEPTOR|52=20250613-15:15:33.512|56=TEST_INITIATOR|45=99|58=Tag not defined for this message type, field=65|371=65|372=V|373=2|10=138|8=FIX.4.4|9=149|35=3|34=101|49=TEST_ACCEPTOR|52=20250613-15:15:33.513|56=TEST_INITIATOR|45=100|58=Tag not defined for this message type, field=65|371=65|372=V|373=2|10=172|8=FIX.4.4|9=149|35=3|34=102|49=TEST_ACCEPTOR|52=20250613-15:15:33.513|56=TEST_INITIATOR|45=101|58=Tag not defined for this message type, field=65|371=65|372=V|373=2|10=174|8=FIX.4.4|9=149|35=3|34=103|49=TEST_ACCEPTOR|52=20250613-15:15:33.513|56=TEST_INITIATOR|45=102|58=Tag not defined for this message type, field=65|371=65|372=V|373=2|10=176|8=FIX.4.4|9=149|35=3|34=104|49=TEST_ACCEPTOR|52=20250613-15:15:33.513|56=TEST_INITIATOR|45=103|58=Tag not defined for this message type, field=65|371=65|372=V|373=2|10=178|8=FIX.4.4|9=149|35=3|34=105|49=TEST_ACCEPTOR|52=20250613-15:15:33.513|56=TEST_INITIATOR|45=104|58=Tag not defined for this message type, field=65|371=65|372=V|373=2|10=180|8=FIX.4.4|9=149|35=3|34=106|49=TEST_ACCEPTOR|52=20250613-15:15:33.514|56=TEST_INITIATOR|45=105|58=Tag not defined for this message type, field=65|371=65|372=V|373=2|10=183|8=FIX.4.4|9=149|35=3|34=107|49=TEST_ACCEPTOR|52=20250613-15:15:33.514|56=TEST_INITIATOR|45=106|58=Tag not defined for this message type, field=65|371=65|372=V|373=2|10=185|8=FIX.4.4|9=149|35=3|34=108|49=TEST_ACCEPTOR|52=20250613-15:15:33.514|56=TEST_INITIATOR|45=107|58=Tag not defined for this message type, field=65|371=65|372=V|373=2|10=187|8=FIX.4.4|9=149|35=3|34=109|49=TEST_ACCEPTOR|52=20250613-15:15:33.514|56=TEST_INITIATOR|45=108|58=Tag not defined for this message type, field=65|371=65|372=V|373=2|10=189|8=FIX.4.4|9=149|35=3|34=110|49=TEST_ACCEPTOR|52=20250613-15:15:33.514|56=TEST_INITIATOR|45=109|58=Tag not defined for this message type, field=65|371=65|372=V|373=2|10=182|8=FIX.4.4|9=149|35=3|34=111|49=TEST_ACCEPTOR|52=20250613-15:15:33.514|56=TEST_INITIATOR|45=110|58=Tag not defined for this message type, field=65|371=65|372=V|373=2|10=175|8=FIX.4.4|9=149|35=3|34=112|49=TEST_ACCEPTOR|52=20250613-15:15:33.514|56=TEST_INITIATOR|45=111|58=Tag not defined for this message type, field=65|371=65|372=V|373=2|10=177|8=FIX.4.4|9=149|35=3|34=113|49=TEST_ACCEPTOR|52=20250613-15:15:33.514|56=TEST_INITIATOR|45=112|58=Tag not defined for this message type, field=65|371=65|372=V|373=2|10=179|8=FIX.4.4|9=149|35=3|34=114|49=TEST_ACCEPTOR|52=20250613-15:15:33.515|56=TEST_INITIATOR|45=113|58=Tag not defined for this message type, field=65|371=65|372=V|373=2|10=182|8=FIX.4.4|9=149|35=3|34=115|49=TEST_ACCEPTOR|52=20250613-15:15:33.515|56=TEST_INITIATOR|45=114|58=Tag not defined for this message type, field=65|371=65|372=V|373=2|10=184|8=FIX.4.4|9=149|35=3|34=116|49=TEST_ACCEPTOR|52=20250613-15:15:33.515|56=TEST_INITIATOR|45=115|58=Tag not defined for this message type, field=65|371=65|372=V|373=2|10=186|8=FIX.4.4|9=149|35=3|34=117|49=TEST_ACCEPTOR|52=20250613-15:15:33.515|56=TEST_INITIATOR|45=116|58=Tag not defined for this message type, field=65|371=65|372=V|373=2|10=188|8=FIX.4.4|9=149|35=3|34=118|49=TEST_ACCEPTOR|52=20250613-15:15:33.515|56=TEST_INITIATOR|45=117|58=Tag not defined for this message type, field=65|371=65|372=V|373=2|10=190|8=FIX.4.4|9=149|35=3|34=119|49=TEST_ACCEPTOR|52=20250613-15:15:33.515|56=TEST_INITIATOR|45=118|58=Tag not defined for this message type, field=65|371=65|372=V|373=2|10=192|8=FIX.4.4|9=149|35=3|34=120|49=TEST_ACCEPTOR|52=20250613-15:15:33.515|56=TEST_INITIATOR|45=119|58=Tag not defined for this message type, field=65|371=65|372=V|373=2|10=185|8=FIX.4.4|9=149|35=3|34=121|49=TEST_ACCEPTOR|52=20250613-15:15:33.516|56=TEST_INITIATOR|45=120|58=Tag not defined for this message type, field=65|371=65|372=V|373=2|10=179|8=FIX.4.4|9=149|35=3|34=122|49=TEST_ACCEPTOR|52=20250613-15:15:33.516|56=TEST_INITIATOR|45=121|58=Tag not defined for this message type, field=65|371=65|372=V|373=2|10=181|8=FIX.4.4|9=149|35=3|34=123|49=TEST_ACCEPTOR|52=20250613-15:15:33.516|56=TEST_INITIATOR|45=122|58=Tag not defined for this message type, field=65|371=65|372=V|373=2|10=183|8=FIX.4.4|9=149|35=3|34=124|49=TEST_ACCEPTOR|52=20250613-15:15:33.516|56=TEST_INITIATOR|45=123|58=Tag not defined for this message type, field=65|371=65|372=V|373=2|10=185|8=FIX.4.4|9=149|35=3|34=125|49=TEST_ACCEPTOR|52=20250613-15:15:33.516|56=TEST_INITIATOR|45=124|58=Tag not defined for this message type, field=65|371=65|372=V|373=2|10=187|8=FIX.4.4|9=149|35=3|34=126|49=TEST_ACCEPTOR|52=20250613-15:15:33.516|56=TEST_INITIATOR|45=125|58=Tag not defined for this message type, field=65|371=65|372=V|373=2|10=189|8=FIX.4.4|9=149|35=3|34=127|49=TEST_ACCEPTOR|52=20250613-15:15:33.516|56=TEST_INITIATOR|45=126|58=Tag not defined for this message type, field=65|371=65|372=V|373=2|10=191|8=FIX.4.4|9=149|35=3|34=128|49=TEST_ACCEPTOR|52=20250613-15:15:33.516|56=TEST_INITIATOR|45=127|58=Tag not defined for this message type, field=65|371=65|372=V|373=2|10=193|8=FIX.4.4|9=149|35=3|34=129|49=TEST_ACCEPTOR|52=20250613-15:15:33.517|56=TEST_INITIATOR|45=128|58=Tag not defined for this message type, field=65|371=65|372=V|373=2|10=196|8=FIX.4.4|9=149|35=3|34=130|49=TEST_ACCEPTOR|52=20250613-15:15:33.520|56=TEST_INITIATOR|45=129|58=Tag not defined for this message type, field=65|371=65|372=V|373=2|10=183|8=FIX.4.4|9=149|35=3|34=131|49=TEST_ACCEPTOR|52=20250613-15:15:33.520|56=TEST_INITIATOR|45=130|58=Tag not defined for this message type, field=65|371=65|372=V|373=2|10=176|8=FIX.4.4|9=149|35=3|34=132|49=TEST_ACCEPTOR|52=20250613-15:15:33.520|56=TEST_INITIATOR|45=131|58=Tag not defined for this message type, field=65|371=65|372=V|373=2|10=178|8=FIX.4.4|9=149|35=3|34=133|49=TEST_ACCEPTOR|52=20250613-15:15:33.520|56=TEST_INITIATOR|45=132|58=Tag not defined for this message type, field=65|371=65|372=V|373=2|10=180|8=FIX.4.4|9=149|35=3|34=134|49=TEST_ACCEPTOR|52=20250613-15:15:33.520|56=TEST_INITIATOR|45=133|58=Tag not defined for this message type, field=65|371=65|372=V|373=2|10=182|8=FIX.4.4|9=149|35=3|34=135|49=TEST_ACCEPTOR|52=20250613-15:15:33.521|56=TEST_INITIATOR|45=134|58=Tag not defined for this message type, field=65|371=65|372=V|373=2|10=185|8=FIX.4.4|9=149|35=3|34=136|49=TEST_ACCEPTOR|52=20250613-15:15:33.521|56=TEST_INITIATOR|45=135|58=Tag not defined for this message type, field=65|371=65|372=V|373=2|10=187|8=FIX.4.4|9=149|35=3|34=137|49=TEST_ACCEPTOR|52=20250613-15:15:33.521|56=TEST_INITIATOR|45=136|58=Tag not defined for this message type, field=65|371=65|372=V|373=2|10=189|8=FIX.4.4|9=149|35=3|34=138|49=TEST_ACCEPTOR|52=20250613-15:15:33.521|56=TEST_INITIATOR|45=137|58=Tag not defined for this message type, field=65|371=65|372=V|373=2|10=191|8=FIX.4.4|9=149|35=3|34=139|49=TEST_ACCEPTOR|52=20250613-15:15:33.521|56=TEST_INITIATOR|45=138|58=Tag not defined for this message type, field=65|371=65|372=V|373=2|10=193|8=FIX.4.4|9=149|35=3|34=140|49=TEST_ACCEPTOR|52=20250613-15:15:33.521|56=TEST_INITIATOR|45=139|58=Tag not defined for this message type, field=65|371=65|372=V|373=2|10=186|8=FIX.4.4|9=149|35=3|34=141|49=TEST_ACCEPTOR|52=20250613-15:15:33.521|56=TEST_INITIATOR|45=140|58=Tag not defined for this message type, field=65|371=65|372=V|373=2|10=179|8=FIX.4.4|9=149|35=3|34=142|49=TEST_ACCEPTOR|52=20250613-15:15:33.521|56=TEST_INITIATOR|45=141|58=Tag not defined for this message type, field=65|371=65|372=V|373=2|10=181|8=FIX.4.4|9=149|35=3|34=143|49=TEST_ACCEPTOR|52=20250613-15:15:33.522|56=TEST_INITIATOR|45=142|58=Tag not defined for this message type, field=65|371=65|372=V|373=2|10=184|8=FIX.4.4|9=149|35=3|34=144|49=TEST_ACCEPTOR|52=20250613-15:15:33.522|56=TEST_INITIATOR|45=143|58=Tag not defined for this message type, field=65|371=65|372=V|373=2|10=186|8=FIX.4.4|9=149|35=3|34=145|49=TEST_ACCEPTOR|52=20250613-15:15:33.522|56=TEST_INITIATOR|45=144|58=Tag not defined for this message type, field=65|371=65|372=V|373=2|10=188|8=FIX.4.4|9=149|35=3|34=146|49=TEST_ACCEPTOR|52=20250613-15:15:33.522|56=TEST_INITIATOR|45=145|58=Tag not defined for this message type, field=65|371=65|372=V|373=2|10=190|8=FIX.4.4|9=149|35=3|34=147|49=TEST_ACCEPTOR|52=20250613-15:15:33.522|56=TEST_INITIATOR|45=146|58=Tag not defined for this message type, field=65|371=65|372=V|373=2|10=192|8=FIX.4.4|9=149|35=3|34=148|49=TEST_ACCEPTOR|52=20250613-15:15:33.522|56=TEST_INITIATOR|45=147|58=Tag not defined for this message type, field=65|371=65|372=V|373=2|10=194|8=FIX.4.4|9=149|35=3|34=149|49=TEST_ACCEPTOR|52=20250613-15:15:33.522|56=TEST_INITIATOR|45=148|58=Tag not defined for this message type, field=65|371=65|372=V|373=2|10=196|8=FIX.4.4|9=149|35=3|34=150|49=TEST_ACCEPTOR|52=20250613-15:15:33.522|56=TEST_INITIATOR|45=149|58=Tag not defined for this message type, field=65|371=65|372=V|373=2|10=189|8=FIX.4.4|9=149|35=3|34=151|49=TEST_ACCEPTOR|52=20250613-15:15:33.522|56=TEST_INITIATOR|45=150|58=Tag not defined for this message type, field=65|371=65|372=V|373=2|10=182|8=FIX.4.4|9=149|35=3|34=152|49=TEST_ACCEPTOR|52=20250613-15:15:33.522|56=TEST_INITIATOR|45=151|58=Tag not defined for this message type, field=65|371=65|372=V|373=2|10=184|8=FIX.4.4|9=149|35=3|34=153|49=TEST_ACCEPTOR|52=20250613-15:15:33.523|56=TEST_INITIATOR|45=152|58=Tag not defined for this message type, field=65|371=65|372=V|373=2|10=187|8=FIX.4.4|9=149|35=3|34=154|49=TEST_ACCEPTOR|52=20250613-15:15:33.523|56=TEST_INITIATOR|45=153|58=Tag not defined for this message type, field=65|371=65|372=V|373=2|10=189|8=FIX.4.4|9=149|35=3|34=155|49=TEST_ACCEPTOR|52=20250613-15:15:33.523|56=TEST_INITIATOR|45=154|58=Tag not defined for this message type, field=65|371=65|372=V|373=2|10=191|8=FIX.4.4|9=149|35=3|34=156|49=TEST_ACCEPTOR|52=20250613-15:15:33.523|56=TEST_INITIATOR|45=155|58=Tag not defined for this message type, field=65|371=65|372=V|373=2|10=193|8=FIX.4.4|9=149|35=3|34=157|49=TEST_ACCEPTOR|52=20250613-15:15:33.523|56=TEST_INITIATOR|45=156|58=Tag not defined for this message type, field=65|371=65|372=V|373=2|10=195|8=FIX.4.4|9=149|35=3|34=158|49=TEST_ACCEPTOR|52=20250613-15:15:33.523|56=TEST_INITIATOR|45=157|58=Tag not defined for this message type, field=65|371=65|372=V|373=2|10=197|8=FIX.4.4|9=149|35=3|34=159|49=TEST_ACCEPTOR|52=20250613-15:15:33.523|56=TEST_INITIATOR|45=158|58=Tag not defined for this message type, field=65|371=65|372=V|373=2|10=199|8=FIX.4.4|9=149|35=3|34=160|49=TEST_ACCEPTOR|52=20250613-15:15:33.524|56=TEST_INITIATOR|45=159|58=Tag not defined for this message type, field=65|371=65|372=V|373=2|10=193|8=FIX.4.4|9=149|35=3|34=161|49=TEST_ACCEPTOR|52=20250613-15:15:33.524|56=TEST_INITIATOR|45=160|58=Tag not defined for this message type, field=65|371=65|372=V|373=2|10=186|8=FIX.4.4|9=149|35=3|34=162|49=TEST_ACCEPTOR|52=20250613-15:15:33.524|56=TEST_INITIATOR|45=161|58=Tag not defined for this message type, field=65|371=65|372=V|373=2|10=188|8=FIX.4.4|9=149|35=3|34=163|49=TEST_ACCEPTOR|52=20250613-15:15:33.524|56=TEST_INITIATOR|45=162|58=Tag not defined for this message type, field=65|371=65|372=V|373=2|10=190|8=FIX.4.4|9=149|35=3|34=164|49=TEST_ACCEPTOR|52=20250613-15:15:33.524|56=TEST_INITIATOR|45=163|58=Tag not defined for this message type, field=65|371=65|372=V|373=2|10=192|8=FIX.4.4|9=149|35=3|34=165|49=TEST_ACCEPTOR|52=20250613-15:15:33.524|56=TEST_INITIATOR|45=164|58=Tag not defined for this message type, field=65|371=65|372=V|373=2|10=194|8=FIX.4.4|9=149|35=3|34=166|49=TEST_ACCEPTOR|52=20250613-15:15:33.524|56=TEST_INITIATOR|45=165|58=Tag not defined for this message type, field=65|371=65|372=V|373=2|10=196|8=FIX.4.4|9=149|35=3|34=167|49=TEST_ACCEPTOR|52=20250613-15:15:33.525|56=TEST_INITIATOR|45=166|58=Tag not defined for this message type, field=65|371=65|372=V|373=2|10=199|8=FIX.4.4|9=149|35=3|34=168|49=TEST_ACCEPTOR|52=20250613-15:15:33.525|56=TEST_INITIATOR|45=167|58=Tag not defined for this message type, field=65|371=65|372=V|373=2|10=201|8=FIX.4.4|9=149|35=3|34=169|49=TEST_ACCEPTOR|52=20250613-15:15:33.525|56=TEST_INITIATOR|45=168|58=Tag not defined for this message type, field=65|371=65|372=V|373=2|10=203|8=FIX.4.4|9=149|35=3|34=170|49=TEST_ACCEPTOR|52=20250613-15:15:33.525|56=TEST_INITIATOR|45=169|58=Tag not defined for this message type, field=65|371=65|372=V|373=2|10=196|8=FIX.4.4|9=149|35=3|34=171|49=TEST_ACCEPTOR|52=20250613-15:15:33.525|56=TEST_INITIATOR|45=170|58=Tag not defined for this message type, field=65|371=65|372=V|373=2|10=189|8=FIX.4.4|9=149|35=3|34=172|49=TEST_ACCEPTOR|52=20250613-15:15:33.525|56=TEST_INITIATOR|45=171|58=Tag not defined for this message type, field=65|371=65|372=V|373=2|10=191|8=FIX.4.4|9=149|35=3|34=173|49=TEST_ACCEPTOR|52=20250613-15:15:33.525|56=TEST_INITIATOR|45=172|58=Tag not defined for this message type, field=65|371=65|372=V|373=2|10=193|8=FIX.4.4|9=149|35=3|34=174|49=TEST_ACCEPTOR|52=20250613-15:15:33.525|56=TEST_INITIATOR|45=173|58=Tag not defined for this message type, field=65|371=65|372=V|373=2|10=195|8=FIX.4.4|9=149|35=3|34=175|49=TEST_ACCEPTOR|52=20250613-15:15:33.525|56=TEST_INITIATOR|45=174|58=Tag not defined for this message type, field=65|371=65|372=V|373=2|10=197|8=FIX.4.4|9=149|35=3|34=176|49=TEST_ACCEPTOR|52=20250613-15:15:33.525|56=TEST_INITIATOR|45=175|58=Tag not defined for this message type, field=65|371=65|372=V|373=2|10=199|8=FIX.4.4|9=149|35=3|34=177|49=TEST_ACCEPTOR|52=20250613-15:15:33.526|56=TEST_INITIATOR|45=176|58=Tag not defined for this message type, field=65|371=65|372=V|373=2|10=202|8=FIX.4.4|9=149|35=3|34=178|49=TEST_ACCEPTOR|52=20250613-15:15:33.526|56=TEST_INITIATOR|45=177|58=Tag not defined for this message type, field=65|371=65|372=V|373=2|10=204|8=FIX.4.4|9=149|35=3|34=179|49=TEST_ACCEPTOR|52=20250613-15:15:33.526|56=TEST_INITIATOR|45=178|58=Tag not defined for this message type, field=65|371=65|372=V|373=2|10=206|8=FIX.4.4|9=149|35=3|34=180|49=TEST_ACCEPTOR|52=20250613-15:15:33.526|56=TEST_INITIATOR|45=179|58=Tag not defined for this message type, field=65|371=65|372=V|373=2|10=199|8=FIX.4.4|9=149|35=3|34=181|49=TEST_ACCEPTOR|52=20250613-15:15:33.526|56=TEST_INITIATOR|45=180|58=Tag not defined for this message type, field=65|371=65|372=V|373=2|10=192|8=FIX.4.4|9=149|35=3|34=182|49=TEST_ACCEPTOR|52=20250613-15:15:33.526|56=TEST_INITIATOR|45=181|58=Tag not defined for this message type, field=65|371=65|372=V|373=2|10=194|8=FIX.4.4|9=149|35=3|34=183|49=TEST_ACCEPTOR|52=20250613-15:15:33.526|56=TEST_INITIATOR|45=182|58=Tag not defined for this message type, field=65|371=65|372=V|373=2|10=196|8=FIX.4.4|9=149|35=3|34=184|49=TEST_ACCEPTOR|52=20250613-15:15:33.526|56=TEST_INITIATOR|45=183|58=Tag not defined for this message type, field=65|371=65|372=V|373=2|10=198|8=FIX.4.4|9=149|35=3|34=185|49=TEST_ACCEPTOR|52=20250613-15:15:33.526|56=TEST_INITIATOR|45=184|58=Tag not defined for this message type, field=65|371=65|372=V|373=2|10=200|8=FIX.4.4|9=149|35=3|34=186|49=TEST_ACCEPTOR|52=20250613-15:15:33.526|56=TEST_INITIATOR|45=185|58=Tag not defined for this message type, field=65|371=65|372=V|373=2|10=202|8=FIX.4.4|9=149|35=3|34=187|49=TEST_ACCEPTOR|52=20250613-15:15:33.527|56=TEST_INITIATOR|45=186|58=Tag not defined for this message type, field=65|371=65|372=V|373=2|10=205|8=FIX.4.4|9=149|35=3|34=188|49=TEST_ACCEPTOR|52=20250613-15:15:33.527|56=TEST_INITIATOR|45=187|58=Tag not defined for this message type, field=65|371=65|372=V|373=2|10=207|8=FIX.4.4|9=149|35=3|34=189|49=TEST_ACCEPTOR|52=20250613-15:15:33.527|56=TEST_INITIATOR|45=188|58=Tag not defined for this message type, field=65|371=65|372=V|373=2|10=209|8=FIX.4.4|9=149|35=3|34=190|49=TEST_ACCEPTOR|52=20250613-15:15:33.527|56=TEST_INITIATOR|45=189|58=Tag not defined for this message type, field=65|371=65|372=V|373=2|10=202|8=FIX.4.4|9=149|35=3|34=191|49=TEST_ACCEPTOR|52=20250613-15:15:33.527|56=TEST_INITIATOR|45=190|58=Tag not defined for this message type, field=65|371=65|372=V|373=2|10=195|8=FIX.4.4|9=149|35=3|34=192|49=TEST_ACCEPTOR|52=20250613-15:15:33.527|56=TEST_INITIATOR|45=191|58=Tag not defined for this message type, field=65|371=65|372=V|373=2|10=197|8=FIX.4.4|9=149|35=3|34=193|49=TEST_ACCEPTOR|52=20250613-15:15:33.527|56=TEST_INITIATOR|45=192|58=Tag not defined for this message type, field=65|371=65|372=V|373=2|10=199|8=FIX.4.4|9=149|35=3|34=194|49=TEST_ACCEPTOR|52=20250613-15:15:33.527|56=TEST_INITIATOR|45=193|58=Tag not defined for this message type, field=65|371=65|372=V|373=2|10=201|8=FIX.4.4|9=149|35=3|34=195|49=TEST_ACCEPTOR|52=20250613-15:15:33.527|56=TEST_INITIATOR|45=194|58=Tag not defined for this message type, field=65|371=65|372=V|373=2|10=203|8=FIX.4.4|9=149|35=3|34=196|49=TEST_ACCEPTOR|52=20250613-15:15:33.528|56=TEST_INITIATOR|45=195|58=Tag not defined for this message type, field=65|371=65|372=V|373=2|10=206|8=FIX.4.4|9=149|35=3|34=197|49=TEST_ACCEPTOR|52=20250613-15:15:33.528|56=TEST_INITIATOR|45=196|58=Tag not defined for this message type, field=65|371=65|372=V|373=2|10=208|8=FIX.4.4|9=149|35=3|34=198|49=TEST_ACCEPTOR|52=20250613-15:15:33.528|56=TEST_INITIATOR|45=197|58=Tag not defined for this message type, field=65|371=65|372=V|373=2|10=210|8=FIX.4.4|9=149|35=3|34=199|49=TEST_ACCEPTOR|52=20250613-15:15:33.528|56=TEST_INITIATOR|45=198|58=Tag not defined for this message type, field=65|371=65|372=V|373=2|10=212|8=FIX.4.4|9=149|35=3|34=200|49=TEST_ACCEPTOR|52=20250613-15:15:33.528|56=TEST_INITIATOR|45=199|58=Tag not defined for this message type, field=65|371=65|372=V|373=2|10=196|8=FIX.4.4|9=149|35=3|34=201|49=TEST_ACCEPTOR|52=20250613-15:15:33.528|56=TEST_INITIATOR|45=200|58=Tag not defined for this message type, field=65|371=65|372=V|373=2|10=180|8=FIX.4.4|9=149|35=3|34=202|49=TEST_ACCEPTOR|52=20250613-15:15:33.529|56=TEST_INITIATOR|45=201|58=Tag not defined for this message type, field=65|371=65|372=V|373=2|10=183|8=FIX.4.4|9=149|35=3|34=203|49=TEST_ACCEPTOR|52=20250613-15:15:33.529|56=TEST_INITIATOR|45=202|58=Tag not defined for this message type, field=65|371=65|372=V|373=2|10=185|8=FIX.4.4|9=149|35=3|34=204|49=TEST_ACCEPTOR|52=20250613-15:15:33.529|56=TEST_INITIATOR|45=203|58=Tag not defined for this message type, field=65|371=65|372=V|373=2|10=187|8=FIX.4.4|9=149|35=3|34=205|49=TEST_ACCEPTOR|52=20250613-15:15:33.529|56=TEST_INITIATOR|45=204|58=Tag not defined for this message type, field=65|371=65|372=V|373=2|10=189|8=FIX.4.4|9=149|35=3|34=206|49=TEST_ACCEPTOR|52=20250613-15:15:33.529|56=TEST_INITIATOR|45=205|58=Tag not defined for this message type, field=65|371=65|372=V|373=2|10=191|8=FIX.4.4|9=149|35=3|34=207|49=TEST_ACCEPTOR|52=20250613-15:15:33.529|56=TEST_INITIATOR|45=206|58=Tag not defined for this message type, field=65|371=65|372=V|373=2|10=193|8=FIX.4.4|9=149|35=3|34=208|49=TEST_ACCEPTOR|52=20250613-15:15:33.529|56=TEST_INITIATOR|45=207|58=Tag not defined for this message type, field=65|371=65|372=V|373=2|10=195|8=FIX.4.4|9=149|35=3|34=209|49=TEST_ACCEPTOR|52=20250613-15:15:33.529|56=TEST_INITIATOR|45=208|58=Tag not defined for this message type, field=65|371=65|372=V|373=2|10=197|8=FIX.4.4|9=149|35=3|34=210|49=TEST_ACCEPTOR|52=20250613-15:15:33.530|56=TEST_INITIATOR|45=209|58=Tag not defined for this message type, field=65|371=65|372=V|373=2|10=182|8=FIX.4.4|9=149|35=3|34=211|49=TEST_ACCEPTOR|52=20250613-15:15:33.530|56=TEST_INITIATOR|45=210|58=Tag not defined for this message type, field=65|371=65|372=V|373=2|10=175|8=FIX.4.4|9=149|35=3|34=212|49=TEST_ACCEPTOR|52=20250613-15:15:33.530|56=TEST_INITIATOR|45=211|58=Tag not defined for this message type, field=65|371=65|372=V|373=2|10=177|8=FIX.4.4|9=149|35=3|34=213|49=TEST_ACCEPTOR|52=20250613-15:15:33.530|56=TEST_INITIATOR|45=212|58=Tag not defined for this message type, field=65|371=65|372=V|373=2|10=179|8=FIX.4.4|9=149|35=3|34=214|49=TEST_ACCEPTOR|52=20250613-15:15:33.530|56=TEST_INITIATOR|45=213|58=Tag not defined for this message type, field=65|371=65|372=V|373=2|10=181|8=FIX.4.4|9=149|35=3|34=215|49=TEST_ACCEPTOR|52=20250613-15:15:33.530|56=TEST_INITIATOR|45=214|58=Tag not defined for this message type, field=65|371=65|372=V|373=2|10=183|8=FIX.4.4|9=149|35=3|34=216|49=TEST_ACCEPTOR|52=20250613-15:15:33.530|56=TEST_INITIATOR|45=215|58=Tag not defined for this message type, field=65|371=65|372=V|373=2|10=185|8=FIX.4.4|9=149|35=3|34=217|49=TEST_ACCEPTOR|52=20250613-15:15:33.530|56=TEST_INITIATOR|45=216|58=Tag not defined for this message type, field=65|371=65|372=V|373=2|10=187|8=FIX.4.4|9=149|35=3|34=218|49=TEST_ACCEPTOR|52=20250613-15:15:33.530|56=TEST_INITIATOR|45=217|58=Tag not defined for this message type, field=65|371=65|372=V|373=2|10=189|8=FIX.4.4|9=149|35=3|34=219|49=TEST_ACCEPTOR|52=20250613-15:15:33.530|56=TEST_INITIATOR|45=218|58=Tag not defined for this message type, field=65|371=65|372=V|373=2|10=191|8=FIX.4.4|9=149|35=3|34=220|49=TEST_ACCEPTOR|52=20250613-15:15:33.531|56=TEST_INITIATOR|45=219|58=Tag not defined for this message type, field=65|371=65|372=V|373=2|10=185|8=FIX.4.4|9=149|35=3|34=221|49=TEST_ACCEPTOR|52=20250613-15:15:33.531|56=TEST_INITIATOR|45=220|58=Tag not defined for this message type, field=65|371=65|372=V|373=2|10=178|8=FIX.4.4|9=149|35=3|34=222|49=TEST_ACCEPTOR|52=20250613-15:15:33.531|56=TEST_INITIATOR|45=221|58=Tag not defined for this message type, field=65|371=65|372=V|373=2|10=180|8=FIX.4.4|9=149|35=3|34=223|49=TEST_ACCEPTOR|52=20250613-15:15:33.531|56=TEST_INITIATOR|45=222|58=Tag not defined for this message type, field=65|371=65|372=V|373=2|10=182|8=FIX.4.4|9=149|35=3|34=224|49=TEST_ACCEPTOR|52=20250613-15:15:33.531|56=TEST_INITIATOR|45=223|58=Tag not defined for this message type, field=65|371=65|372=V|373=2|10=184|8=FIX.4.4|9=149|35=3|34=225|49=TEST_ACCEPTOR|52=20250613-15:15:33.531|56=TEST_INITIATOR|45=224|58=Tag not defined for this message type, field=65|371=65|372=V|373=2|10=186|8=FIX.4.4|9=149|35=3|34=226|49=TEST_ACCEPTOR|52=20250613-15:15:33.531|56=TEST_INITIATOR|45=225|58=Tag not defined for this message type, field=65|371=65|372=V|373=2|10=188|8=FIX.4.4|9=149|35=3|34=227|49=TEST_ACCEPTOR|52=20250613-15:15:33.531|56=TEST_INITIATOR|45=226|58=Tag not defined for this message type, field=65|371=65|372=V|373=2|10=190|8=FIX.4.4|9=149|35=3|34=228|49=TEST_ACCEPTOR|52=20250613-15:15:33.531|56=TEST_INITIATOR|45=227|58=Tag not defined for this message type, field=65|371=65|372=V|373=2|10=192|8=FIX.4.4|9=149|35=3|34=229|49=TEST_ACCEPTOR|52=20250613-15:15:33.532|56=TEST_INITIATOR|45=228|58=Tag not defined for this message type, field=65|371=65|372=V|373=2|10=195|8=FIX.4.4|9=149|35=3|34=230|49=TEST_ACCEPTOR|52=20250613-15:15:33.532|56=TEST_INITIATOR|45=229|58=Tag not defined for this message type, field=65|371=65|372=V|373=2|10=188|8=FIX.4.4|9=149|35=3|34=231|49=TEST_ACCEPTOR|52=20250613-15:15:33.532|56=TEST_INITIATOR|45=230|58=Tag not defined for this message type, field=65|371=65|372=V|373=2|10=181|8=FIX.4.4|9=149|35=3|34=232|49=TEST_ACCEPTOR|52=20250613-15:15:33.532|56=TEST_INITIATOR|45=231|58=Tag not defined for this message type, field=65|371=65|372=V|373=2|10=183|8=FIX.4.4|9=149|35=3|34=233|49=TEST_ACCEPTOR|52=20250613-15:15:33.532|56=TEST_INITIATOR|45=232|58=Tag not defined for this message type, field=65|371=65|372=V|373=2|10=185|8=FIX.4.4|9=149|35=3|34=234|49=TEST_ACCEPTOR|52=20250613-15:15:33.532|56=TEST_INITIATOR|45=233|58=Tag not defined for this message type, field=65|371=65|372=V|373=2|10=187|8=FIX.4.4|9=149|35=3|34=235|49=TEST_ACCEPTOR|52=20250613-15:15:33.532|56=TEST_INITIATOR|45=234|58=Tag not defined for this message type, field=65|371=65|372=V|373=2|10=189|8=FIX.4.4|9=149|35=3|34=236|49=TEST_ACCEPTOR|52=20250613-15:15:33.532|56=TEST_INITIATOR|45=235|58=Tag not defined for this message type, field=65|371=65|372=V|373=2|10=191|8=FIX.4.4|9=149|35=3|34=237|49=TEST_ACCEPTOR|52=20250613-15:15:33.532|56=TEST_INITIATOR|45=236|58=Tag not defined for this message type, field=65|371=65|372=V|373=2|10=193|8=FIX.4.4|9=149|35=3|34=238|49=TEST_ACCEPTOR|52=20250613-15:15:33.532|56=TEST_INITIATOR|45=237|58=Tag not defined for this message type, field=65|371=65|372=V|373=2|10=195|8=FIX.4.4|9=149|35=3|34=239|49=TEST_ACCEPTOR|52=20250613-15:15:33.533|56=TEST_INITIATOR|45=238|58=Tag not defined for this message type, field=65|371=65|372=V|373=2|10=198|8=FIX.4.4|9=149|35=3|34=240|49=TEST_ACCEPTOR|52=20250613-15:15:33.533|56=TEST_INITIATOR|45=239|58=Tag not defined for this message type, field=65|371=65|372=V|373=2|10=191|8=FIX.4.4|9=149|35=3|34=241|49=TEST_ACCEPTOR|52=20250613-15:15:33.533|56=TEST_INITIATOR|45=240|58=Tag not defined for this message type, field=65|371=65|372=V|373=2|10=184|8=FIX.4.4|9=149|35=3|34=242|49=TEST_ACCEPTOR|52=20250613-15:15:33.533|56=TEST_INITIATOR|45=241|58=Tag not defined for this message type, field=65|371=65|372=V|373=2|10=186|8=FIX.4.4|9=149|35=3|34=243|49=TEST_ACCEPTOR|52=20250613-15:15:33.533|56=TEST_INITIATOR|45=242|58=Tag not defined for this message type, field=65|371=65|372=V|373=2|10=188|8=FIX.4.4|9=149|35=3|34=244|49=TEST_ACCEPTOR|52=20250613-15:15:33.533|56=TEST_INITIATOR|45=243|58=Tag not defined for this message type, field=65|371=65|372=V|373=2|10=190|8=FIX.4.4|9=149|35=3|34=245|49=TEST_ACCEPTOR|52=20250613-15:15:33.533|56=TEST_INITIATOR|45=244|58=Tag not defined for this message type, field=65|371=65|372=V|373=2|10=192|8=FIX.4.4|9=149|35=3|34=246|49=TEST_ACCEPTOR|52=20250613-15:15:33.533|56=TEST_INITIATOR|45=245|58=Tag not defined for this message type, field=65|371=65|372=V|373=2|10=194|8=FIX.4.4|9=149|35=3|34=247|49=TEST_ACCEPTOR|52=20250613-15:15:33.533|56=TEST_INITIATOR|45=246|58=Tag not defined for this message type, field=65|371=65|372=V|373=2|10=196|8=FIX.4.4|9=149|35=3|34=248|49=TEST_ACCEPTOR|52=20250613-15:15:33.533|56=TEST_INITIATOR|45=247|58=Tag not defined for this message type, field=65|371=65|372=V|373=2|10=198|8=FIX.4.4|9=149|35=3|34=249|49=TEST_ACCEPTOR|52=20250613-15:15:33.534|56=TEST_INITIATOR|45=248|58=Tag not defined for this message type, field=65|371=65|372=V|373=2|10=201|8=FIX.4.4|9=149|35=3|34=250|49=TEST_ACCEPTOR|52=20250613-15:15:33.534|56=TEST_INITIATOR|45=249|58=Tag not defined for this message type, field=65|371=65|372=V|373=2|10=194|8=FIX.4.4|9=149|35=3|34=251|49=TEST_ACCEPTOR|52=20250613-15:15:33.534|56=TEST_INITIATOR|45=250|58=Tag not defined for this message type, field=65|371=65|372=V|373=2|10=187|8=FIX.4.4|9=149|35=3|34=252|49=TEST_ACCEPTOR|52=20250613-15:15:33.534|56=TEST_INITIATOR|45=251|58=Tag not defined for this message type, field=65|371=65|372=V|373=2|10=189|8=FIX.4.4|9=149|35=3|34=253|49=TEST_ACCEPTOR|52=20250613-15:15:33.534|56=TEST_INITIATOR|45=252|58=Tag not defined for this message type, field=65|371=65|372=V|373=2|10=191|8=FIX.4.4|9=149|35=3|34=254|49=TEST_ACCEPTOR|52=20250613-15:15:33.534|56=TEST_INITIATOR|45=253|58=Tag not defined for this message type, field=65|371=65|372=V|373=2|10=193|8=FIX.4.4|9=149|35=3|34=255|49=TEST_ACCEPTOR|52=20250613-15:15:33.534|56=TEST_INITIATOR|45=254|58=Tag not defined for this message type, field=65|371=65|372=V|373=2|10=195|8=FIX.4.4|9=149|35=3|34=256|49=TEST_ACCEPTOR|52=20250613-15:15:33.534|56=TEST_INITIATOR|45=255|58=Tag not defined for this message type, field=65|371=65|372=V|373=2|10=197|8=FIX.4.4|9=149|35=3|34=257|49=TEST_ACCEPTOR|52=20250613-15:15:33.534|56=TEST_INITIATOR|45=256|58=Tag not defined for this message type, field=65|371=65|372=V|373=2|10=199|8=FIX.4.4|9=149|35=3|34=258|49=TEST_ACCEPTOR|52=20250613-15:15:33.534|56=TEST_INITIATOR|45=257|58=Tag not defined for this message type, field=65|371=65|372=V|373=2|10=201|8=FIX.4.4|9=149|35=3|34=259|49=TEST_ACCEPTOR|52=20250613-15:15:33.534|56=TEST_INITIATOR|45=258|58=Tag not defined for this message type, field=65|371=65|372=V|373=2|10=203|8=FIX.4.4|9=149|35=3|34=260|49=TEST_ACCEPTOR|52=20250613-15:15:33.535|56=TEST_INITIATOR|45=259|58=Tag not defined for this message type, field=65|371=65|372=V|373=2|10=197|8=FIX.4.4|9=149|35=3|34=261|49=TEST_ACCEPTOR|52=20250613-15:15:33.535|56=TEST_INITIATOR|45=260|58=Tag not defined for this message type, field=65|371=65|372=V|373=2|10=190|8=FIX.4.4|9=149|35=3|34=262|49=TEST_ACCEPTOR|52=20250613-15:15:33.535|56=TEST_INITIATOR|45=261|58=Tag not defined for this message type, field=65|371=65|372=V|373=2|10=192|8=FIX.4.4|9=149|35=3|34=263|49=TEST_ACCEPTOR|52=20250613-15:15:33.535|56=TEST_INITIATOR|45=262|58=Tag not defined for this message type, field=65|371=65|372=V|373=2|10=194|8=FIX.4.4|9=149|35=3|34=264|49=TEST_ACCEPTOR|52=20250613-15:15:33.535|56=TEST_INITIATOR|45=263|58=Tag not defined for this message type, field=65|371=65|372=V|373=2|10=196|8=FIX.4.4|9=149|35=3|34=265|49=TEST_ACCEPTOR|52=20250613-15:15:33.535|56=TEST_INITIATOR|45=264|58=Tag not defined for this message type, field=65|371=65|372=V|373=2|10=198|8=FIX.4.4|9=149|35=3|34=266|49=TEST_ACCEPTOR|52=20250613-15:15:33.535|56=TEST_INITIATOR|45=265|58=Tag not defined for this message type, field=65|371=65|372=V|373=2|10=200|8=FIX.4.4|9=149|35=3|34=267|49=TEST_ACCEPTOR|52=20250613-15:15:33.535|56=TEST_INITIATOR|45=266|58=Tag not defined for this message type, field=65|371=65|372=V|373=2|10=202|8=FIX.4.4|9=149|35=3|34=268|49=TEST_ACCEPTOR|52=20250613-15:15:33.535|56=TEST_INITIATOR|45=267|58=Tag not defined for this message type, field=65|371=65|372=V|373=2|10=204|8=FIX.4.4|9=149|35=3|34=269|49=TEST_ACCEPTOR|52=20250613-15:15:33.535|56=TEST_INITIATOR|45=268|58=Tag not defined for this message type, field=65|371=65|372=V|373=2|10=206|8=FIX.4.4|9=149|35=3|34=270|49=TEST_ACCEPTOR|52=20250613-15:15:33.535|56=TEST_INITIATOR|45=269|58=Tag not defined for this message type, field=65|371=65|372=V|373=2|10=199|8=FIX.4.4|9=149|35=3|34=271|49=TEST_ACCEPTOR|52=20250613-15:15:33.536|56=TEST_INITIATOR|45=270|58=Tag not defined for this message type, field=65|371=65|372=V|373=2|10=193|8=FIX.4.4|9=149|35=3|34=272|49=TEST_ACCEPTOR|52=20250613-15:15:33.536|56=TEST_INITIATOR|45=271|58=Tag not defined for this message type, field=65|371=65|372=V|373=2|10=195|8=FIX.4.4|9=149|35=3|34=273|49=TEST_ACCEPTOR|52=20250613-15:15:33.536|56=TEST_INITIATOR|45=272|58=Tag not defined for this message type, field=65|371=65|372=V|373=2|10=197|8=FIX.4.4|9=149|35=3|34=274|49=TEST_ACCEPTOR|52=20250613-15:15:33.536|56=TEST_INITIATOR|45=273|58=Tag not defined for this message type, field=65|371=65|372=V|373=2|10=199|8=FIX.4.4|9=149|35=3|34=275|49=TEST_ACCEPTOR|52=20250613-15:15:33.536|56=TEST_INITIATOR|45=274|58=Tag not defined for this message type, field=65|371=65|372=V|373=2|10=201|8=FIX.4.4|9=149|35=3|34=276|49=TEST_ACCEPTOR|52=20250613-15:15:33.536|56=TEST_INITIATOR|45=275|58=Tag not defined for this message type, field=65|371=65|372=V|373=2|10=203|8=FIX.4.4|9=149|35=3|34=277|49=TEST_ACCEPTOR|52=20250613-15:15:33.536|56=TEST_INITIATOR|45=276|58=Tag not defined for this message type, field=65|371=65|372=V|373=2|10=205|8=FIX.4.4|9=149|35=3|34=278|49=TEST_ACCEPTOR|52=20250613-15:15:33.536|56=TEST_INITIATOR|45=277|58=Tag not defined for this message type, field=65|371=65|372=V|373=2|10=207|8=FIX.4.4|9=149|35=3|34=279|49=TEST_ACCEPTOR|52=20250613-15:15:33.536|56=TEST_INITIATOR|45=278|58=Tag not defined for this message type, field=65|371=65|372=V|373=2|10=209|8=FIX.4.4|9=149|35=3|34=280|49=TEST_ACCEPTOR|52=20250613-15:15:33.537|56=TEST_INITIATOR|45=279|58=Tag not defined for this message type, field=65|371=65|372=V|373=2|10=203|8=FIX.4.4|9=149|35=3|34=281|49=TEST_ACCEPTOR|52=20250613-15:15:33.537|56=TEST_INITIATOR|45=280|58=Tag not defined for this message type, field=65|371=65|372=V|373=2|10=196|8=FIX.4.4|9=149|35=3|34=282|49=TEST_ACCEPTOR|52=20250613-15:15:33.537|56=TEST_INITIATOR|45=281|58=Tag not defined for this message type, field=65|371=65|372=V|373=2|10=198|8=FIX.4.4|9=149|35=3|34=283|49=TEST_ACCEPTOR|52=20250613-15:15:33.537|56=TEST_INITIATOR|45=282|58=Tag not defined for this message type, field=65|371=65|372=V|373=2|10=200|8=FIX.4.4|9=149|35=3|34=284|49=TEST_ACCEPTOR|52=20250613-15:15:33.537|56=TEST_INITIATOR|45=283|58=Tag not defined for this message type, field=65|371=65|372=V|373=2|10=202|8=FIX.4.4|9=149|35=3|34=285|49=TEST_ACCEPTOR|52=20250613-15:15:33.537|56=TEST_INITIATOR|45=284|58=Tag not defined for this message type, field=65|371=65|372=V|373=2|10=204|8=FIX.4.4|9=149|35=3|34=286|49=TEST_ACCEPTOR|52=20250613-15:15:33.537|56=TEST_INITIATOR|45=285|58=Tag not defined for this message type, field=65|371=65|372=V|373=2|10=206|8=FIX.4.4|9=149|35=3|34=287|49=TEST_ACCEPTOR|52=20250613-15:15:33.537|56=TEST_INITIATOR|45=286|58=Tag not defined for this message type, field=65|371=65|372=V|373=2|10=208|8=FIX.4.4|9=149|35=3|34=288|49=TEST_ACCEPTOR|52=20250613-15:15:33.537|56=TEST_INITIATOR|45=287|58=Tag not defined for this message type, field=65|371=65|372=V|373=2|10=210|8=FIX.4.4|9=149|35=3|34=289|49=TEST_ACCEPTOR|52=20250613-15:15:33.537|56=TEST_INITIATOR|45=288|58=Tag not defined for this message type, field=65|371=65|372=V|373=2|10=212|8=FIX.4.4|9=149|35=3|34=290|49=TEST_ACCEPTOR|52=20250613-15:15:33.538|56=TEST_INITIATOR|45=289|58=Tag not defined for this message type, field=65|371=65|372=V|373=2|10=206|8=FIX.4.4|9=149|35=3|34=291|49=TEST_ACCEPTOR|52=20250613-15:15:33.538|56=TEST_INITIATOR|45=290|58=Tag not defined for this message type, field=65|371=65|372=V|373=2|10=199|8=FIX.4.4|9=149|35=3|34=292|49=TEST_ACCEPTOR|52=20250613-15:15:33.538|56=TEST_INITIATOR|45=291|58=Tag not defined for this message type, field=65|371=65|372=V|373=2|10=201|8=FIX.4.4|9=149|35=3|34=293|49=TEST_ACCEPTOR|52=20250613-15:15:33.538|56=TEST_INITIATOR|45=292|58=Tag not defined for this message type, field=65|371=65|372=V|373=2|10=203|8=FIX.4.4|9=149|35=3|34=294|49=TEST_ACCEPTOR|52=20250613-15:15:33.538|56=TEST_INITIATOR|45=293|58=Tag not defined for this message type, field=65|371=65|372=V|373=2|10=205|8=FIX.4.4|9=149|35=3|34=295|49=TEST_ACCEPTOR|52=20250613-15:15:33.539|56=TEST_INITIATOR|45=294|58=Tag not defined for this message type, field=65|371=65|372=V|373=2|10=208|8=FIX.4.4|9=149|35=3|34=296|49=TEST_ACCEPTOR|52=20250613-15:15:33.539|56=TEST_INITIATOR|45=295|58=Tag not defined for this message type, field=65|371=65|372=V|373=2|10=210|8=FIX.4.4|9=149|35=3|34=297|49=TEST_ACCEPTOR|52=20250613-15:15:33.539|56=TEST_INITIATOR|45=296|58=Tag not defined for this message type, field=65|371=65|372=V|373=2|10=212|8=FIX.4.4|9=149|35=3|34=298|49=TEST_ACCEPTOR|52=20250613-15:15:33.539|56=TEST_INITIATOR|45=297|58=Tag not defined for this message type, field=65|371=65|372=V|373=2|10=214|8=FIX.4.4|9=149|35=3|34=299|49=TEST_ACCEPTOR|52=20250613-15:15:33.539|56=TEST_INITIATOR|45=298|58=Tag not defined for this message type, field=65|371=65|372=V|373=2|10=216|8=FIX.4.4|9=149|35=3|34=300|49=TEST_ACCEPTOR|52=20250613-15:15:33.539|56=TEST_INITIATOR|45=299|58=Tag not defined for this message type, field=65|371=65|372=V|373=2|10=200|8=FIX.4.4|9=149|35=3|34=301|49=TEST_ACCEPTOR|52=20250613-15:15:33.539|56=TEST_INITIATOR|45=300|58=Tag not defined for this message type, field=65|371=65|372=V|373=2|10=184|8=FIX.4.4|9=149|35=3|34=302|49=TEST_ACCEPTOR|52=20250613-15:15:33.539|56=TEST_INITIATOR|45=301|58=Tag not defined for this message type, field=65|371=65|372=V|373=2|10=186|8=FIX.4.4|9=149|35=3|34=303|49=TEST_ACCEPTOR|52=20250613-15:15:33.539|56=TEST_INITIATOR|45=302|58=Tag not defined for this message type, field=65|371=65|372=V|373=2|10=188|8=FIX.4.4|9=149|35=3|34=304|49=TEST_ACCEPTOR|52=20250613-15:15:33.539|56=TEST_INITIATOR|45=303|58=Tag not defined for this message type, field=65|371=65|372=V|373=2|10=190|8=FIX.4.4|9=149|35=3|34=305|49=TEST_ACCEPTOR|52=20250613-15:15:33.540|56=TEST_INITIATOR|45=304|58=Tag not defined for this message type, field=65|371=65|372=V|373=2|10=184|8=FIX.4.4|9=149|35=3|34=306|49=TEST_ACCEPTOR|52=20250613-15:15:33.540|56=TEST_INITIATOR|45=305|58=Tag not defined for this message type, field=65|371=65|372=V|373=2|10=186|8=FIX.4.4|9=149|35=3|34=307|49=TEST_ACCEPTOR|52=20250613-15:15:33.540|56=TEST_INITIATOR|45=306|58=Tag not defined for this message type, field=65|371=65|372=V|373=2|10=188|8=FIX.4.4|9=149|35=3|34=308|49=TEST_ACCEPTOR|52=20250613-15:15:33.540|56=TEST_INITIATOR|45=307|58=Tag not defined for this message type, field=65|371=65|372=V|373=2|10=190|8=FIX.4.4|9=149|35=3|34=309|49=TEST_ACCEPTOR|52=20250613-15:15:33.540|56=TEST_INITIATOR|45=308|58=Tag not defined for this message type, field=65|371=65|372=V|373=2|10=192|8=FIX.4.4|9=149|35=3|34=310|49=TEST_ACCEPTOR|52=20250613-15:15:33.540|56=TEST_INITIATOR|45=309|58=Tag not defined for this message type, field=65|371=65|372=V|373=2|10=185|8=FIX.4.4|9=149|35=3|34=311|49=TEST_ACCEPTOR|52=20250613-15:15:33.540|56=TEST_INITIATOR|45=310|58=Tag not defined for this message type, field=65|371=65|372=V|373=2|10=178|8=FIX.4.4|9=149|35=3|34=312|49=TEST_ACCEPTOR|52=20250613-15:15:33.540|56=TEST_INITIATOR|45=311|58=Tag not defined for this message type, field=65|371=65|372=V|373=2|10=180|8=FIX.4.4|9=149|35=3|34=313|49=TEST_ACCEPTOR|52=20250613-15:15:33.540|56=TEST_INITIATOR|45=312|58=Tag not defined for this message type, field=65|371=65|372=V|373=2|10=182|8=FIX.4.4|9=149|35=3|34=314|49=TEST_ACCEPTOR|52=20250613-15:15:33.540|56=TEST_INITIATOR|45=313|58=Tag not defined for this message type, field=65|371=65|372=V|373=2|10=184|8=FIX.4.4|9=149|35=3|34=315|49=TEST_ACCEPTOR|52=20250613-15:15:33.541|56=TEST_INITIATOR|45=314|58=Tag not defined for this message type, field=65|371=65|372=V|373=2|10=187|8=FIX.4.4|9=149|35=3|34=316|49=TEST_ACCEPTOR|52=20250613-15:15:33.541|56=TEST_INITIATOR|45=315|58=Tag not defined for this message type, field=65|371=65|372=V|373=2|10=189|8=FIX.4.4|9=149|35=3|34=317|49=TEST_ACCEPTOR|52=20250613-15:15:33.541|56=TEST_INITIATOR|45=316|58=Tag not defined for this message type, field=65|371=65|372=V|373=2|10=191|8=FIX.4.4|9=149|35=3|34=318|49=TEST_ACCEPTOR|52=20250613-15:15:33.541|56=TEST_INITIATOR|45=317|58=Tag not defined for this message type, field=65|371=65|372=V|373=2|10=193|8=FIX.4.4|9=149|35=3|34=319|49=TEST_ACCEPTOR|52=20250613-15:15:33.541|56=TEST_INITIATOR|45=318|58=Tag not defined for this message type, field=65|371=65|372=V|373=2|10=195|8=FIX.4.4|9=149|35=3|34=320|49=TEST_ACCEPTOR|52=20250613-15:15:33.541|56=TEST_INITIATOR|45=319|58=Tag not defined for this message type, field=65|371=65|372=V|373=2|10=188|8=FIX.4.4|9=149|35=3|34=321|49=TEST_ACCEPTOR|52=20250613-15:15:33.541|56=TEST_INITIATOR|45=320|58=Tag not defined for this message type, field=65|371=65|372=V|373=2|10=181|8=FIX.4.4|9=149|35=3|34=322|49=TEST_ACCEPTOR|52=20250613-15:15:33.541|56=TEST_INITIATOR|45=321|58=Tag not defined for this message type, field=65|371=65|372=V|373=2|10=183|8=FIX.4.4|9=149|35=3|34=323|49=TEST_ACCEPTOR|52=20250613-15:15:33.541|56=TEST_INITIATOR|45=322|58=Tag not defined for this message type, field=65|371=65|372=V|373=2|10=185|8=FIX.4.4|9=149|35=3|34=324|49=TEST_ACCEPTOR|52=20250613-15:15:33.541|56=TEST_INITIATOR|45=323|58=Tag not defined for this message type, field=65|371=65|372=V|373=2|10=187|8=FIX.4.4|9=149|35=3|34=325|49=TEST_ACCEPTOR|52=20250613-15:15:33.541|56=TEST_INITIATOR|45=324|58=Tag not defined for this message type, field=65|371=65|372=V|373=2|10=189|8=FIX.4.4|9=149|35=3|34=326|49=TEST_ACCEPTOR|52=20250613-15:15:33.541|56=TEST_INITIATOR|45=325|58=Tag not defined for this message type, field=65|371=65|372=V|373=2|10=191|8=FIX.4.4|9=149|35=3|34=327|49=TEST_ACCEPTOR|52=20250613-15:15:33.542|56=TEST_INITIATOR|45=326|58=Tag not defined for this message type, field=65|371=65|372=V|373=2|10=194|8=FIX.4.4|9=149|35=3|34=328|49=TEST_ACCEPTOR|52=20250613-15:15:33.542|56=TEST_INITIATOR|45=327|58=Tag not defined for this message type, field=65|371=65|372=V|373=2|10=196|8=FIX.4.4|9=149|35=3|34=329|49=TEST_ACCEPTOR|52=20250613-15:15:33.542|56=TEST_INITIATOR|45=328|58=Tag not defined for this message type, field=65|371=65|372=V|373=2|10=198|8=FIX.4.4|9=149|35=3|34=330|49=TEST_ACCEPTOR|52=20250613-15:15:33.542|56=TEST_INITIATOR|45=329|58=Tag not defined for this message type, field=65|371=65|372=V|373=2|10=191|8=FIX.4.4|9=149|35=3|34=331|49=TEST_ACCEPTOR|52=20250613-15:15:33.542|56=TEST_INITIATOR|45=330|58=Tag not defined for this message type, field=65|371=65|372=V|373=2|10=184|8=FIX.4.4|9=149|35=3|34=332|49=TEST_ACCEPTOR|52=20250613-15:15:33.542|56=TEST_INITIATOR|45=331|58=Tag not defined for this message type, field=65|371=65|372=V|373=2|10=186|8=FIX.4.4|9=149|35=3|34=333|49=TEST_ACCEPTOR|52=20250613-15:15:33.542|56=TEST_INITIATOR|45=332|58=Tag not defined for this message type, field=65|371=65|372=V|373=2|10=188|8=FIX.4.4|9=149|35=3|34=334|49=TEST_ACCEPTOR|52=20250613-15:15:33.542|56=TEST_INITIATOR|45=333|58=Tag not defined for this message type, field=65|371=65|372=V|373=2|10=190|8=FIX.4.4|9=149|35=3|34=335|49=TEST_ACCEPTOR|52=20250613-15:15:33.542|56=TEST_INITIATOR|45=334|58=Tag not defined for this message type, field=65|371=65|372=V|373=2|10=192|8=FIX.4.4|9=149|35=3|34=336|49=TEST_ACCEPTOR|52=20250613-15:15:33.542|56=TEST_INITIATOR|45=335|58=Tag not defined for this message type, field=65|371=65|372=V|373=2|10=194|8=FIX.4.4|9=149|35=3|34=337|49=TEST_ACCEPTOR|52=20250613-15:15:33.543|56=TEST_INITIATOR|45=336|58=Tag not defined for this message type, field=65|371=65|372=V|373=2|10=197|8=FIX.4.4|9=149|35=3|34=338|49=TEST_ACCEPTOR|52=20250613-15:15:33.543|56=TEST_INITIATOR|45=337|58=Tag not defined for this message type, field=65|371=65|372=V|373=2|10=199|8=FIX.4.4|9=149|35=3|34=339|49=TEST_ACCEPTOR|52=20250613-15:15:33.543|56=TEST_INITIATOR|45=338|58=Tag not defined for this message type, field=65|371=65|372=V|373=2|10=201|8=FIX.4.4|9=149|35=3|34=340|49=TEST_ACCEPTOR|52=20250613-15:15:33.543|56=TEST_INITIATOR|45=339|58=Tag not defined for this message type, field=65|371=65|372=V|373=2|10=194|8=FIX.4.4|9=149|35=3|34=341|49=TEST_ACCEPTOR|52=20250613-15:15:33.543|56=TEST_INITIATOR|45=340|58=Tag not defined for this message type, field=65|371=65|372=V|373=2|10=187|8=FIX.4.4|9=149|35=3|34=342|49=TEST_ACCEPTOR|52=20250613-15:15:33.543|56=TEST_INITIATOR|45=341|58=Tag not defined for this message type, field=65|371=65|372=V|373=2|10=189|8=FIX.4.4|9=149|35=3|34=343|49=TEST_ACCEPTOR|52=20250613-15:15:33.543|56=TEST_INITIATOR|45=342|58=Tag not defined for this message type, field=65|371=65|372=V|373=2|10=191|8=FIX.4.4|9=149|35=3|34=344|49=TEST_ACCEPTOR|52=20250613-15:15:33.543|56=TEST_INITIATOR|45=343|58=Tag not defined for this message type, field=65|371=65|372=V|373=2|10=193|8=FIX.4.4|9=149|35=3|34=345|49=TEST_ACCEPTOR|52=20250613-15:15:33.543|56=TEST_INITIATOR|45=344|58=Tag not defined for this message type, field=65|371=65|372=V|373=2|10=195|8=FIX.4.4|9=149|35=3|34=346|49=TEST_ACCEPTOR|52=20250613-15:15:33.543|56=TEST_INITIATOR|45=345|58=Tag not defined for this message type, field=65|371=65|372=V|373=2|10=197|8=FIX.4.4|9=149|35=3|34=347|49=TEST_ACCEPTOR|52=20250613-15:15:33.544|56=TEST_INITIATOR|45=346|58=Tag not defined for this message type, field=65|371=65|372=V|373=2|10=200|8=FIX.4.4|9=149|35=3|34=348|49=TEST_ACCEPTOR|52=20250613-15:15:33.544|56=TEST_INITIATOR|45=347|58=Tag not defined for this message type, field=65|371=65|372=V|373=2|10=202|8=FIX.4.4|9=149|35=3|34=349|49=TEST_ACCEPTOR|52=20250613-15:15:33.544|56=TEST_INITIATOR|45=348|58=Tag not defined for this message type, field=65|371=65|372=V|373=2|10=204|8=FIX.4.4|9=149|35=3|34=350|49=TEST_ACCEPTOR|52=20250613-15:15:33.544|56=TEST_INITIATOR|45=349|58=Tag not defined for this message type, field=65|371=65|372=V|373=2|10=197|8=FIX.4.4|9=149|35=3|34=351|49=TEST_ACCEPTOR|52=20250613-15:15:33.544|56=TEST_INITIATOR|45=350|58=Tag not defined for this message type, field=65|371=65|372=V|373=2|10=190|8=FIX.4.4|9=149|35=3|34=352|49=TEST_ACCEPTOR|52=20250613-15:15:33.544|56=TEST_INITIATOR|45=351|58=Tag not defined for this message type, field=65|371=65|372=V|373=2|10=192|8=FIX.4.4|9=149|35=3|34=353|49=TEST_ACCEPTOR|52=20250613-15:15:33.544|56=TEST_INITIATOR|45=352|58=Tag not defined for this message type, field=65|371=65|372=V|373=2|10=194|8=FIX.4.4|9=149|35=3|34=354|49=TEST_ACCEPTOR|52=20250613-15:15:33.544|56=TEST_INITIATOR|45=353|58=Tag not defined for this message type, field=65|371=65|372=V|373=2|10=196|8=FIX.4.4|9=149|35=3|34=355|49=TEST_ACCEPTOR|52=20250613-15:15:33.544|56=TEST_INITIATOR|45=354|58=Tag not defined for this message type, field=65|371=65|372=V|373=2|10=198|8=FIX.4.4|9=149|35=3|34=356|49=TEST_ACCEPTOR|52=20250613-15:15:33.544|56=TEST_INITIATOR|45=355|58=Tag not defined for this message type, field=65|371=65|372=V|373=2|10=200|8=FIX.4.4|9=149|35=3|34=357|49=TEST_ACCEPTOR|52=20250613-15:15:33.544|56=TEST_INITIATOR|45=356|58=Tag not defined for this message type, field=65|371=65|372=V|373=2|10=202|8=FIX.4.4|9=149|35=3|34=358|49=TEST_ACCEPTOR|52=20250613-15:15:33.544|56=TEST_INITIATOR|45=357|58=Tag not defined for this message type, field=65|371=65|372=V|373=2|10=204|8=FIX.4.4|9=149|35=3|34=359|49=TEST_ACCEPTOR|52=20250613-15:15:33.545|56=TEST_INITIATOR|45=358|58=Tag not defined for this message type, field=65|371=65|372=V|373=2|10=207|8=FIX.4.4|9=149|35=3|34=360|49=TEST_ACCEPTOR|52=20250613-15:15:33.545|56=TEST_INITIATOR|45=359|58=Tag not defined for this message type, field=65|371=65|372=V|373=2|10=200|8=FIX.4.4|9=149|35=3|34=361|49=TEST_ACCEPTOR|52=20250613-15:15:33.545|56=TEST_INITIATOR|45=360|58=Tag not defined for this message type, field=65|371=65|372=V|373=2|10=193|8=FIX.4.4|9=149|35=3|34=362|49=TEST_ACCEPTOR|52=20250613-15:15:33.545|56=TEST_INITIATOR|45=361|58=Tag not defined for this message type, field=65|371=65|372=V|373=2|10=195|8=FIX.4.4|9=149|35=3|34=363|49=TEST_ACCEPTOR|52=20250613-15:15:33.545|56=TEST_INITIATOR|45=362|58=Tag not defined for this message type, field=65|371=65|372=V|373=2|10=197|8=FIX.4.4|9=149|35=3|34=364|49=TEST_ACCEPTOR|52=20250613-15:15:33.545|56=TEST_INITIATOR|45=363|58=Tag not defined for this message type, field=65|371=65|372=V|373=2|10=199|8=FIX.4.4|9=149|35=3|34=365|49=TEST_ACCEPTOR|52=20250613-15:15:33.545|56=TEST_INITIATOR|45=364|58=Tag not defined for this message type, field=65|371=65|372=V|373=2|10=201|8=FIX.4.4|9=149|35=3|34=366|49=TEST_ACCEPTOR|52=20250613-15:15:33.545|56=TEST_INITIATOR|45=365|58=Tag not defined for this message type, field=65|371=65|372=V|373=2|10=203|8=FIX.4.4|9=149|35=3|34=367|49=TEST_ACCEPTOR|52=20250613-15:15:33.545|56=TEST_INITIATOR|45=366|58=Tag not defined for this message type, field=65|371=65|372=V|373=2|10=205|8=FIX.4.4|9=149|35=3|34=368|49=TEST_ACCEPTOR|52=20250613-15:15:33.545|56=TEST_INITIATOR|45=367|58=Tag not defined for this message type, field=65|371=65|372=V|373=2|10=207|8=FIX.4.4|9=149|35=3|34=369|49=TEST_ACCEPTOR|52=20250613-15:15:33.545|56=TEST_INITIATOR|45=368|58=Tag not defined for this message type, field=65|371=65|372=V|373=2|10=209|8=FIX.4.4|9=149|35=3|34=370|49=TEST_ACCEPTOR|52=20250613-15:15:33.546|56=TEST_INITIATOR|45=369|58=Tag not defined for this message type, field=65|371=65|372=V|373=2|10=203|8=FIX.4.4|9=149|35=3|34=371|49=TEST_ACCEPTOR|52=20250613-15:15:33.546|56=TEST_INITIATOR|45=370|58=Tag not defined for this message type, field=65|371=65|372=V|373=2|10=196|8=FIX.4.4|9=149|35=3|34=372|49=TEST_ACCEPTOR|52=20250613-15:15:33.546|56=TEST_INITIATOR|45=371|58=Tag not defined for this message type, field=65|371=65|372=V|373=2|10=198|8=FIX.4.4|9=149|35=3|34=373|49=TEST_ACCEPTOR|52=20250613-15:15:33.546|56=TEST_INITIATOR|45=372|58=Tag not defined for this message type, field=65|371=65|372=V|373=2|10=200|8=FIX.4.4|9=149|35=3|34=374|49=TEST_ACCEPTOR|52=20250613-15:15:33.546|56=TEST_INITIATOR|45=373|58=Tag not defined for this message type, field=65|371=65|372=V|373=2|10=202|8=FIX.4.4|9=149|35=3|34=375|49=TEST_ACCEPTOR|52=20250613-15:15:33.546|56=TEST_INITIATOR|45=374|58=Tag not defined for this message type, field=65|371=65|372=V|373=2|10=204|8=FIX.4.4|9=149|35=3|34=376|49=TEST_ACCEPTOR|52=20250613-15:15:33.546|56=TEST_INITIATOR|45=375|58=Tag not defined for this message type, field=65|371=65|372=V|373=2|10=206|8=FIX.4.4|9=149|35=3|34=377|49=TEST_ACCEPTOR|52=20250613-15:15:33.546|56=TEST_INITIATOR|45=376|58=Tag not defined for this message type, field=65|371=65|372=V|373=2|10=208|8=FIX.4.4|9=149|35=3|34=378|49=TEST_ACCEPTOR|52=20250613-15:15:33.546|56=TEST_INITIATOR|45=377|58=Tag not defined for this message type, field=65|371=65|372=V|373=2|10=210|8=FIX.4.4|9=149|35=3|34=379|49=TEST_ACCEPTOR|52=20250613-15:15:33.546|56=TEST_INITIATOR|45=378|58=Tag not defined for this message type, field=65|371=65|372=V|373=2|10=212|8=FIX.4.4|9=149|35=3|34=380|49=TEST_ACCEPTOR|52=20250613-15:15:33.546|56=TEST_INITIATOR|45=379|58=Tag not defined for this message type, field=65|371=65|372=V|373=2|10=205|8=FIX.4.4|9=149|35=3|34=381|49=TEST_ACCEPTOR|52=20250613-15:15:33.546|56=TEST_INITIATOR|45=380|58=Tag not defined for this message type, field=65|371=65|372=V|373=2|10=198|8=FIX.4.4|9=149|35=3|34=382|49=TEST_ACCEPTOR|52=20250613-15:15:33.546|56=TEST_INITIATOR|45=381|58=Tag not defined for this message type, field=65|371=65|372=V|373=2|10=200|8=FIX.4.4|9=149|35=3|34=383|49=TEST_ACCEPTOR|52=20250613-15:15:33.547|56=TEST_INITIATOR|45=382|58=Tag not defined for this message type, field=65|371=65|372=V|373=2|10=203|8=FIX.4.4|9=149|35=3|34=384|49=TEST_ACCEPTOR|52=20250613-15:15:33.547|56=TEST_INITIATOR|45=383|58=Tag not defined for this message type, field=65|371=65|372=V|373=2|10=205|8=FIX.4.4|9=149|35=3|34=385|49=TEST_ACCEPTOR|52=20250613-15:15:33.547|56=TEST_INITIATOR|45=384|58=Tag not defined for this message type, field=65|371=65|372=V|373=2|10=207|8=FIX.4.4|9=149|35=3|34=386|49=TEST_ACCEPTOR|52=20250613-15:15:33.547|56=TEST_INITIATOR|45=385|58=Tag not defined for this message type, field=65|371=65|372=V|373=2|10=209|8=FIX.4.4|9=149|35=3|34=387|49=TEST_ACCEPTOR|52=20250613-15:15:33.547|56=TEST_INITIATOR|45=386|58=Tag not defined for this message type, field=65|371=65|372=V|373=2|10=211|8=FIX.4.4|9=149|35=3|34=388|49=TEST_ACCEPTOR|52=20250613-15:15:33.547|56=TEST_INITIATOR|45=387|58=Tag not defined for this message type, field=65|371=65|372=V|373=2|10=213|8=FIX.4.4|9=149|35=3|34=389|49=TEST_ACCEPTOR|52=20250613-15:15:33.547|56=TEST_INITIATOR|45=388|58=Tag not defined for this message type, field=65|371=65|372=V|373=2|10=215|8=FIX.4.4|9=149|35=3|34=390|49=TEST_ACCEPTOR|52=20250613-15:15:33.547|56=TEST_INITIATOR|45=389|58=Tag not defined for this message type, field=65|371=65|372=V|373=2|10=208|8=FIX.4.4|9=149|35=3|34=391|49=TEST_ACCEPTOR|52=20250613-15:15:33.547|56=TEST_INITIATOR|45=390|58=Tag not defined for this message type, field=65|371=65|372=V|373=2|10=201|8=FIX.4.4|9=149|35=3|34=392|49=TEST_ACCEPTOR|52=20250613-15:15:33.547|56=TEST_INITIATOR|45=391|58=Tag not defined for this message type, field=65|371=65|372=V|373=2|10=203|8=FIX.4.4|9=149|35=3|34=393|49=TEST_ACCEPTOR|52=20250613-15:15:33.547|56=TEST_INITIATOR|45=392|58=Tag not defined for this message type, field=65|371=65|372=V|373=2|10=205|8=FIX.4.4|9=149|35=3|34=394|49=TEST_ACCEPTOR|52=20250613-15:15:33.547|56=TEST_INITIATOR|45=393|58=Tag not defined for this message type, field=65|371=65|372=V|373=2|10=207|8=FIX.4.4|9=149|35=3|34=395|49=TEST_ACCEPTOR|52=20250613-15:15:33.547|56=TEST_INITIATOR|45=394|58=Tag not defined for this message type, field=65|371=65|372=V|373=2|10=209|8=FIX.4.4|9=149|35=3|34=396|49=TEST_ACCEPTOR|52=20250613-15:15:33.548|56=TEST_INITIATOR|45=395|58=Tag not defined for this message type, field=65|371=65|372=V|373=2|10=212|8=FIX.4.4|9=149|35=3|34=397|49=TEST_ACCEPTOR|52=20250613-15:15:33.548|56=TEST_INITIATOR|45=396|58=Tag not defined for this message type, field=65|371=65|372=V|373=2|10=214|8=FIX.4.4|9=149|35=3|34=398|49=TEST_ACCEPTOR|52=20250613-15:15:33.548|56=TEST_INITIATOR|45=397|58=Tag not defined for this message type, field=65|371=65|372=V|373=2|10=216|8=FIX.4.4|9=149|35=3|34=399|49=TEST_ACCEPTOR|52=20250613-15:15:33.548|56=TEST_INITIATOR|45=398|58=Tag not defined for this message type, field=65|371=65|372=V|373=2|10=218|8=FIX.4.4|9=149|35=3|34=400|49=TEST_ACCEPTOR|52=20250613-15:15:33.548|56=TEST_INITIATOR|45=399|58=Tag not defined for this message type, field=65|371=65|372=V|373=2|10=202|8=FIX.4.4|9=149|35=3|34=401|49=TEST_ACCEPTOR|52=20250613-15:15:33.548|56=TEST_INITIATOR|45=400|58=Tag not defined for this message type, field=65|371=65|372=V|373=2|10=186|8=FIX.4.4|9=149|35=3|34=402|49=TEST_ACCEPTOR|52=20250613-15:15:33.548|56=TEST_INITIATOR|45=401|58=Tag not defined for this message type, field=65|371=65|372=V|373=2|10=188|8=FIX.4.4|9=149|35=3|34=403|49=TEST_ACCEPTOR|52=20250613-15:15:33.548|56=TEST_INITIATOR|45=402|58=Tag not defined for this message type, field=65|371=65|372=V|373=2|10=190|8=FIX.4.4|9=149|35=3|34=404|49=TEST_ACCEPTOR|52=20250613-15:15:33.548|56=TEST_INITIATOR|45=403|58=Tag not defined for this message type, field=65|371=65|372=V|373=2|10=192|8=FIX.4.4|9=149|35=3|34=405|49=TEST_ACCEPTOR|52=20250613-15:15:33.548|56=TEST_INITIATOR|45=404|58=Tag not defined for this message type, field=65|371=65|372=V|373=2|10=194|8=FIX.4.4|9=149|35=3|34=406|49=TEST_ACCEPTOR|52=20250613-15:15:33.548|56=TEST_INITIATOR|45=405|58=Tag not defined for this message type, field=65|371=65|372=V|373=2|10=196|8=FIX.4.4|9=149|35=3|34=407|49=TEST_ACCEPTOR|52=20250613-15:15:33.548|56=TEST_INITIATOR|45=406|58=Tag not defined for this message type, field=65|371=65|372=V|373=2|10=198|8=FIX.4.4|9=149|35=3|34=408|49=TEST_ACCEPTOR|52=20250613-15:15:33.548|56=TEST_INITIATOR|45=407|58=Tag not defined for this message type, field=65|371=65|372=V|373=2|10=200|8=FIX.4.4|9=149|35=3|34=409|49=TEST_ACCEPTOR|52=20250613-15:15:33.549|56=TEST_INITIATOR|45=408|58=Tag not defined for this message type, field=65|371=65|372=V|373=2|10=203|8=FIX.4.4|9=149|35=3|34=410|49=TEST_ACCEPTOR|52=20250613-15:15:33.549|56=TEST_INITIATOR|45=409|58=Tag not defined for this message type, field=65|371=65|372=V|373=2|10=196|8=FIX.4.4|9=149|35=3|34=411|49=TEST_ACCEPTOR|52=20250613-15:15:33.549|56=TEST_INITIATOR|45=410|58=Tag not defined for this message type, field=65|371=65|372=V|373=2|10=189|8=FIX.4.4|9=149|35=3|34=412|49=TEST_ACCEPTOR|52=20250613-15:15:33.549|56=TEST_INITIATOR|45=411|58=Tag not defined for this message type, field=65|371=65|372=V|373=2|10=191|8=FIX.4.4|9=149|35=3|34=413|49=TEST_ACCEPTOR|52=20250613-15:15:33.549|56=TEST_INITIATOR|45=412|58=Tag not defined for this message type, field=65|371=65|372=V|373=2|10=193|8=FIX.4.4|9=149|35=3|34=414|49=TEST_ACCEPTOR|52=20250613-15:15:33.549|56=TEST_INITIATOR|45=413|58=Tag not defined for this message type, field=65|371=65|372=V|373=2|10=195|8=FIX.4.4|9=149|35=3|34=415|49=TEST_ACCEPTOR|52=20250613-15:15:33.549|56=TEST_INITIATOR|45=414|58=Tag not defined for this message type, field=65|371=65|372=V|373=2|10=197|8=FIX.4.4|9=149|35=3|34=416|49=TEST_ACCEPTOR|52=20250613-15:15:33.549|56=TEST_INITIATOR|45=415|58=Tag not defined for this message type, field=65|371=65|372=V|373=2|10=199|8=FIX.4.4|9=149|35=3|34=417|49=TEST_ACCEPTOR|52=20250613-15:15:33.549|56=TEST_INITIATOR|45=416|58=Tag not defined for this message type, field=65|371=65|372=V|373=2|10=201|8=FIX.4.4|9=149|35=3|34=418|49=TEST_ACCEPTOR|52=20250613-15:15:33.549|56=TEST_INITIATOR|45=417|58=Tag not defined for this message type, field=65|371=65|372=V|373=2|10=203|8=FIX.4.4|9=149|35=3|34=419|49=TEST_ACCEPTOR|52=20250613-15:15:33.549|56=TEST_INITIATOR|45=418|58=Tag not defined for this message type, field=65|371=65|372=V|373=2|10=205|8=FIX.4.4|9=149|35=3|34=420|49=TEST_ACCEPTOR|52=20250613-15:15:33.549|56=TEST_INITIATOR|45=419|58=Tag not defined for this message type, field=65|371=65|372=V|373=2|10=198|8=FIX.4.4|9=149|35=3|34=421|49=TEST_ACCEPTOR|52=20250613-15:15:33.549|56=TEST_INITIATOR|45=420|58=Tag not defined for this message type, field=65|371=65|372=V|373=2|10=191|8=FIX.4.4|9=149|35=3|34=422|49=TEST_ACCEPTOR|52=20250613-15:15:33.550|56=TEST_INITIATOR|45=421|58=Tag not defined for this message type, field=65|371=65|372=V|373=2|10=185|8=FIX.4.4|9=149|35=3|34=423|49=TEST_ACCEPTOR|52=20250613-15:15:33.550|56=TEST_INITIATOR|45=422|58=Tag not defined for this message type, field=65|371=65|372=V|373=2|10=187|8=FIX.4.4|9=149|35=3|34=424|49=TEST_ACCEPTOR|52=20250613-15:15:33.550|56=TEST_INITIATOR|45=423|58=Tag not defined for this message type, field=65|371=65|372=V|373=2|10=189|8=FIX.4.4|9=149|35=3|34=425|49=TEST_ACCEPTOR|52=20250613-15:15:33.550|56=TEST_INITIATOR|45=424|58=Tag not defined for this message type, field=65|371=65|372=V|373=2|10=191|8=FIX.4.4|9=149|35=3|34=426|49=TEST_ACCEPTOR|52=20250613-15:15:33.550|56=TEST_INITIATOR|45=425|58=Tag not defined for this message type, field=65|371=65|372=V|373=2|10=193|8=FIX.4.4|9=149|35=3|34=427|49=TEST_ACCEPTOR|52=20250613-15:15:33.550|56=TEST_INITIATOR|45=426|58=Tag not defined for this message type, field=65|371=65|372=V|373=2|10=195|8=FIX.4.4|9=149|35=3|34=428|49=TEST_ACCEPTOR|52=20250613-15:15:33.550|56=TEST_INITIATOR|45=427|58=Tag not defined for this message type, field=65|371=65|372=V|373=2|10=197|8=FIX.4.4|9=149|35=3|34=429|49=TEST_ACCEPTOR|52=20250613-15:15:33.550|56=TEST_INITIATOR|45=428|58=Tag not defined for this message type, field=65|371=65|372=V|373=2|10=199|8=FIX.4.4|9=149|35=3|34=430|49=TEST_ACCEPTOR|52=20250613-15:15:33.550|56=TEST_INITIATOR|45=429|58=Tag not defined for this message type, field=65|371=65|372=V|373=2|10=192|8=FIX.4.4|9=149|35=3|34=431|49=TEST_ACCEPTOR|52=20250613-15:15:33.550|56=TEST_INITIATOR|45=430|58=Tag not defined for this message type, field=65|371=65|372=V|373=2|10=185|8=FIX.4.4|9=149|35=3|34=432|49=TEST_ACCEPTOR|52=20250613-15:15:33.550|56=TEST_INITIATOR|45=431|58=Tag not defined for this message type, field=65|371=65|372=V|373=2|10=187|8=FIX.4.4|9=149|35=3|34=433|49=TEST_ACCEPTOR|52=20250613-15:15:33.550|56=TEST_INITIATOR|45=432|58=Tag not defined for this message type, field=65|371=65|372=V|373=2|10=189|8=FIX.4.4|9=149|35=3|34=434|49=TEST_ACCEPTOR|52=20250613-15:15:33.550|56=TEST_INITIATOR|45=433|58=Tag not defined for this message type, field=65|371=65|372=V|373=2|10=191|8=FIX.4.4|9=149|35=3|34=435|49=TEST_ACCEPTOR|52=20250613-15:15:33.550|56=TEST_INITIATOR|45=434|58=Tag not defined for this message type, field=65|371=65|372=V|373=2|10=193|8=FIX.4.4|9=149|35=3|34=436|49=TEST_ACCEPTOR|52=20250613-15:15:33.550|56=TEST_INITIATOR|45=435|58=Tag not defined for this message type, field=65|371=65|372=V|373=2|10=195|8=FIX.4.4|9=149|35=3|34=437|49=TEST_ACCEPTOR|52=20250613-15:15:33.551|56=TEST_INITIATOR|45=436|58=Tag not defined for this message type, field=65|371=65|372=V|373=2|10=198|8=FIX.4.4|9=149|35=3|34=438|49=TEST_ACCEPTOR|52=20250613-15:15:33.551|56=TEST_INITIATOR|45=437|58=Tag not defined for this message type, field=65|371=65|372=V|373=2|10=200|8=FIX.4.4|9=149|35=3|34=439|49=TEST_ACCEPTOR|52=20250613-15:15:33.551|56=TEST_INITIATOR|45=438|58=Tag not defined for this message type, field=65|371=65|372=V|373=2|10=202|8=FIX.4.4|9=149|35=3|34=440|49=TEST_ACCEPTOR|52=20250613-15:15:33.551|56=TEST_INITIATOR|45=439|58=Tag not defined for this message type, field=65|371=65|372=V|373=2|10=195|8=FIX.4.4|9=149|35=3|34=441|49=TEST_ACCEPTOR|52=20250613-15:15:33.551|56=TEST_INITIATOR|45=440|58=Tag not defined for this message type, field=65|371=65|372=V|373=2|10=188|8=FIX.4.4|9=149|35=3|34=442|49=TEST_ACCEPTOR|52=20250613-15:15:33.551|56=TEST_INITIATOR|45=441|58=Tag not defined for this message type, field=65|371=65|372=V|373=2|10=190|8=FIX.4.4|9=149|35=3|34=443|49=TEST_ACCEPTOR|52=20250613-15:15:33.551|56=TEST_INITIATOR|45=442|58=Tag not defined for this message type, field=65|371=65|372=V|373=2|10=192|8=FIX.4.4|9=149|35=3|34=444|49=TEST_ACCEPTOR|52=20250613-15:15:33.551|56=TEST_INITIATOR|45=443|58=Tag not defined for this message type, field=65|371=65|372=V|373=2|10=194|8=FIX.4.4|9=149|35=3|34=445|49=TEST_ACCEPTOR|52=20250613-15:15:33.551|56=TEST_INITIATOR|45=444|58=Tag not defined for this message type, field=65|371=65|372=V|373=2|10=196|8=FIX.4.4|9=149|35=3|34=446|49=TEST_ACCEPTOR|52=20250613-15:15:33.551|56=TEST_INITIATOR|45=445|58=Tag not defined for this message type, field=65|371=65|372=V|373=2|10=198|8=FIX.4.4|9=149|35=3|34=447|49=TEST_ACCEPTOR|52=20250613-15:15:33.552|56=TEST_INITIATOR|45=446|58=Tag not defined for this message type, field=65|371=65|372=V|373=2|10=201|8=FIX.4.4|9=149|35=3|34=448|49=TEST_ACCEPTOR|52=20250613-15:15:33.552|56=TEST_INITIATOR|45=447|58=Tag not defined for this message type, field=65|371=65|372=V|373=2|10=203|8=FIX.4.4|9=149|35=3|34=449|49=TEST_ACCEPTOR|52=20250613-15:15:33.552|56=TEST_INITIATOR|45=448|58=Tag not defined for this message type, field=65|371=65|372=V|373=2|10=205|8=FIX.4.4|9=149|35=3|34=450|49=TEST_ACCEPTOR|52=20250613-15:15:33.552|56=TEST_INITIATOR|45=449|58=Tag not defined for this message type, field=65|371=65|372=V|373=2|10=198|8=FIX.4.4|9=149|35=3|34=451|49=TEST_ACCEPTOR|52=20250613-15:15:33.552|56=TEST_INITIATOR|45=450|58=Tag not defined for this message type, field=65|371=65|372=V|373=2|10=191|8=FIX.4.4|9=149|35=3|34=452|49=TEST_ACCEPTOR|52=20250613-15:15:33.552|56=TEST_INITIATOR|45=451|58=Tag not defined for this message type, field=65|371=65|372=V|373=2|10=193|8=FIX.4.4|9=149|35=3|34=453|49=TEST_ACCEPTOR|52=20250613-15:15:33.552|56=TEST_INITIATOR|45=452|58=Tag not defined for this message type, field=65|371=65|372=V|373=2|10=195|8=FIX.4.4|9=149|35=3|34=454|49=TEST_ACCEPTOR|52=20250613-15:15:33.552|56=TEST_INITIATOR|45=453|58=Tag not defined for this message type, field=65|371=65|372=V|373=2|10=197|8=FIX.4.4|9=149|35=3|34=455|49=TEST_ACCEPTOR|52=20250613-15:15:33.552|56=TEST_INITIATOR|45=454|58=Tag not defined for this message type, field=65|371=65|372=V|373=2|10=199|8=FIX.4.4|9=149|35=3|34=456|49=TEST_ACCEPTOR|52=20250613-15:15:33.552|56=TEST_INITIATOR|45=455|58=Tag not defined for this message type, field=65|371=65|372=V|373=2|10=201|8=FIX.4.4|9=149|35=3|34=457|49=TEST_ACCEPTOR|52=20250613-15:15:33.552|56=TEST_INITIATOR|45=456|58=Tag not defined for this message type, field=65|371=65|372=V|373=2|10=203|8=FIX.4.4|9=149|35=3|34=458|49=TEST_ACCEPTOR|52=20250613-15:15:33.552|56=TEST_INITIATOR|45=457|58=Tag not defined for this message type, field=65|371=65|372=V|373=2|10=205|8=FIX.4.4|9=149|35=3|34=459|49=TEST_ACCEPTOR|52=20250613-15:15:33.552|56=TEST_INITIATOR|45=458|58=Tag not defined for this message type, field=65|371=65|372=V|373=2|10=207|8=FIX.4.4|9=149|35=3|34=460|49=TEST_ACCEPTOR|52=20250613-15:15:33.552|56=TEST_INITIATOR|45=459|58=Tag not defined for this message type, field=65|371=65|372=V|373=2|10=200|8=FIX.4.4|9=149|35=3|34=461|49=TEST_ACCEPTOR|52=20250613-15:15:33.553|56=TEST_INITIATOR|45=460|58=Tag not defined for this message type, field=65|371=65|372=V|373=2|10=194|8=FIX.4.4|9=149|35=3|34=462|49=TEST_ACCEPTOR|52=20250613-15:15:33.553|56=TEST_INITIATOR|45=461|58=Tag not defined for this message type, field=65|371=65|372=V|373=2|10=196|8=FIX.4.4|9=149|35=3|34=463|49=TEST_ACCEPTOR|52=20250613-15:15:33.553|56=TEST_INITIATOR|45=462|58=Tag not defined for this message type, field=65|371=65|372=V|373=2|10=198|8=FIX.4.4|9=149|35=3|34=464|49=TEST_ACCEPTOR|52=20250613-15:15:33.553|56=TEST_INITIATOR|45=463|58=Tag not defined for this message type, field=65|371=65|372=V|373=2|10=200|8=FIX.4.4|9=149|35=3|34=465|49=TEST_ACCEPTOR|52=20250613-15:15:33.553|56=TEST_INITIATOR|45=464|58=Tag not defined for this message type, field=65|371=65|372=V|373=2|10=202|8=FIX.4.4|9=149|35=3|34=466|49=TEST_ACCEPTOR|52=20250613-15:15:33.553|56=TEST_INITIATOR|45=465|58=Tag not defined for this message type, field=65|371=65|372=V|373=2|10=204|8=FIX.4.4|9=149|35=3|34=467|49=TEST_ACCEPTOR|52=20250613-15:15:33.553|56=TEST_INITIATOR|45=466|58=Tag not defined for this message type, field=65|371=65|372=V|373=2|10=206|8=FIX.4.4|9=149|35=3|34=468|49=TEST_ACCEPTOR|52=20250613-15:15:33.553|56=TEST_INITIATOR|45=467|58=Tag not defined for this message type, field=65|371=65|372=V|373=2|10=208|8=FIX.4.4|9=149|35=3|34=469|49=TEST_ACCEPTOR|52=20250613-15:15:33.553|56=TEST_INITIATOR|45=468|58=Tag not defined for this message type, field=65|371=65|372=V|373=2|10=210|8=FIX.4.4|9=149|35=3|34=470|49=TEST_ACCEPTOR|52=20250613-15:15:33.553|56=TEST_INITIATOR|45=469|58=Tag not defined for this message type, field=65|371=65|372=V|373=2|10=203|8=FIX.4.4|9=149|35=3|34=471|49=TEST_ACCEPTOR|52=20250613-15:15:33.553|56=TEST_INITIATOR|45=470|58=Tag not defined for this message type, field=65|371=65|372=V|373=2|10=196|8=FIX.4.4|9=149|35=3|34=472|49=TEST_ACCEPTOR|52=20250613-15:15:33.553|56=TEST_INITIATOR|45=471|58=Tag not defined for this message type, field=65|371=65|372=V|373=2|10=198|8=FIX.4.4|9=149|35=3|34=473|49=TEST_ACCEPTOR|52=20250613-15:15:33.553|56=TEST_INITIATOR|45=472|58=Tag not defined for this message type, field=65|371=65|372=V|373=2|10=200|8=FIX.4.4|9=149|35=3|34=474|49=TEST_ACCEPTOR|52=20250613-15:15:33.554|56=TEST_INITIATOR|45=473|58=Tag not defined for this message type, field=65|371=65|372=V|373=2|10=203|8=FIX.4.4|9=149|35=3|34=475|49=TEST_ACCEPTOR|52=20250613-15:15:33.554|56=TEST_INITIATOR|45=474|58=Tag not defined for this message type, field=65|371=65|372=V|373=2|10=205|8=FIX.4.4|9=149|35=3|34=476|49=TEST_ACCEPTOR|52=20250613-15:15:33.554|56=TEST_INITIATOR|45=475|58=Tag not defined for this message type, field=65|371=65|372=V|373=2|10=207|8=FIX.4.4|9=149|35=3|34=477|49=TEST_ACCEPTOR|52=20250613-15:15:33.554|56=TEST_INITIATOR|45=476|58=Tag not defined for this message type, field=65|371=65|372=V|373=2|10=209|8=FIX.4.4|9=149|35=3|34=478|49=TEST_ACCEPTOR|52=20250613-15:15:33.554|56=TEST_INITIATOR|45=477|58=Tag not defined for this message type, field=65|371=65|372=V|373=2|10=211|8=FIX.4.4|9=149|35=3|34=479|49=TEST_ACCEPTOR|52=20250613-15:15:33.554|56=TEST_INITIATOR|45=478|58=Tag not defined for this message type, field=65|371=65|372=V|373=2|10=213|8=FIX.4.4|9=149|35=3|34=480|49=TEST_ACCEPTOR|52=20250613-15:15:33.554|56=TEST_INITIATOR|45=479|58=Tag not defined for this message type, field=65|371=65|372=V|373=2|10=206|8=FIX.4.4|9=149|35=3|34=481|49=TEST_ACCEPTOR|52=20250613-15:15:33.554|56=TEST_INITIATOR|45=480|58=Tag not defined for this message type, field=65|371=65|372=V|373=2|10=199|8=FIX.4.4|9=149|35=3|34=482|49=TEST_ACCEPTOR|52=20250613-15:15:33.554|56=TEST_INITIATOR|45=481|58=Tag not defined for this message type, field=65|371=65|372=V|373=2|10=201|8=FIX.4.4|9=149|35=3|34=483|49=TEST_ACCEPTOR|52=20250613-15:15:33.555|56=TEST_INITIATOR|45=482|58=Tag not defined for this message type, field=65|371=65|372=V|373=2|10=204|8=FIX.4.4|9=149|35=3|34=484|49=TEST_ACCEPTOR|52=20250613-15:15:33.555|56=TEST_INITIATOR|45=483|58=Tag not defined for this message type, field=65|371=65|372=V|373=2|10=206|8=FIX.4.4|9=149|35=3|34=485|49=TEST_ACCEPTOR|52=20250613-15:15:33.555|56=TEST_INITIATOR|45=484|58=Tag not defined for this message type, field=65|371=65|372=V|373=2|10=208|8=FIX.4.4|9=149|35=3|34=486|49=TEST_ACCEPTOR|52=20250613-15:15:33.555|56=TEST_INITIATOR|45=485|58=Tag not defined for this message type, field=65|371=65|372=V|373=2|10=210|8=FIX.4.4|9=149|35=3|34=487|49=TEST_ACCEPTOR|52=20250613-15:15:33.555|56=TEST_INITIATOR|45=486|58=Tag not defined for this message type, field=65|371=65|372=V|373=2|10=212|8=FIX.4.4|9=149|35=3|34=488|49=TEST_ACCEPTOR|52=20250613-15:15:33.555|56=TEST_INITIATOR|45=487|58=Tag not defined for this message type, field=65|371=65|372=V|373=2|10=214|8=FIX.4.4|9=149|35=3|34=489|49=TEST_ACCEPTOR|52=20250613-15:15:33.555|56=TEST_INITIATOR|45=488|58=Tag not defined for this message type, field=65|371=65|372=V|373=2|10=216|8=FIX.4.4|9=149|35=3|34=490|49=TEST_ACCEPTOR|52=20250613-15:15:33.555|56=TEST_INITIATOR|45=489|58=Tag not defined for this message type, field=65|371=65|372=V|373=2|10=209|8=FIX.4.4|9=149|35=3|34=491|49=TEST_ACCEPTOR|52=20250613-15:15:33.555|56=TEST_INITIATOR|45=490|58=Tag not defined for this message type, field=65|371=65|372=V|373=2|10=202|8=FIX.4.4|9=149|35=3|34=492|49=TEST_ACCEPTOR|52=20250613-15:15:33.555|56=TEST_INITIATOR|45=491|58=Tag not defined for this message type, field=65|371=65|372=V|373=2|10=204|8=FIX.4.4|9=149|35=3|34=493|49=TEST_ACCEPTOR|52=20250613-15:15:33.555|56=TEST_INITIATOR|45=492|58=Tag not defined for this message type, field=65|371=65|372=V|373=2|10=206|8=FIX.4.4|9=149|35=3|34=494|49=TEST_ACCEPTOR|52=20250613-15:15:33.555|56=TEST_INITIATOR|45=493|58=Tag not defined for this message type, field=65|371=65|372=V|373=2|10=208|8=FIX.4.4|9=149|35=3|34=495|49=TEST_ACCEPTOR|52=20250613-15:15:33.555|56=TEST_INITIATOR|45=494|58=Tag not defined for this message type, field=65|371=65|372=V|373=2|10=210|8=FIX.4.4|9=149|35=3|34=496|49=TEST_ACCEPTOR|52=20250613-15:15:33.555|56=TEST_INITIATOR|45=495|58=Tag not defined for this message type, field=65|371=65|372=V|373=2|10=212|8=FIX.4.4|9=149|35=3|34=497|49=TEST_ACCEPTOR|52=20250613-15:15:33.556|56=TEST_INITIATOR|45=496|58=Tag not defined for this message type, field=65|371=65|372=V|373=2|10=215|8=FIX.4.4|9=149|35=3|34=498|49=TEST_ACCEPTOR|52=20250613-15:15:33.556|56=TEST_INITIATOR|45=497|58=Tag not defined for this message type, field=65|371=65|372=V|373=2|10=217|8=FIX.4.4|9=149|35=3|34=499|49=TEST_ACCEPTOR|52=20250613-15:15:33.556|56=TEST_INITIATOR|45=498|58=Tag not defined for this message type, field=65|371=65|372=V|373=2|10=219|8=FIX.4.4|9=149|35=3|34=500|49=TEST_ACCEPTOR|52=20250613-15:15:33.556|56=TEST_INITIATOR|45=499|58=Tag not defined for this message type, field=65|371=65|372=V|373=2|10=203|8=FIX.4.4|9=149|35=3|34=501|49=TEST_ACCEPTOR|52=20250613-15:15:33.556|56=TEST_INITIATOR|45=500|58=Tag not defined for this message type, field=65|371=65|372=V|373=2|10=187|8=FIX.4.4|9=149|35=3|34=502|49=TEST_ACCEPTOR|52=20250613-15:15:33.556|56=TEST_INITIATOR|45=501|58=Tag not defined for this message type, field=65|371=65|372=V|373=2|10=189|8=FIX.4.4|9=149|35=3|34=503|49=TEST_ACCEPTOR|52=20250613-15:15:33.556|56=TEST_INITIATOR|45=502|58=Tag not defined for this message type, field=65|371=65|372=V|373=2|10=191|8=FIX.4.4|9=149|35=3|34=504|49=TEST_ACCEPTOR|52=20250613-15:15:33.556|56=TEST_INITIATOR|45=503|58=Tag not defined for this message type, field=65|371=65|372=V|373=2|10=193|8=FIX.4.4|9=149|35=3|34=505|49=TEST_ACCEPTOR|52=20250613-15:15:33.556|56=TEST_INITIATOR|45=504|58=Tag not defined for this message type, field=65|371=65|372=V|373=2|10=195|8=FIX.4.4|9=149|35=3|34=506|49=TEST_ACCEPTOR|52=20250613-15:15:33.556|56=TEST_INITIATOR|45=505|58=Tag not defined for this message type, field=65|371=65|372=V|373=2|10=197|8=FIX.4.4|9=149|35=3|34=507|49=TEST_ACCEPTOR|52=20250613-15:15:33.556|56=TEST_INITIATOR|45=506|58=Tag not defined for this message type, field=65|371=65|372=V|373=2|10=199|8=FIX.4.4|9=149|35=3|34=508|49=TEST_ACCEPTOR|52=20250613-15:15:33.556|56=TEST_INITIATOR|45=507|58=Tag not defined for this message type, field=65|371=65|372=V|373=2|10=201|8=FIX.4.4|9=149|35=3|34=509|49=TEST_ACCEPTOR|52=20250613-15:15:33.556|56=TEST_INITIATOR|45=508|58=Tag not defined for this message type, field=65|371=65|372=V|373=2|10=203|8=FIX.4.4|9=149|35=3|34=510|49=TEST_ACCEPTOR|52=20250613-15:15:33.556|56=TEST_INITIATOR|45=509|58=Tag not defined for this message type, field=65|371=65|372=V|373=2|10=196|8=FIX.4.4|9=149|35=3|34=511|49=TEST_ACCEPTOR|52=20250613-15:15:33.556|56=TEST_INITIATOR|45=510|58=Tag not defined for this message type, field=65|371=65|372=V|373=2|10=189|8=FIX.4.4|9=149|35=3|34=512|49=TEST_ACCEPTOR|52=20250613-15:15:33.556|56=TEST_INITIATOR|45=511|58=Tag not defined for this message type, field=65|371=65|372=V|373=2|10=191|8=FIX.4.4|9=149|35=3|34=513|49=TEST_ACCEPTOR|52=20250613-15:15:33.556|56=TEST_INITIATOR|45=512|58=Tag not defined for this message type, field=65|371=65|372=V|373=2|10=193|8=FIX.4.4|9=149|35=3|34=514|49=TEST_ACCEPTOR|52=20250613-15:15:33.557|56=TEST_INITIATOR|45=513|58=Tag not defined for this message type, field=65|371=65|372=V|373=2|10=196|8=FIX.4.4|9=149|35=3|34=515|49=TEST_ACCEPTOR|52=20250613-15:15:33.557|56=TEST_INITIATOR|45=514|58=Tag not defined for this message type, field=65|371=65|372=V|373=2|10=198|8=FIX.4.4|9=149|35=3|34=516|49=TEST_ACCEPTOR|52=20250613-15:15:33.557|56=TEST_INITIATOR|45=515|58=Tag not defined for this message type, field=65|371=65|372=V|373=2|10=200|8=FIX.4.4|9=149|35=3|34=517|49=TEST_ACCEPTOR|52=20250613-15:15:33.557|56=TEST_INITIATOR|45=516|58=Tag not defined for this message type, field=65|371=65|372=V|373=2|10=202|8=FIX.4.4|9=149|35=3|34=518|49=TEST_ACCEPTOR|52=20250613-15:15:33.557|56=TEST_INITIATOR|45=517|58=Tag not defined for this message type, field=65|371=65|372=V|373=2|10=204|8=FIX.4.4|9=149|35=3|34=519|49=TEST_ACCEPTOR|52=20250613-15:15:33.557|56=TEST_INITIATOR|45=518|58=Tag not defined for this message type, field=65|371=65|372=V|373=2|10=206|8=FIX.4.4|9=149|35=3|34=520|49=TEST_ACCEPTOR|52=20250613-15:15:33.557|56=TEST_INITIATOR|45=519|58=Tag not defined for this message type, field=65|371=65|372=V|373=2|10=199|8=FIX.4.4|9=149|35=3|34=521|49=TEST_ACCEPTOR|52=20250613-15:15:33.557|56=TEST_INITIATOR|45=520|58=Tag not defined for this message type, field=65|371=65|372=V|373=2|10=192|8=FIX.4.4|9=149|35=3|34=522|49=TEST_ACCEPTOR|52=20250613-15:15:33.557|56=TEST_INITIATOR|45=521|58=Tag not defined for this message type, field=65|371=65|372=V|373=2|10=194|8=FIX.4.4|9=149|35=3|34=523|49=TEST_ACCEPTOR|52=20250613-15:15:33.557|56=TEST_INITIATOR|45=522|58=Tag not defined for this message type, field=65|371=65|372=V|373=2|10=196|8=FIX.4.4|9=149|35=3|34=524|49=TEST_ACCEPTOR|52=20250613-15:15:33.557|56=TEST_INITIATOR|45=523|58=Tag not defined for this message type, field=65|371=65|372=V|373=2|10=198|8=FIX.4.4|9=149|35=3|34=525|49=TEST_ACCEPTOR|52=20250613-15:15:33.557|56=TEST_INITIATOR|45=524|58=Tag not defined for this message type, field=65|371=65|372=V|373=2|10=200|8=FIX.4.4|9=149|35=3|34=526|49=TEST_ACCEPTOR|52=20250613-15:15:33.557|56=TEST_INITIATOR|45=525|58=Tag not defined for this message type, field=65|371=65|372=V|373=2|10=202|8=FIX.4.4|9=149|35=3|34=527|49=TEST_ACCEPTOR|52=20250613-15:15:33.557|56=TEST_INITIATOR|45=526|58=Tag not defined for this message type, field=65|371=65|372=V|373=2|10=204|8=FIX.4.4|9=149|35=3|34=528|49=TEST_ACCEPTOR|52=20250613-15:15:33.557|56=TEST_INITIATOR|45=527|58=Tag not defined for this message type, field=65|371=65|372=V|373=2|10=206|8=FIX.4.4|9=149|35=3|34=529|49=TEST_ACCEPTOR|52=20250613-15:15:33.557|56=TEST_INITIATOR|45=528|58=Tag not defined for this message type, field=65|371=65|372=V|373=2|10=208|8=FIX.4.4|9=149|35=3|34=530|49=TEST_ACCEPTOR|52=20250613-15:15:33.557|56=TEST_INITIATOR|45=529|58=Tag not defined for this message type, field=65|371=65|372=V|373=2|10=201|8=FIX.4.4|9=149|35=3|34=531|49=TEST_ACCEPTOR|52=20250613-15:15:33.558|56=TEST_INITIATOR|45=530|58=Tag not defined for this message type, field=65|371=65|372=V|373=2|10=195|8=FIX.4.4|9=149|35=3|34=532|49=TEST_ACCEPTOR|52=20250613-15:15:33.558|56=TEST_INITIATOR|45=531|58=Tag not defined for this message type, field=65|371=65|372=V|373=2|10=197|8=FIX.4.4|9=149|35=3|34=533|49=TEST_ACCEPTOR|52=20250613-15:15:33.558|56=TEST_INITIATOR|45=532|58=Tag not defined for this message type, field=65|371=65|372=V|373=2|10=199|8=FIX.4.4|9=149|35=3|34=534|49=TEST_ACCEPTOR|52=20250613-15:15:33.558|56=TEST_INITIATOR|45=533|58=Tag not defined for this message type, field=65|371=65|372=V|373=2|10=201|8=FIX.4.4|9=149|35=3|34=535|49=TEST_ACCEPTOR|52=20250613-15:15:33.558|56=TEST_INITIATOR|45=534|58=Tag not defined for this message type, field=65|371=65|372=V|373=2|10=203|8=FIX.4.4|9=149|35=3|34=536|49=TEST_ACCEPTOR|52=20250613-15:15:33.558|56=TEST_INITIATOR|45=535|58=Tag not defined for this message type, field=65|371=65|372=V|373=2|10=205|8=FIX.4.4|9=149|35=3|34=537|49=TEST_ACCEPTOR|52=20250613-15:15:33.558|56=TEST_INITIATOR|45=536|58=Tag not defined for this message type, field=65|371=65|372=V|373=2|10=207|8=FIX.4.4|9=149|35=3|34=538|49=TEST_ACCEPTOR|52=20250613-15:15:33.558|56=TEST_INITIATOR|45=537|58=Tag not defined for this message type, field=65|371=65|372=V|373=2|10=209|8=FIX.4.4|9=149|35=3|34=539|49=TEST_ACCEPTOR|52=20250613-15:15:33.558|56=TEST_INITIATOR|45=538|58=Tag not defined for this message type, field=65|371=65|372=V|373=2|10=211|8=FIX.4.4|9=149|35=3|34=540|49=TEST_ACCEPTOR|52=20250613-15:15:33.558|56=TEST_INITIATOR|45=539|58=Tag not defined for this message type, field=65|371=65|372=V|373=2|10=204|8=FIX.4.4|9=149|35=3|34=541|49=TEST_ACCEPTOR|52=20250613-15:15:33.558|56=TEST_INITIATOR|45=540|58=Tag not defined for this message type, field=65|371=65|372=V|373=2|10=197|8=FIX.4.4|9=149|35=3|34=542|49=TEST_ACCEPTOR|52=20250613-15:15:33.558|56=TEST_INITIATOR|45=541|58=Tag not defined for this message type, field=65|371=65|372=V|373=2|10=199|8=FIX.4.4|9=149|35=3|34=543|49=TEST_ACCEPTOR|52=20250613-15:15:33.558|56=TEST_INITIATOR|45=542|58=Tag not defined for this message type, field=65|371=65|372=V|373=2|10=201|8=FIX.4.4|9=149|35=3|34=544|49=TEST_ACCEPTOR|52=20250613-15:15:33.558|56=TEST_INITIATOR|45=543|58=Tag not defined for this message type, field=65|371=65|372=V|373=2|10=203|8=FIX.4.4|9=149|35=3|34=545|49=TEST_ACCEPTOR|52=20250613-15:15:33.558|56=TEST_INITIATOR|45=544|58=Tag not defined for this message type, field=65|371=65|372=V|373=2|10=205|8=FIX.4.4|9=149|35=3|34=546|49=TEST_ACCEPTOR|52=20250613-15:15:33.558|56=TEST_INITIATOR|45=545|58=Tag not defined for this message type, field=65|371=65|372=V|373=2|10=207|8=FIX.4.4|9=149|35=3|34=547|49=TEST_ACCEPTOR|52=20250613-15:15:33.559|56=TEST_INITIATOR|45=546|58=Tag not defined for this message type, field=65|371=65|372=V|373=2|10=210|8=FIX.4.4|9=149|35=3|34=548|49=TEST_ACCEPTOR|52=20250613-15:15:33.559|56=TEST_INITIATOR|45=547|58=Tag not defined for this message type, field=65|371=65|372=V|373=2|10=212|8=FIX.4.4|9=149|35=3|34=549|49=TEST_ACCEPTOR|52=20250613-15:15:33.559|56=TEST_INITIATOR|45=548|58=Tag not defined for this message type, field=65|371=65|372=V|373=2|10=214|8=FIX.4.4|9=149|35=3|34=550|49=TEST_ACCEPTOR|52=20250613-15:15:33.559|56=TEST_INITIATOR|45=549|58=Tag not defined for this message type, field=65|371=65|372=V|373=2|10=207|8=FIX.4.4|9=149|35=3|34=551|49=TEST_ACCEPTOR|52=20250613-15:15:33.559|56=TEST_INITIATOR|45=550|58=Tag not defined for this message type, field=65|371=65|372=V|373=2|10=200|8=FIX.4.4|9=149|35=3|34=552|49=TEST_ACCEPTOR|52=20250613-15:15:33.559|56=TEST_INITIATOR|45=551|58=Tag not defined for this message type, field=65|371=65|372=V|373=2|10=202|8=FIX.4.4|9=149|35=3|34=553|49=TEST_ACCEPTOR|52=20250613-15:15:33.559|56=TEST_INITIATOR|45=552|58=Tag not defined for this message type, field=65|371=65|372=V|373=2|10=204|8=FIX.4.4|9=149|35=3|34=554|49=TEST_ACCEPTOR|52=20250613-15:15:33.559|56=TEST_INITIATOR|45=553|58=Tag not defined for this message type, field=65|371=65|372=V|373=2|10=206|8=FIX.4.4|9=149|35=3|34=555|49=TEST_ACCEPTOR|52=20250613-15:15:33.559|56=TEST_INITIATOR|45=554|58=Tag not defined for this message type, field=65|371=65|372=V|373=2|10=208|8=FIX.4.4|9=149|35=3|34=556|49=TEST_ACCEPTOR|52=20250613-15:15:33.559|56=TEST_INITIATOR|45=555|58=Tag not defined for this message type, field=65|371=65|372=V|373=2|10=210|8=FIX.4.4|9=149|35=3|34=557|49=TEST_ACCEPTOR|52=20250613-15:15:33.559|56=TEST_INITIATOR|45=556|58=Tag not defined for this message type, field=65|371=65|372=V|373=2|10=212|8=FIX.4.4|9=149|35=3|34=558|49=TEST_ACCEPTOR|52=20250613-15:15:33.559|56=TEST_INITIATOR|45=557|58=Tag not defined for this message type, field=65|371=65|372=V|373=2|10=214|8=FIX.4.4|9=149|35=3|34=559|49=TEST_ACCEPTOR|52=20250613-15:15:33.559|56=TEST_INITIATOR|45=558|58=Tag not defined for this message type, field=65|371=65|372=V|373=2|10=216|8=FIX.4.4|9=149|35=3|34=560|49=TEST_ACCEPTOR|52=20250613-15:15:33.559|56=TEST_INITIATOR|45=559|58=Tag not defined for this message type, field=65|371=65|372=V|373=2|10=209|8=FIX.4.4|9=149|35=3|34=561|49=TEST_ACCEPTOR|52=20250613-15:15:33.559|56=TEST_INITIATOR|45=560|58=Tag not defined for this message type, field=65|371=65|372=V|373=2|10=202|8=FIX.4.4|9=149|35=3|34=562|49=TEST_ACCEPTOR|52=20250613-15:15:33.559|56=TEST_INITIATOR|45=561|58=Tag not defined for this message type, field=65|371=65|372=V|373=2|10=204|8=FIX.4.4|9=149|35=3|34=563|49=TEST_ACCEPTOR|52=20250613-15:15:33.559|56=TEST_INITIATOR|45=562|58=Tag not defined for this message type, field=65|371=65|372=V|373=2|10=206|8=FIX.4.4|9=149|35=3|34=564|49=TEST_ACCEPTOR|52=20250613-15:15:33.559|56=TEST_INITIATOR|45=563|58=Tag not defined for this message type, field=65|371=65|372=V|373=2|10=208|8=FIX.4.4|9=149|35=3|34=565|49=TEST_ACCEPTOR|52=20250613-15:15:33.560|56=TEST_INITIATOR|45=564|58=Tag not defined for this message type, field=65|371=65|372=V|373=2|10=202|8=FIX.4.4|9=149|35=3|34=566|49=TEST_ACCEPTOR|52=20250613-15:15:33.560|56=TEST_INITIATOR|45=565|58=Tag not defined for this message type, field=65|371=65|372=V|373=2|10=204|8=FIX.4.4|9=149|35=3|34=567|49=TEST_ACCEPTOR|52=20250613-15:15:33.560|56=TEST_INITIATOR|45=566|58=Tag not defined for this message type, field=65|371=65|372=V|373=2|10=206|8=FIX.4.4|9=149|35=3|34=568|49=TEST_ACCEPTOR|52=20250613-15:15:33.560|56=TEST_INITIATOR|45=567|58=Tag not defined for this message type, field=65|371=65|372=V|373=2|10=208|8=FIX.4.4|9=149|35=3|34=569|49=TEST_ACCEPTOR|52=20250613-15:15:33.560|56=TEST_INITIATOR|45=568|58=Tag not defined for this message type, field=65|371=65|372=V|373=2|10=210|8=FIX.4.4|9=149|35=3|34=570|49=TEST_ACCEPTOR|52=20250613-15:15:33.560|56=TEST_INITIATOR|45=569|58=Tag not defined for this message type, field=65|371=65|372=V|373=2|10=203|8=FIX.4.4|9=149|35=3|34=571|49=TEST_ACCEPTOR|52=20250613-15:15:33.560|56=TEST_INITIATOR|45=570|58=Tag not defined for this message type, field=65|371=65|372=V|373=2|10=196|8=FIX.4.4|9=149|35=3|34=572|49=TEST_ACCEPTOR|52=20250613-15:15:33.560|56=TEST_INITIATOR|45=571|58=Tag not defined for this message type, field=65|371=65|372=V|373=2|10=198|8=FIX.4.4|9=149|35=3|34=573|49=TEST_ACCEPTOR|52=20250613-15:15:33.560|56=TEST_INITIATOR|45=572|58=Tag not defined for this message type, field=65|371=65|372=V|373=2|10=200|8=FIX.4.4|9=149|35=3|34=574|49=TEST_ACCEPTOR|52=20250613-15:15:33.560|56=TEST_INITIATOR|45=573|58=Tag not defined for this message type, field=65|371=65|372=V|373=2|10=202|8=FIX.4.4|9=149|35=3|34=575|49=TEST_ACCEPTOR|52=20250613-15:15:33.560|56=TEST_INITIATOR|45=574|58=Tag not defined for this message type, field=65|371=65|372=V|373=2|10=204|8=FIX.4.4|9=149|35=3|34=576|49=TEST_ACCEPTOR|52=20250613-15:15:33.560|56=TEST_INITIATOR|45=575|58=Tag not defined for this message type, field=65|371=65|372=V|373=2|10=206|8=FIX.4.4|9=149|35=3|34=577|49=TEST_ACCEPTOR|52=20250613-15:15:33.560|56=TEST_INITIATOR|45=576|58=Tag not defined for this message type, field=65|371=65|372=V|373=2|10=208|8=FIX.4.4|9=149|35=3|34=578|49=TEST_ACCEPTOR|52=20250613-15:15:33.560|56=TEST_INITIATOR|45=577|58=Tag not defined for this message type, field=65|371=65|372=V|373=2|10=210|8=FIX.4.4|9=149|35=3|34=579|49=TEST_ACCEPTOR|52=20250613-15:15:33.560|56=TEST_INITIATOR|45=578|58=Tag not defined for this message type, field=65|371=65|372=V|373=2|10=212|8=FIX.4.4|9=149|35=3|34=580|49=TEST_ACCEPTOR|52=20250613-15:15:33.560|56=TEST_INITIATOR|45=579|58=Tag not defined for this message type, field=65|371=65|372=V|373=2|10=205|8=FIX.4.4|9=149|35=3|34=581|49=TEST_ACCEPTOR|52=20250613-15:15:33.560|56=TEST_INITIATOR|45=580|58=Tag not defined for this message type, field=65|371=65|372=V|373=2|10=198|8=FIX.4.4|9=149|35=3|34=582|49=TEST_ACCEPTOR|52=20250613-15:15:33.560|56=TEST_INITIATOR|45=581|58=Tag not defined for this message type, field=65|371=65|372=V|373=2|10=200|8=FIX.4.4|9=149|35=3|34=583|49=TEST_ACCEPTOR|52=20250613-15:15:33.560|56=TEST_INITIATOR|45=582|58=Tag not defined for this message type, field=65|371=65|372=V|373=2|10=202|8=FIX.4.4|9=149|35=3|34=584|49=TEST_ACCEPTOR|52=20250613-15:15:33.5